:1000000080190020F50E0000654E0000E10E000092
:10001000E10E0000E10E0000E10E0000E10E000024
:10002000000000000000000000000000CD0F0000F4
:10003000E10E0000000000006D110000E10E000064
:10004000ED110000ED110000ED110000ED110000B8
:10005000ED110000ED110000ED110000ED110000A8
:10006000ED110000ED110000ED110000ED11000098
:10007000ED110000ED110000ED110000ED11000088
:10008000ED110000ED110000ED110000ED11000078
:10009000ED110000ED110000ED110000ED11000068
:1000A000ED110000ED110000ED110000ED11000058
:1000B000ED110000ED110000ED110000ED11000048
:1000C000ED110000ED110000ED110000ED11000038
:1000D000ED110000ED110000ED110000ED11000028
:1000E000ED110000ED110000ED110000ED11000018
:1000F000ED110000ED110000ED110000ED11000008
:10010000ED110000ED110000ED110000ED110000F7
:10011000ED110000ED110000ED110000ED110000E7
:10012000ED110000ED110000ED110000ED110000D7
:10013000ED110000ED110000ED110000ED110000C7
:10014000ED110000ED110000ED110000ED110000B7
:04015000ED110000AD
:1001540053B94AB9002908BF00281CBF4FF0FF312A
:100164004FF0FF3000F00CB8ADF1080C6DE904CE8F
:1001740000F008F8DDF804E0DDE9022304B070477C
:10018400704700BF2DE9F0478C468E46089E154601
:1001940004461946002B40F0D080724547D9B2FA84
:1001A40082F74FB1C7F120030EFA07FCBD40BC40F3
:1001B40020FA03F343EA0C0C4FEA154EA8B2230CC1
:1001C400BCFBFEF80EFB18CC08FB00F943EA0C4319
:1001D400994528D9EB1808F1FF3204D2994502D980
:1001E400A8F102022B44A3EB0903A4B2B3FBFEFC67
:1001F4000EFB1C330CFB00F044EA0344A04214D968
:100204002C190CF1FF3304D2A04202D9ACF1020341
:100214002C44241A43EA02401EB1FC4000233460FB
:100224007360BDE8F0874246DDE76346F1E7002AE4
:1002340079D0B2FA82F3002B3FD01946C1F12003E2
:1002440002FA01F500FA01F42EFA03F20EFA01FEA5
:1002540020FA03F3AFB243EA0E034FEA154EB2FBA2
:10026400FEFC0EFB1C201A0C0CFB07F842EA0042B1
:1002740090455AD9AA180CF1FF3004D2904502D9FE
:10028400ACF102002A44A2EB08029BB2B2FBFEFCD2
:100294000EFB1C220CFB07F743EA02439F4246D99C
:1002A400EB180CF1FF3204D29F4202D9ACF10202E6
:1002B4002B44DB1B42EA004202E0AEEB02030122C4
:1002C4004FEA154EAFB2200CB3FBFEFC0EFB1C3301
:1002D4000CFB07F840EA034398452AD9EB180CF1C4
:1002E400FF3004D2984502D9ACF102002B44A3EBB1
:1002F4000803A4B2B3FBFEFC0EFB1C330CFB07F794
:1003040044EA0344A74216D92C190CF1FF3304D252
:10031400A74202D9ACF102032C44E41B43EA004097
:100324000F46114678E71F2188E76046ABE762462F
:10033400BFE76046DBE76346EFE7734506D916B9C6
:10034400002108466DE7C6E9000EF9E7B3FA83F722
:1003540087B9734501D3824207D8841A6EEB03032D
:1003640001209C461EB900215BE73846FAE7C6E93E
:10037400004CF8E7C7F1200CBB4000FA07F422FA5E
:100384000CF520FA0CF1BA401D432EFA0CF30EFAC8
:1003940007FE4FEA154941EA0E011FFA85FEB3FB39
:1003A400F9F809FB18300B0C08FB0EFA43EA00437A
:1003B4009A4540D9EB1808F1FF3004D29A4502D986
:1003C400A8F102002B44A3EB0A0389B2B3FBF9F8AA
:1003D40009FB183308FB0EFE41EA03418E452CD974
:1003E400691808F1FF3304D28E4502D9A8F102033B
:1003F400294443EA0040A1EB0E01A0FB02984145C9
:10040400CE46434602D306D14C4504D20138B9EB5B
:10041400020E68EB0503002EA5D0B4EB0E0261EBCF
:10042400030101FA0CFC22FA07F3F9404CEA030336
:10043400C6E9003197E74046C5E74346D9E70000DF
:1004440010B40A78022A03D0052A18D010BC7047C9
:10045400CB68012BFAD1D1E90123D35C313B032BC7
:10046400F4D8DFE803F00206080A094810BC04F0D7
:1004740028BB0848FAE70848F8E70848F6E783681D
:100484000A22DC680649A446642310BC604700BF06
:1004940068690000706900007869000080690000E4
:1004A4001C0C0020F8B500242D4D55F8340005F03F
:1004B40013FE80B30134042CF7D100250126284C07
:1004C40020682179E388DA07076954BF43F4B0133D
:1004D40083F4D01313F0010F23F480123B6806FA5F
:1004E40001FC14BF4CEA030323EA0C03D0F808E030
:1004F4003B60DEF80030984700280CDB0135042D02
:1005040004F10804DCD1174C204605F0E5FD20B9C0
:10051400154804F0C3FB0020F8BDA5682B680BB98F
:100524000120F9E700222046104998470028F7D116
:100534004FF0FF336D2220466E680D49B047002806
:10054400EED164230A222046ED680A49A847002810
:10055400E6D100214FF4004005F0F0FEF9E700BFBA
:1005640068690000746600004C6B000045040000DC
:100574006C0100201C0C0020014B1B68184700BFB5
:1005840000000020014B1860704700BF00000020ED
:1005940030B5044685B00D4610220021684605F0AA
:1005A4008BFF02238DF80230044B2A46214668460D
:1005B400019304F043F805B030BD00BF7D05000091
:1005C40080B505460E461746984603F025FB0346BC
:1005D40000F01CFE0446DFF81890424649F800304B
:1005E40039463046A84754F8090000F0A7FD00BF7B
:1005F400080000002DE9F047058B0446280717463C
:100604000CD501290CBF45F0100545F020052583C4
:1006140087F31188BFF36F8FBDE8F087022905F0D7
:10062400070540F09480204604F045FB052864D873
:1006340001A353F820F000BF150600005307000083
:10064400FF060000C1060000DB060000ED06000006
:1006540001F007035A1F012A1FD8002221F00701C5
:10066400062BD4F8008089B2C4E9002209D143469C
:1006740003E0628B013262831B68002BF9D141F0E5
:1006840002012046218304F016FB4FF000090028E4
:100694006DD041F02001218369E0042B0AD121F0BF
:1006A400070189B22046218304F005FB10B141F013
:1006B400200121834FF00008C14658E02369D3F894
:1006C4000090238B23F0070343F006034FF0000848
:1006D400238346464BE02369D3F80490238B23F00D
:1006E400070343F00403F1E72369D3F80890238B4D
:1006F40023F0070343F00503E8E74FF00008C14681
:10070400E7E7012243F00803238387F31188BFF34B
:100714006F8F002A3BD1B8F1000F4AD1B9F1000F15
:1007240002D020462C49C847EFF31187202383F3D6
:100734001288BFF36F8F238B23F008039BB22383AC
:10074400D9063FD523F01002228303F0070566691A
:10075400218B002EBFF67CAF00239946D4F800808D
:1007640021F00701C4E9003341F001012183238B07
:1007740003F0070AAA4502D0A268002AC1D1B8F141
:10078400000F02D1B9F1000FDAD00022BAE7A16854
:100794000029C0D00D680029BDD0334652462046FA
:1007A4004F68B8471DB12B6829461D46F3E72B4611
:1007B400FAE74146334652462046D8F8008004F012
:1007C400A6FAA8E79A067FF523AF23F02002228336
:1007D40003F0070527E700BF3F4D0000014B03600E
:1007E400002070478869000008B5044804F056FAF0
:1007F400034804F053FA002008BD00BF656B0000F5
:100804009A6B0000014803F0BDBD00BF8869000079
:1008140038B5044618B90F4B0F485B6898476168B0
:10082400B1F5683F10D0B1F5680F0DD00B4DA9425A
:100834000AD011F46861206807D00146084805F021
:1008440090FC00232360656038BD142205F034FE5B
:10085400F9E700BFEC000020C76B00002C5F5CA927
:10086400480A002008B560B34368B3F5683F0ED06A
:10087400B3F5680F18D0144A934220D000684FF0A3
:10088400FF324FF0FF3302F009FE58B115E00122A8
:100894000368D3E8EF1F002903D1C3E8E02F002841
:1008A400F7D10AD1002008BD0368084A1B7803F574
:1008B400807352F82330002BF4D00548F3E7054841
:1008C400F1E76FF4E040EEE72C5F5CA90000035011
:1008D400E98FFFFFEA8FFFFF08B520B34368B3F544
:1008E400683F09D0B3F5680F13D0114A93421DD065
:1008F400006802F045FE14E000220368D3E8EF1F0D
:10090400012903D1C3E8E02F0028F7D109D0094811
:1009140008BD00210368084A1B7803F5807342F878
:1009240023100020F4E76FF4E040F1E70348EFE719
:100934002C5F5CA9E98FFFFF00000350EA8FFFFFE3
:1009440010B5044618B91D4B1D485B689847636889
:10095400B3F5683F2FD0B3F5680F2CD0194A9342F2
:1009640019D1236803BB4FF0FF324FF0FF33214608
:10097400154802F065FD08B923681BB90F4B1348ED
:100984005B68984714220021206805F095FD4FF418
:100994006863636008E0B3F5680F0DD83A2B03D0A1
:1009A40040F6BA629342DED1206805F025FC636804
:1009B40043F03A03636010BD054AF3E7EC000020FE
:1009C400C76B00002C5F5CA9480A0020ED6B000097
:1009D4003A00003A08B5064940231422054805F0B8
:1009E400B3FBBDE808400449044803F03DBD00BF23
:1009F40048050020480A002090690000A46900000E
:100A040008B50348034A0021121A04F021FA08BD6C
:100A1400380200203C0C0020074808B5074A084962
:100A2400121A04F017FABDE808400648064A0749B6
:100A3400121A04F00FBA00BF000000203402002094
:100A4400C87000000000002000000020C8700000F2
:100A540038B505460C4699B1D1E901230F48096818
:100A640004F01CF9D4E90423E1680D4804F016F9F4
:100A7400E1690C4804F012F9A1690B4804F00EF97D
:100A8400012D05D1EFF305810848103904F006F96A
:100A940021462846BDE8384002F08CBB1A6C0000A1
:100AA4004A6C00007A6C00008A6C0000B96C00008B
:100AB40030BFFFF7FDBF00BF2DE9F04105460B4EE7
:100AC400DFF82C80324606EB0807CC1B2046094988
:100AD40005F0CCFCA01942460021083C05F0ECFCD2
:100AE400C5F8A44007F10800BDE8F081000000004B
:100AF400040000006069000010B5204C204804F098
:100B0400CDF8A36A990137D51E4804F0C7F81E2012
:100B1400A36ADA0103D51C4804F0C0F81F20174C5F
:100B2400A36ADB0203D5194804F0B8F80220A36ACB
:100B34001C0303D5164804F0B1F821200F4CA36A16
:100B4400590303D5134804F0A9F82220A36A9A0391
:100B540003D5114804F0A2F82320084CA36ADB0350
:100B640003D50E4804F09AF82420A36A6FEA0343DD
:100B74006FEA1343A36210BD1D20C9E700ED00E036
:100B8400CD6C0000E66C0000FA6C0000156D0000EE
:100B9400406D00005F6D0000856D0000A06D0000D9
:100BA40070B5244C064624480D4604F077F8A36A31
:100BB400D90435D5214804F071F81720A36A1A0521
:100BC40003D51F4804F06AF818201A4CA36A9B0541
:100BD4000FD51C4804F062F8A16BA36A180407D56A
:100BE400194804F05BF81EB1A36A23F40043A3621E
:100BF4001920104CA36A590503D5144804F04EF883
:100C04001A20A36ADA050DD5114804F047F81B2011
:100C1400084A936A43F47F43936200232B7070BDA8
:100C24001620CBE7A36A9B04F2D50A4804F036F8F1
:100C34001C20EDE700ED00E0CC6D0000E36D00004A
:100C4400F56D0000096E0000236E0000396E00008F
:100C5400556E00006E6E000070B5264C06462648A0
:100C64000D4604F01BF8A36AD80640D5234804F0C7
:100C740015F81120A36A190703D5214804F00EF8CA
:100C840012201C4CA36A9A070FD51E4804F006F8DC
:100C9400616BA36A1B0607D51B4803F0FFFF1EB157
:100CA400A36A23F08003A3621320124CA36ADE0715
:100CB40003D5164803F0F2FF1420A36A9C0603D55B
:100CC400134803F0EBFF15200A4B9A6AD10658BF6C
:100CD4009A6A9A6A920642BF5A6A22F400525A6287
:100CE4009A6A42F0FF029A6200232B7070BD1020B2
:100CF400C0E700BF00ED00E09E6E0000B56E00008E
:100D0400F56D0000E96E0000026F0000196F00002D
:100D14006E6E00002DE9F0415D4B04465F680025CE
:100D24008AB0C7F3080685F31188BFF36F8F02F00A
:100D34007F43B3F17F4F06D102F00C03082B13D18C
:100D4400544803F0ABFF00252C464FF00008F31E77
:100D54008DF80780092B00F28B80DFE803F00A7F0F
:100D6400837B89898989898710074CBF0C460125B3
:100D7400EBE74948464E03F091FF8DF80780F36A8C
:100D84009A0704D5454803F089FF00232AE0F36A53
:100D9400002B01DA4248F6E7F36A5B00F5D54148D7
:100DA40003F07CFF7369A26943F480737361BFF33A
:100DB4004F8FBFF36F8F32F8023C726922F4807256
:100DC4007261BFF34F8FBFF36F8F03F47F42B2F5AD
:100DD4005F4F27D1DBB2022B24D12168324803F0C4
:100DE4005DFF23689DF80720CAB902AE04F120070D
:100DF400324620686168083403C2BC421646F7D103
:100E0400099A002D40D0C2F3080121B96FEA522299
:100E14006FEA42220992184602A9FFF719FE0AB0A6
:100E2400BDE8F0811A4B9A6AD2B22AB101200DF1C1
:100E34000701FFF711FF0FE09A6A12F47F4F05D004
:100E440001200DF10701FFF7ABFE05E09B6AB3F546
:100E5400803F9AD3FFF750FE0346C3E700200DF10D
:100E64000701E6E700200DF10701ECE70F488AE7E8
:100E74000F4B17F4F87F0F490F4808BF1946A6F126
:100E8400100203F00BFF80E76FF30802C2E700BF14
:100E940000ED00E0676F0000936F0000AB6F00008F
:100EA400CD6F0000DC6F0000FC6F000019700000C3
:100EB400396F00004E6F00003E700000064B5A6907
:100EC40042F010025A615A6942F480625A615A69C6
:100ED40022F008025A61704700ED00E0EFF3088049
:100EE400EFF3098101B57246FFF714FF01BD00BF9E
:100EF400002080F31488BFF36F8F002080F30A88EA
:100F040080F30B88104880F3088800200F4908708C
:100F140001F0FAFC00200E490860BFF34F8F00F087
:100F24002DF8202080F311880A484FF400614018FE
:100F340080F30988EFF314800221084380F31488B6
:100F4400BFF36F8F00F092F880190020380C002056
:100F540094ED00E0400C0020002318460649D1F827
:100F64009020C2F30722934200DB7047C1F8983007
:100F7400C1F8A0000133F6E700ED00E010B572B649
:100F8400002484F31388FFF7E7FF23464FF0FF3074
:100F94000C4A03F120010133102B42F82100F8D14F
:100FA40000234FF0FF30074A03F160010133102B97
:100FB40042F82100F8D162B6BFF34F8FBFF36F8FB1
:100FC40010BD00BF00E100E01EF0040F0CBFEFF302
:100FD4000880EFF30980816911F8021C0229FFD00F
:100FE40001B5724603F038FF01BD00BF40B20028CE
:100FF40007DB01234109034A00F01F00834042F844
:101004002130704700E100E0054B420953F82220EB
:10101400012300F01F0003FA00F01040704700BFE6
:1010240000E100E040B2002801F10101ACBF00F191
:101034006040064B4FEA4111C9B2ABBF00F56140B5
:1010440000F00F0080F800131954704714ED00E00D
:10105400044B054A23F07F039360BFF34F8FBFF324
:101064006F8F70470000000000ED00E008B5FFF747
:10107400EFFF074AD2F8883023F47003C2F88830AF
:10108400FFF7BEFCFFF7C8FC00F0A2F802F05CF921
:1010940000ED00E042F8203C009B0B4942F81C3C68
:1010A400019B21F0010142F8183C029B42F8081C04
:1010B40042F8143C4FF0807342F8043C0023203A79
:1010C4000265C0F8A8307047C505000000B50E4B96
:1010D40015469860D0F8A4200C4B0E461A60D0F840
:1010E400943083F30B882C4686F309880020044B44
:1010F40098472046002100220023024C204700008C
:101104008B4E0000C5050000CC0B0020640A0020B3
:101114001022014B1A61704700ED00E0054B5A693B
:101124009B689A421FBF044A536843F0805353603C
:10113400704700BFCC0B002000ED00E0084B9B681B
:1011440083420BD1EFF3058343B1064B5A6842F057
:1011540080525A605A6A22F400425A6202F062BD16
:10116400CC0B002000ED00E016498A684FF03000F7
:101174001044EFF3098C80E8F01F202080F31288DC
:10118400BFF36F8F104F4FF000664A698A603E606C
:10119400D2F8A4000D4C2060D2F8A8000023C2F8B5
:1011A400A83080F3118802F1300090E8F01F8CF32E
:1011B400098802F1000004B503F05DFEBDE80440B7
:1011C40070470000CC0B002004ED00E0640A00200E
:1011D400002320210348C2180133452B82F8001351
:1011E400F9D1704700E100E008B5EFF30583064A42
:1011F400103B02EBC30152F8330049688847BDE84D
:101204000840FFF78BBF00BF9066000001480068EC
:1012140070470000640A00201FB50121094B0A4AE7
:101224000A4800F0F7F80023064A0393084B01210B
:10123400019301A8D31A029300F0F6F805B05DF803
:1012440004FB00BF0000072000000020B469000078
:10125400380200200A7A0B6810B562F304031C46B6
:10126400CB68520923F01F0343EA4203044A43F0C4
:101274000103C2F89800C2F89C40C2F8A03010BD27
:1012840000ED00E010B5074BD3F89030C3F307230B
:10129400013B984202D8FFF7DDFF10BD6FF0150047
:1012A400FBE700BF00ED00E02DE9F04F0F461446C8
:1012B40006464FF000084B4D85B0B84580F28E804D
:1012C400D6F80490B9F1000F35D0B9F11F0F40F2F0
:1012D400838019F01F0F7FD1D6F800A01AF01F0FDA
:1012E4007AD1504603F00BFE834609EB0A0001381D
:1012F40003F005FE83456FD11BF1160F6CD05C45DE
:101304006ADDC5F898B0D5F89C10C5F898B0D5F842
:10131400A03021F01F0143F01F0AD6E900321A441D
:10132400994202F1FF391BD1CA4508D131465FFA0F
:101334008BF003F0EDFD08F101080C36BDE73146F2
:10134400C5F898B0D5F89C30E0B263F30402C5F850
:101354009C2003F0DDFD10F1160F3DD0441CEAE79C
:10136400C5F898B0D5F8A020013B23F01F0302F084
:101374001F021343CA453146E0B2C5F8A030E8D095
:1013840003F0C6FD10F1160F26D0C5F898B0D5F8B5
:101394009C209DF808300AF1FF3A62F304038DF8AB
:1013A4000830D5F8A0309DF808205B0863F3471295
:1013B4008DF80820D6E900321344009323F01F036C
:1013C4005344A3EB0903013023F01F036946C0B261
:1013D4000393FFF757FFBEE76FF01504204605B0EF
:1013E400BDE8F08F00ED00E00522044BC3F8942023
:1013F400BFF34F8FBFF36F8F704700BF00ED00E066
:10140400BFF35F8F0022024BC3F89420704700BFE4
:1014140000ED00E010B5034C2278FFF745FF207083
:1014240010BD00BF260C00202DE9F74F294D8A4638
:1014340006464FF00008AB46274FD0451BDAD6F8D6
:101444000490B9F1000F3FD031680846019103F0D0
:1014540056FD0199044609EB0100013803F04FFDE4
:1014640084424FF014021D4B08D002FB08F36FF0C6
:1014740015024BF8032003B0BDE8F08F14F1160FEA
:101484002C60F8D01978A142F5DD02FB08B0C7F84A
:101494009840C7F89840D7F89C4000F10801007BB9
:1014A40064F304000871D7F8A0000C79400860F3D5
:1014B40047140C71D7F89C1021F01F016960D7F80C
:1014C400A01021F01F01296108F1010814350C3620
:1014D400B3E700BF680A002000ED00E0260C0020FE
:1014E400F0B55349534DD1F890302C68C3F307231A
:1014F4009C4287B000F299800020FFF781FF4E4B99
:10150400C1F8C030844216D14C4D01A82C70FFF7AD
:1015140065F9002607464A4CB74213D100202B78C0
:101524004349D1F89020C2F30722934277DBFFF7B7
:101534005BFF002046E0696801EB0011FFF78AFEBB
:101544000130DFE70199300101EB0613DA6822402C
:10155400B2F1807F52D00AD8B2F5001F34D0B2F570
:10156400800F3ED0B2F5801F12D00136D4E7B2F11D
:10157400006F43D0B2F1805FF7D15A689B68095875
:10158400013B22F01F00034423F01F03012032E03B
:101594005A689B680958013B22F01F00034401204C
:1015A400844623F01F0340EA4C10CDE902218DF854
:1015B400100002A928780593FFF764FE00282ADAB0
:1015C4006FF0150007B0F0BD5A689B680958013BDD
:1015D40022F01F0003444FF0020C012023F01F03EC
:1015E400E1E75A689B680958013B22F01F00034455
:1015F400062023F01F034FF0000CD4E75A689B68C1
:101604000958013B22F01F0003444FF0030C012052
:1016140023F01F03C7E72B7801332B70A5E7C1F82C
:101624009830C1F8A00001337BE74FF0FF30C9E7E1
:1016340000ED00E0C0690000AAFF4400260C002071
:101644000000F0FF08B5024B1B689847002008BD56
:101654007C0A0020034B044A1860937843F0020389
:10166400937070477C0A00202400002008B50649C6
:10167400064821F00701C1F1005202F5E02203F00F
:10168400B9FA002008BD00BF87190020800A002095
:10169400052370B5144D154E2C780134B4FBF3F3C7
:1016A40003EB8303E41A04F04DF9114A137823B1D0
:1016B40056F82430C01A072814D94FF05023D3F811
:1016C400141141B10021C3F81411D3F814312C7052
:1016D4000CB9012313702C7804F034F946F8240073
:1016E400012070BD0020FCE7280C00208C0A00209B
:1016F400270C0020054B03EB8000D0F8003223F0C8
:10170400E04343F04053C0F8003270470025845052
:10171400012208B50B4B0C49C3F800250223002015
:10172400C1F8D036FFF7E6FF1046FFF7E3FFC1F834
:101734000427C1F80429C1F8002BBDE8084000F0D3
:1017440065B800BF001000500040005007B50022EB
:101754000D4B0E49C3F8A821C3F8AC204FF48062A6
:10176400C3F8B8254FF400620948C3F83C250DF1CD
:10177400070204F03BF9002803DB9DF8070001F0A1
:10178400AFF903B05DF804FB00A002502CA0025096
:1017940028A1025048B1054B054A1B68B3FBF2F37C
:1017A4005843044B43F0010318477047D40000200A
:1017B40040420F006069000070B50025104E1149C9
:1017C400114C000716F8013B03F01F025B090FD010
:1017D400012B0FD1234603EB8203D3F800220135FA
:1017E40022F0E0420243042DC3F80022EAD170BD86
:1017F4000B46F0E70023803253F82230FFDE00BFAF
:10180400A770000000258450002884500149024834
:1018140003F0A0BAE8690000A00A002008B54FF060
:10182400FF33044A13603F231046536001F044F928
:10183400002008BDBC0A0020084B70B5C31A0D4631
:1018440007499B10044659434022064803F0CBFB4A
:101854002B4601462046BDE870401847D80A0020B0
:10186400B76DDBB620660000402373B50B4C0093C4
:10187400041B0B460D460A49A41061430646094A57
:10188400094803F0DBFB014628B130462B4602B081
:10189400BDE87040184702B070BD00BFD80A0020F0
:1018A400B76DDBB6AF500000206600002DE9F843A9
:1018B4000022012107460520FFF7B4FB114801F07F
:1018C4002FF90446C0B901F05FF925464FF01C0911
:1018D4004FF00C083E690C4909FB056003F03AFA25
:1018E400031E0CDB012308FB05661D44042DB367AE
:1018F400F0D12046BDE8F8836FF00404F9E71C46F4
:10190400F7E700BF391A0000F46900001FB5002290
:1019140001236C46CDE902236B46074ACDE9004416
:1019240003F0BCFB28B94FF480420023684601F061
:10193400ABFE04B010BD00BFD950000010B5EFF3EA
:101944001184202383F31288BFF36F8F074A13682F
:1019540023F00201DB07116002D4012004F074F8C3
:1019640084F31188BFF36F8F10BD00BF780B002084
:101974000C22104B014602FB0033002030B4D3E9A3
:101984001C521867EFF31180202484F31288BFF3EC
:101994006F8F9C6F04F0C00444F002049C6780F3D2
:1019A4001188BFF36F8F1DB12B4630BC0248184716
:1019B40030BC7047D80A00202066000010B4EFF352
:1019C4001180202282F31288BFF36F8F17490B68AE
:1019D40043F0020413F001030C601AD04FF05023BB
:1019E400D3F80C14D3F80C3413F0010311D0EFF333
:1019F400118182F31288BFF36F8F0D4A936F03F046
:101A0400C00343F00203936781F31188BFF36F8F20
:101A1400012380F31188BFF36F8F1BB1002010BC2A
:101A2400FFF7A6BF012010BC03F0FFBF780B002016
:101A3400D80A0020092813D8DFE800F00510121294
:101A4400121212120E0C074B986F10F0070007D1F8
:101A5400FFF78EBF0220FBE70320F9E70120F7E739
:101A6400704700BFD80A00202DE9F04101228046CA
:101A74003749D1E8EF3FC1E8E02F0028F9D133B965
:101A8400344935484B60CB608A6003F076F908F13D
:101A9400FF33012B4FD8B8F1010F07D14FF050237A
:101AA400D3F81C3403F00303022B44D004F0ABFB43
:101AB400054658B1EFF31186202383F31288BFF350
:101AC4006F8F01254FF05024244F22E0244B1B78C4
:101AD400002BEFD04FF0502302220646C3F8082310
:101AE400F0E755B3304603F0EEF9D4F81835DBB21D
:101AF400012B0ED1D4F804215AB10022C4F80421D8
:101B0400D4F804210222C4F818252022C7F8802121
:101B1400A360D4F81824D4F81834D203E1D503F020
:101B24000303022B02D0B8F1010FDAD155B186F3C9
:101B34001188BFF36F8FBDE8F0810021212004F0EC
:101B4400FDFBD2E74FF050230222C3F80423F2E74F
:101B5400D40A0020C40A0020F40A002000E100E0B6
:101B6400380C002008B5074804F0B6FA38B1064826
:101B7400FFF770FD0448FEF705FD002008BD6FF077
:101B84001200FBE774660000911B00000A2838B5B8
:101B94000446074D04D1AB680D212846DB699847FC
:101BA400AB680348DB69E1B29847204638BD00BF03
:101BB400746600002DE9F04340F206364768D0060B
:101BC40048BF4FF0030C3B7C02EA060658BFC2F341
:101BD400401C87B001F01F05B6F5837F144645EA23
:101BE40043158DF803C043D00DD8062E16D005D862
:101BF400A6B1022E3ED06FF0150036E0B6F5807F18
:101C0400F9D101260AE040F20222964234D0B6F518
:101C1400407F33D0B6F5007FEDD1022622032FD5C5
:101C240001237A688B409360B86890BB05F01F036A
:101C34006D092CD0012D75D13C4A02EB8302C4F30B
:101C44000043D2F8001283F00103C4F3404444EA91
:101C5400430421F4706144EA8C0421F00F0144EA46
:101C640006230B43C2F80032002007B0BDE8F0831E
:101C74000726D3E70426D1E70526CFE70326CDE7D9
:101C8400630341BF01237A688B40D360CCE7284AC1
:101C9400D3E729460DF1020204F095F914F4403F0C
:101CA40080460CD12946B86804F0A6F9B8F1000FB3
:101CB400DAD19DF80210B86801F07EF9D4E74FF04C
:101CC400000901ABCDE90199CDE90439CDF80C90B7
:101CD4002946B86803AA04F04BF84845C4DB14F459
:101CE400003314D09DF80330C4F3004484F001049D
:101CF4008DF80E308DF80C608DF80D404B4629465A
:101D0400B86803AA04F0E7F80028CFDAACE7CDE915
:101D140004330DF1030303932946B86803AA04F0BE
:101D240027F8F1E7803350F82330FFDE0028845091
:101D3400002584504209034670B502D0012A17D009
:101D440070BD0D4E326951680029F9D0012503F0A8
:101D54001F030C689D400029F2D08A682A4002D0F3
:101D640030464B6898472CB1236821461C46F2E75D
:101D7400024EE7E72346F8E7586600003C66000099
:101D840038B54568A86890B104F030F9014670B9D7
:101D9400A86801F0DFF8044658B902460649A86865
:101DA40004F00EF9224605210D20FFF73BF900202F
:101DB40038BD6FF00400FBE7391D0000F0B544683E
:101DC4001646A068227C01F01F0587B045EA42153B
:101DD40000286CD0B6F5001F04D1294604F05EF942
:101DE400002055E06268607CB6F5800F50624FF0C9
:101DF400000001AA0190506037D1B3F1007F14BFF5
:101E0400052304238DF804300023CDE90423039330
:101E1400E3680DF1030723FA01F111F0010139D14F
:101E2400B6F1A07F36D105F01F036A0903F18003E0
:101E340026D0012A3ED1214A52F82330DB0729D487
:101E44003A462946A06804F0BEF816301AD0029724
:101E54002946A06803AA03F08BFF002818DB01229F
:101E64002946A06804F0CAF8BAE7B3F1C06F05D0F8
:101E7400B3F1007F14BF01230223C3E70323C1E7A7
:101E84000F4AD9E73946A06801F0A0F80028DEDA45
:101E940007B0F0BD3A462946A06804F094F800283B
:101EA400D6D19DF80310A06801F086F8D0E76FF052
:101EB4008500EDE751F82330FFDE00BF0028845091
:101EC40000258450036803F01F025B09026004D0FC
:101ED400012B034818BF002070470248704700BF19
:101EE40000288450002584502DE9F74F15460746F5
:101EF4004FF0010800EB8101B94203D1002003B087
:101F0400BDE8F08F3B68C3F3C322082AC3F3080477
:101F140000F2B4805B48865C40F2FF12944208BF32
:101F24004FF0FF34B3F10C5F4FEA136215D2222A4B
:101F340015D8DFE802F017262B3A2E353A1414147C
:101F440014404C1414141414141414144F86898C4F
:101F54001414148F94979A9DA0004E2A28D06FF0E1
:101F64008500CCE7C5F80C45621C68D001A8019433
:101F7400FFF7A8FF019B4FF0010908FA03F3836000
:101F84003BE0C5F814454FF000091BE0C5F80845CF
:101F9400EAE74FF00009C5F80845601C25D14EE07A
:101FA4004FF00109C5F80C45F7E7C5F81045EAE715
:101FB400C5F81445D8E7C5F80845002EE3D14FF01D
:101FC40000090626631C3AD04FF0000A17E0C5F852
:101FD4000C45F2E7C5F860457B88621C03F00103F9
:101FE4002DD0002BC2D14FF0010901A80194FFF7B5
:101FF40069FF019B08FA03F3C3604FF0010AD7F8A5
:1020040000B001A81BF4004F1CBF4FF001094FF0B2
:10201400000A0194FFF756FF019B1B4C00EB830061
:10202400D0F80022CBF3412B330243EA8B0343EA7B
:102034000A031440234343EA4903C0F80032043737
:102044005AE7C5F86445C7E7C5F86845C4E7C5F865
:102054006C45C1E7C5F824454FF00109B2E7C5F85E
:10206400284581E7C5F83045F6E7C5F83445F3E778
:10207400C5F83845F0E7C5F83C4575E76FF015003D
:102084003DE700BFAB700000F0F0FCFF70B50369E2
:1020940086B0456804461422002101A81E6804F095
:1020A4000BFA05238DF80430002386F86330636847
:1020B4000D4A1B68C3F808236B689B070ED5EFF322
:1020C4001185202383F31288BFF36F8F02212046EA
:1020D40003F056F985F31188BFF36F8F204601A9E9
:1020E40003F068F806B070BD14020A00F8B505469E
:1020F400002201210820FEF795FF0820FEF776FF55
:102104006C680121E06803F02CF96B681968236995
:10211400C1F82435A27D637D207D1343228B0243C5
:102124001343C1F86C352C69206878B100222C491E
:10213400083004F08EF92368DD6320680022294901
:10214400683004F086F92368C3F89C506E68002256
:10215400D6E9004313F0010312D02F6904F10C01F6
:10216400C4F8A02104F59070C4F88C2007F10C0287
:1021740003F03CFC002831DB387B00F0B1FC012388
:102184000822C4F80025726A0121C4F844250022FB
:10219400C4F84825A1606BB9D4F82031002BFBD0DA
:1021A400C4F82021D4F820310123E3604FF4807374
:1021B400C4F80433D4F85831002BFBD00023C4F8FE
:1021C40000356B68596811F0020106D1D8681C68A3
:1021D40003F0C7F80823C4F800350020F8BD00BF99
:1021E40073550000EB5200002DE9F84304460F46F6
:1021F400456804F008F8C8B92F4B1B7883F0010335
:102204006268D2F800809BB94FF0200964266068A8
:1022140003F097F800283ED1012003F0B2FB013E01
:10222400F5D10021212004F089F8EFE70123E7E745
:102234004FF020092169EFF3118689F31288BFF367
:102244006F8F606803F07DF800B30B6853B1D3F867
:10225400A4203AB1D3F8B420002A03DAD8F84C25E4
:10226400C3F8B4206B6A01221F702046696A03F028
:10227400ADF86B689B0744BF4FF48003C8F8043380
:1022840086F31188BFF36F8FBDE8F88386F3118856
:10229400BFF36F8FCFE7EFF311810E4689F31288F6
:1022A400BFF36F8F606803F04CF80028DAD181F334
:1022B4001188BFF36F8FB4E7380C00202DE9F04F7D
:1022C4009846D0F80490036985B01C68029399F885
:1022D400083083460F461646D9F80050002B40F0CC
:1022E4009C8094F86330002B40F09A8094F864301A
:1022F40003F0FF01002B40F09380B8F1FF3F64D05E
:10230400B8F1040F61DD05204FF4004E98FBF0F0A6
:10231400DFF814C10023E0FB0EC1444A6046FDF718
:1023240017FF4FF0000AC4E91601C4E91076C4E9A6
:1023340012AAC4F850A0D9F80420920761D5EFF38B
:1023440011822021039281F31288BFF36F8F02213F
:10235400584603F02AF8039A82F31188BFF36F8F6B
:10236400D9F8042093074CD594F86120002A48D06A
:10237400B24228BF324693463846D9F8201004F0BA
:1023840075F8B6EB0B065F442CD194F86120A2EBF0
:102394000B02D2B284F86120D9F8200000EB0B01C3
:1023A40004F071F8029B03F1080ADAE8EF3F43F006
:1023B4000403CAE8E23F002AF7D145F30735002DAC
:1023C40006DA002005B0BDE8F08F00200146A8E73A
:1023D40001226B09164905F01F05AA40403341F854
:1023E4002320EEE7B8F1FF3F0BD0C5F808A1D5F8DC
:1023F4000831D4E91623CDE9002304F1080001F0E3
:1024040009FF0C4BC5F83475C5F83865C5F80433B5
:10241400012384F863302B60D3E76FF08500D1E7A4
:102424006FF00F00CEE700BF3F420F0040420F00A5
:1024340000E100E010020A00F7B506461C460569F3
:10244400EFF31187202383F31288BFF36F8F2B6878
:10245400D3F8A4C0BCF1000F07D087F31188BFF3F1
:102464006F8F6FF00F0003B0F0BDC3F8A4202B688A
:1024740001F0604EC3F8A010BEF1005F2B6814D1C8
:10248400C3F8A8102B68C3F8AC202946304602F0E4
:10249400B6FF87F31188BFF36F8F73681B7D012B21
:1024A40001D1631C06D10020DDE7C3F8B0C002F0FF
:1024B4001DFFEAE74FF4004600210A4824EAE474C9
:1024C4000023E4FB0601084AFDF742FE2D6802469C
:1024D4000B46683500200021CDE90001284601F0B3
:1024E40099FEE0E73F420F0040420F000123834082
:1024F40070B5DC430C4AD2E8EF1F01EA0405C2E8D8
:10250400E65F002EF7D14FF4803282400748C0F8CE
:102514000823BFF35F8FBFF36F8F03EA0100003816
:1025240018BF012070BD00BF980B0020005001505F
:1025340070B4124922F07F46D1E90034D01AC3188E
:1025440044F10004C1E90034A6F50013B3F5400FCB
:1025540009D20B4B1B681A0A1B069C19094B42F142
:102564000005C3E90045EFF31181202383F31288AA
:10257400BFF36F8F70BC01F053BD00BF0803002090
:102584009C0B002010030020D9B101230D4A834085
:10259400D2E8EFCF4CEA030CC2E8E1CF0029F7D12F
:1025A4004FF48033084A8340C2F80433074BD3E81E
:1025B400AF3FC340DB0742BF4FF40012044BC3F8E4
:1025C40000217047980B002000500150940B00200C
:1025D40000E100E00D4B1868010A0006BFF35F8FAD
:1025E4000B4BD3F80435181841F10001B3F5801FE3
:1025F4000AD2084BD3E90023904271EB030303D2C0
:1026040010F1807041F10001704700BF9C0B002065
:1026140000500150100300202DE9F04F85B01646FC
:102624001F4604469DF840A0FFF760FF0190FFF7A6
:10263400D1FFB04271EB07035CD23B4B301A67EB1E
:102644000101984271F1000109D36FF0150520468C
:102654000199FFF799FF284605B0BDE8F08F334B89
:1026640003EB0413D3E902239F4208BF96424ED0E2
:102674004FF480382E4908FA04F8204626F07F4BA0
:10268400C1F8488303F052F94FF00309584604F1A6
:102694005005AD00ADB205F1502504F5A87305F55C
:1026A40080350293029A20F07F4341F82230C1F82A
:1026B4004483D1F804351F4AC01A033820F07F4000
:1026C400904224D9286868B1D1F80435A3EB0B00F3
:1026D40020F07F40B0F5000F039318D9204603F093
:1026E40025F9039BBAF1000FAFD109EB030009F1FF
:1026F4000109D7E7BAF1000FA7D101230E4AA3407D
:10270400D2E8EF0F1843C2E8E10F0029F8D10749D6
:102714000E982301C8500F9B01EB04120025C2E957
:102724000267536093E700BF01008000F8020020B5
:1027340000500150FDFF7F00940B00207FB5002561
:102744004FF0FF304FF0FF31194C1A4B0226C4F8FA
:102754000833C4F84833184BC4F80855C3E90201D8
:102764004FF480334FF40012C4F80433134B0121A7
:10277400C4F804631520C3F880212A46FEF752FCEE
:102784001520FEF733FC01230D4AA3602360136078
:102794000C4B0D4A009328460023CDE90155FFF761
:1027A4003BFF3046FFF760F9284604B070BD00BF18
:1027B4000050015003000F00F802002000E100E087
:1027C400980B002035250000FFFF7F002DE9F7431B
:1027D4002D4BD3F8042391070BD5D3F8042142B130
:1027E4000022C3F80421294AD3F8043113680133C1
:1027F4001360254CD4F80433DA033FD5244BD3E8D3
:10280400EF2F22F00101C3E8E01F0028F7D1D3071E
:1028140002D4D4F840318BB30025C4F84051D4F825
:102824004031FFF7D7FEEFF31182202383F31288A0
:10283400BFF36F8F174BD3E90267B042B94120D37E
:10284400D3E900984FF0FF304FF0FF311D60C3E92A
:1028540002014FF48033C4F84833C4F84051D4F82B
:10286400403182F31188BFF36F8FB9F1000F05D0A7
:1028740032463B460020CDF80080C84703B0BDE88F
:10288400F083A946EDE700BF005001509C0B0020E7
:10289400940B0020F802002030B5431C124C85B084
:1028A40005D08442A8BF0446012CB8BF0124FFF719
:1028B40091FE0E4B0C4DD3E90013401AB0F5000FF6
:1028C4000FD22218AA4228BF2A46002052180849CB
:1028D400CDE90100009143F10003FFF79DFE05B02F
:1028E40030BD2A46F1E700BFFFFF7F000803002048
:1028F4003525000008B5FFF76DFE024B1B68C01AB2
:1029040008BD00BF0803002008B503F02AF858B139
:10291400614BD3F8202A3AB90D21C3F8201A0121BA
:10292400C3F81C19C3F81C290022D30003F57F0344
:10293400D3F80013013107D0D3F800130132D3F8D0
:102944000433202A0B60F0D103F00BF8002840F088
:102954009A8003F006F840B1504B514AC3F8302531
:102964004FF050230122C3F858254FF47F03D3F8C6
:102974003021D3F83431072A06D1023B012B9EBF04
:102984000022484BC3F84C2502F0EBFF50B14FF046
:102994005023D3F80024D10742BF0022C3F81421E6
:1029A400C3F818214FF47F03D3F83021D3F834311E
:1029B400072A09D14FF05023D3F80024D20744BF8B
:1029C4006FF00102C3F8002402F0CBFF18B16522B6
:1029D400314BC3F80C274FF47F03D3F83021D3F8DD
:1029E4003431072A16D12F4BD3F82034002B11DAB7
:1029F4004FF050230322C3F8182501229A60D3F81C
:102A04000421002AFBD00022C3F804210122DA6049
:102A1400C3F818254FF47F03D3F83021D3F83431A9
:102A2400072A20D1023B022B1DD97E221A4B1B49B7
:102A3400C3F80C27C3F83C297F231B4AC2F818317A
:102A44000023C1F8043EC1F8083E01F54821C1F84D
:102A54001031C2F82431C2F82C3102F5FF1202F50C
:102A64008052C2F8A032114AD2F88C3043F4406349
:102A7400C2F88C300E4A0F4B1168C3F84415D26962
:102A8400C3F84C2508BD2922034BC3F80C270322A5
:102A9400C3F83C275DE700BF00400050009003509E
:102AA4004400EFBE002003500020005000ED00E081
:102AB4000080FF0000600050014B1860704700BFA9
:102AC400A00B002010B5054B1446186802F05BFFFC
:102AD4000028A4BF2070002010BD00BFA00B002060
:102AE4000123024A8340C2F8043570470070015044
:102AF400014B00201B681847A40B0020014B1B68E6
:102B0400184700BFA40B0020014B09201B6818477D
:102B1400A40B0020014B08201B681847A40B0020BD
:102B240010B5144C237913BB01232371124B0028D5
:102B3400206018BF184600F037F8D0B923680F4852
:102B4400002B08BF184600F0B9F890B923680C4868
:102B5400002B08BF184600F0F9F850B9236809485B
:102B6400002B08BF1846BDE8104000F063B86FF0B2
:102B7400770010BDA40B0020F52A00000D2B0000E7
:102B8400012B0000192B000008B5064B1B6843B14C
:102B94000520FEF739FA20B9BDE808400520FEF704
:102BA40025BA08BDA40B0020074B0246187938B992
:102BB4001A6001221A714FF05023C3F8142570478C
:102BC4006FF07700704700BFAC0B00204FF050232C
:102BD4000022C3F80021D3F80021012208491A6019
:102BE400096811B1C3F804237047D3F80021002AFF
:102BF400FBD00022C3F80021D3F80031704700BF96
:102C0400AC0B00204FF05023D3F80423D2070DD58A
:102C1400D3F8002152B10022C3F80021D3F80021D7
:102C24000122C3F80823024B1B681847704700BFF2
:102C3400AC0B0020054B0246187918B91A60012222
:102C44001A7170476FF07700704700BFB40B002013
:102C54004FF050230022C3F82021D3F82021012271
:102C64009A61094A126822B14FF48072C3F80423AE
:102C74007047D3F82021002AFBD00022C3F820217A
:102C8400D3F82031704700BFB40B00204FF050231D
:102C9400D3F80423D2050ED5D3F820215AB100224B
:102CA400C3F82021D3F820214FF48072C3F80823FD
:102CB400014B1B6818477047B40B0020074B0246B2
:102CC400187938B91A6001221A714FF05023C3F8E9
:102CD400802570476FF07700704700BFBC0B002061
:102CE4004FF050230022C3F82421D3F824210122D9
:102CF4001A62094A126822B14FF40072C3F804231D
:102D04007047D3F82421002AFBD00022C3F82421E1
:102D1400D3F82431704700BFBC0B00204FF0502380
:102D2400D3F8042392050ED5D3F824215AB10022F6
:102D3400C3F82421D3F824214FF40072C3F80823E4
:102D4400014B1B6818477047BC0B0020074B024619
:102D5400187938B91A6001221A714FF05023C3F858
:102D6400182570476FF07700704700BFC40B002030
:102D74004FF0502310B5D3F818141E4C11F4803FB3
:102D8400D3F818241BD002F00302022A02D0012A2D
:102D940012D101224FF05023C3F818250022C3F8A2
:102DA4000421D3F8042101229A602268A2B9D3F83D
:102DB4000421002AFBD017E002F0B6FEE9E7D3F8BD
:102DC4001424D207E5D5D3F81C2402F00302013AF7
:102DD400012AF1D822681AB10222C3F8042310BDD3
:102DE400D3F80421002AFBD00022C3F80421D3F82D
:102DF4000431F4E7C40B0020F8B54FF0502301254B
:102E04000026D3F80443184F04F0820404B9F8BD33
:102E1400B4FA84F0C0F11F00830003F580739BB201
:102E240003F1502305FA00F2196892B224EA02046D
:102E34000029EBD01E601B684FF05023022AC3F810
:102E440008230DD1D3F81814D3F8181401F0030192
:102E5400012905D1C3F81825C3F804239960D5E7DF
:102E64003B68C0B29847D1E7C40B0020036803F065
:102E74001F025B09026004D0012B034818BF002025
:102E840070470248704700BF0028845000258450D2
:102E9400034A4309D35C00F01F001844C0B27047D2
:102EA400B4700000024611F0010010B50BD18B077D
:102EB400C1F340000DD50749086A50600862003824
:102EC40018BF012005E0044C236A13602362002B21
:102ED400EDD010BD0028845000258450F7B5044679
:102EE4000846FFF7D5FF04EB4006B38A0D46DB071F
:102EF4002AD5204602F01AFF2946204602F087FE12
:102F040050B1204602F099FE0023276807EB8000A9
:102F1400C0F81035C0F810352946204602F0B6FE38
:102F2400002101A8B1820195FFF7A0FF019B00EBEE
:102F34008300D0F80022064B134043F00203C0F88C
:102F44000032084603B0F0BD6FF01500FAE700BF89
:102F5400F0F0FCFF70B590F88C40054690F88D6059
:102F640024BB21466022143003F0A6FA2146114BFB
:102F7400286853F836608E420ED10024C0F87C4194
:102F8400D0F87C3140F30730FEF730F801232046B7
:102F940085F88C30AB6770BDCBB29B0003F58072B3
:102FA4007C2B04BF845083580131E4E76FF0770031
:102FB400F1E700BF986A000090F88D00024B03EB24
:102FC400800002F0FABC00BFD800002010B5064B08
:102FD40090F88D000C4603EB800002F0D4FC00282E
:102FE400A4BF2070002010BDD80000202DE9F04FB0
:102FF400804658F804AB90F88D40DAF804136A4B15
:10300400C9B2074653F8342050468BB041F0004112
:1030140002F065FE051E39DA0023CDE90833624B60
:10302400E60003EBC404636808A819460093FFF79D
:1030340039FF331D03934FF0000B5C4B0DF1200956
:103044000293029A584912F8013B0292039A02EB46
:10305400D3028A5C03F0070322FA03F3DB071BD4D1
:103064000BF10103022B4FF0010B09F10409E8D124
:103074004FF000410022504602F031FE009908A8AA
:10308400FFF710FF0028D6D125F000450124002DBC
:1030940073D10BB0BDE8F08F454B5B440493D9F872
:1030A4000060002EDCD096FAA6F6B6FA86F6049BEB
:1030B4001C7846EA44142046FFF7EAFE07EB40007A
:1030C400818AF208C1F3820305930193012319F85D
:1030D400020006F0070603FA06F620EA060009F8DD
:1030E400020007A80794FFF7C1FE079A11F0100F1A
:1030F40002F1800250F82260059BC6F3014623D0FA
:103104004046019A214602F0A2FD07A80794FFF762
:10311400ADFE079BF6B2803350F82330C3F301436E
:103124009E4207D10021204602F062FD314620462E
:1031340002F05EFD07A80794FFF798FE0122079BA3
:1031440002FA03F30362AAE7022E14BF0221032149
:103154002046059302F04CFD059B032B03D0022E61
:1031640007D1012BE6D121464046019A02F06FFDBA
:10317400E0E7032EDED1022BF4E795FAA5F3B3FAC8
:1031840083F304FA03F225EA020503F5A2725AF85E
:10319400222007EB43034046B3F87C10C2F30142FC
:1031A40002F055FD73E700BF986A0000C470000088
:1031B400C470000038B5EFF31185202383F312881F
:1031C400BFF36F8F064B9C6802F099FF85F311885B
:1031D400BFF36F8F2046BDE83840FDF7AFBF00BF97
:1031E400CC0B002038B50A4B53F82040013053F87B
:1031F4002050A54200D838BD606830B1037EDB079B
:1032040001D402F051FF0834F3E723689847FAE742
:10321400A86A0000012270B52A4B86B003201A70F8
:10322400FFF7E0FFFEF792FA03F01FF90420FFF71F
:10323400D9FF254C254D2646AE4204F130040FD368
:1032440000F026FC204CAC4226D300F035FCFDF700
:1032540029F91F4A938923F00103938106B070BDB5
:1032640054F80C3C059354F8103C049354F8143C63
:10327400039354F8183C029354F81C3C019354F8FB
:10328400203C009354E90A2354E90C0100F022FA8B
:1032940054F8303C5E65CEE7D4E90A23B3F1FF3F2E
:1032A40008BFB2F1FF3F05D052EA0301206803D101
:1032B40003F05DF83034C6E70649183000F020FE0C
:1032C400F8E700BF380C0020B8680000B8680000B8
:1032D400C8030020EF620000B02370B5144E86B01E
:1032E40003FB0066134B012205930F23CDE9033240
:1032F4000023CDE9013314234FF4A0720E4D0F497E
:1033040003FB0055044602FB00110D4B30460095AB
:1033140000F0E0F9337C2C7423F004033374094B7C
:10332400013403EBC423EE606B6006B070BD00BFD4
:10333400180300208E700000CC0B002040140020E5
:10334400D7610000400C00207FB50020FFF74AFF42
:10335400294B03F5006282F3088883F30A8800246A
:10336400E023264D85F82230EC772C766C76AC760B
:1033740085F820406B6A43F4E0236B6285F82340B0
:10338400FDF79CFDFDF7C4FE4FF0FF33AB62EB622B
:10339400FEF7A6F8FDF740FF194800F001FAFEF722
:1033A400B7F90120FFF71EFF0220164DFFF71AFFA1
:1033B40000F0ACFB144B4FF480625D61134B144975
:1033C400059301232846CDE90343CDE90144114B7C
:1033D400009400F07FF906462B7C284623F0040372
:1033E4002B7402F04EFF2046FFF776FF3146284645
:1033F400084AFDF76BFE00BF400C002000ED00E022
:1034040078040020C8030020CC0B00209370000037
:10341400801500201932000038B5074C074DAC4226
:1034240001D3002038BD204602F06CFE08B91C34DC
:10343400F5E76FF01500F5E7E4010020E401002052
:1034440073B50C46EFF31181202585F31288BFF381
:103454006F8FC5685DB125602B68C36083690133D4
:103464008361002081F31188BFF36F8F11E052EA6A
:10347400030603D16FF00B002560F3E7CDE90023C9
:103484000246083000F076FA18B9034B9B685B6972
:10349400236002B070BD00BFCC0B00202DE9F341C6
:1034A400044617461E46EFF31188202383F312883F
:1034B400BFF36F8F304BC2689B6872B180689842CB
:1034C40017D057EA060216D188F31188BFF36F8F1D
:1034D4006FF00F0002B0BDE8F08193F90E100132D5
:1034E4002161C4E9023288F31188BFF36F8F002091
:1034F400F0E72169F3E793F90E1090F90E30994241
:1035040030DA9942A8BF194602F06EFE05462246FB
:103514004146CDE90076194800F02CFA0028E6D09F
:10352400EFF31186202383F31288BFF36F8FA06813
:10353400D0B1236821699C420AD04BB193F90E3073
:103544009942A8BF19466FF07F039942B8BF194644
:1035540002F04AFE40B13146084802F0ECFE6FF03A
:103564000A00B7E70025D2E7002DF4D186F31188CD
:10357400BFF36F8FF3E700BFCC0B0020390C0020A2
:10358400F8B583680546002B40D0234A92689342DD
:103594003FD1C368012B03D9013BC3600020F8BDB0
:1035A400EFF31187202383F31288BFF36F8F016930
:1035B400806802F019FE2C68A54207D10023C5E9F2
:1035C400023387F31188BFF36F8FE7E7002CF5D040
:1035D400D4E90032002613605A60237CC4E90066F3
:1035E40023F002032374A66004F1180002F0F6FE2F
:1035F400AC6094F90E3020462B61C4F8AC6002F044
:1036040040FE3946054802F096FEC7E76FF0150004
:10361400C5E74FF0FF30C2E7CC0B0020390C002087
:1036240070B5EFF31186202383F31288BFF36F8FF5
:103634000468A0421BD0D4B1D4E900320025136041
:103644005A60237CC4E9005523F002032374A56067
:1036540004F1180002F0C2FE2046C4F8AC5002F097
:1036640010FE3146BDE87040064802F064BED0E961
:1036740002329A4218BF0133836086F31188BFF384
:103684006F8F70BD390C002013B5EFF31181202426
:1036940084F31288BFF36F8F846844B1013C846063
:1036A40081F31188BFF36F8F002002B010BD52EA7E
:1036B400030406D181F31188BFF36F8F6FF00F00FD
:1036C400F3E7CDE900230246014800F053F9ECE7A3
:1036D400390C00202DE9F04F984685B000F15803CD
:1036E400C0E91633129B002583810423D61D26F0DE
:1036F40007060374119B01EB060A0F46C0E9065541
:10370400514685608373C5730446DDF838B0DDF82F
:103714004C90FDF7D1F9109B073020F00700C4E965
:103724002576C4F89C0002930F9BAAEB0006CDE912
:1037340000B33246434639462046FDF7ABFC0F9BA7
:10374400C4E9188BA366109B6565E366EFF31183E8
:10375400202282F31288BFF36F8F104F3A6A3C62C3
:10376400226783F31188BFF36F8FB9F1000F11D073
:103774001F22494604F1740002F0A6FE84F8935017
:10378400BB680BB1D3F8A0303046C4F8A03005B004
:10379400BDE8F08F84F87490F2E700BFCC0B0020F2
:1037A4000123037483810023C0E92533C0F8A030CA
:1037B400014B9860704700BFCC0B00206FF00A01EA
:1037C400094A9368C3F8AC100849C3F8A8004B68C9
:1037D40043F080534B60002383F31188BFF36F8F52
:1037E4009368D3F8AC007047CC0B002000ED00E0E8
:1037F40070B590F91020037C002A2FDBD9062DD157
:103804001A4C63F07F032246037452F8183FE169AF
:10381400934207D1C0E900210860E0610FE09942BA
:10382400F8D01B68002BF5D093F90E6090F90E5078
:10383400AE42F4DD5968C0E9003108605860A569FA
:10384400954200D005B9E568A3681A7CD20606D172
:10385400DA897F2A03D9AA690AB9636170BDAB42C8
:1038640002D0284600F0B0FA6561F7E7CC0B0020DF
:1038740038B590F910200146002A037C04DA03F0DD
:103884007F03037402F0C5FC0D4D2A4652F8184F0D
:10389400AB68944200D004B9EC688B4207D01A7C20
:1038A400D20604D1DA897F2A01D9A2692AB1A342B6
:1038B40002D0204600F088FA23466B6138BD00BF71
:1038C400CC0B0020B3F1FF3F08BFB2F1FF3F03D0A0
:1038D4000249183000F014BB704700BFEF620000CB
:1038E400034648B9EFF3058232B9064A5169926832
:1038F400914201D0FFF762BF83F31188BFF36F8F4A
:10390400704700BFCC0B002038B5184CA168E069A3
:103914000B68814214BF1A46002249680B60596043
:10392400A368E1692AB9124AC3E900210B60E36183
:103934000AE092F90E5093F90E00854212DD5168A7
:10394400C3E900210B605360A569094B9D4200D077
:1039540005B9E568A3689D4202D0284600F034FA10
:10396400656138BD8A42DED01268DBE7CC0B0020EB
:10397400E40B0020F8B5DDE906670D4B0C469868AA
:1039840011460C4A1060EFF31182202282F3128850
:10399400BFF36F8F9D68284602F04DFC28463246DF
:1039A4003B46FFF78FFF2046BDE8F840FFF706BF10
:1039B400CC0B0020F00B0020F8B50446EFF3118780
:1039C400202383F31288BFF36F8F037C49B203F083
:1039D4001F02002A0CBF0126002635D103F07F0305
:1039E4002A4D037402F015FC2A46037C817363F0AC
:1039F4007F03037452F8183FE869934207D1C4E97E
:103A040000200460EC610DE09842F8D01B68002BA4
:103A1400F5D093F90EC08C45F6DD5968C4E9003140
:103A24000C605C60AC69944200D004B9EC68AB688B
:103A34009C4202D0204600F0C7F96C6187F31188DC
:103A4400BFF36F8F3046F8BD9B071CD5856802F025
:103A5400E0FB81732B689D4209D16B68C4E9005374
:103A64001C606C60EAE76A689A42F6D01B68002B17
:103A7400F3D093F90E208A42F5DD5A68C4E9003286
:103A840014605C60DAE78173D8E700BFCC0B0020D8
:103A9400EFF31181202383F31288BFF36F8F054B5B
:103AA4009A68D37B013BD37381F31188BFF36F8F83
:103AB400704700BFCC0B002070B5EFF311862023B4
:103AC40083F31288BFF36F8F0F4DAB68DA7B01323B
:103AD400DA732A4652F8184F944200D004B9EC68BD
:103AE4001A7CD20604D1DA897F2A01D9A2692AB1C3
:103AF4009C4202D0204600F067F923466B613046B1
:103B0400BDE87040FFF7ECBECC0B0020024B03F184
:103B14001802C3E906227047CC0B002070B5EFF3FE
:103B24001186202383F31288BFF36F8F1A4CA16888
:103B3400E0690B68814214BF1A46002249680B6091
:103B44005960A368E1692AB9144AC3E900210B60EA
:103B5400E3610AE092F90E5093F90E00854216DDF6
:103B64005168C3E900210B605360A5690B4B9D426A
:103B740000D005B9E568A3689D4202D0284600F04C
:103B840023F965613046BDE87040FFF717BE8A42ED
:103B9400DAD01268D7E700BFCC0B0020E40B00207A
:103BA400F8B550EA010306460C4603D1FFF7B6FF09
:103BB4000020F8BDEFF31187202383F31288BFF3AD
:103BC4006F8F124D124BA8681860FFF751FEA8685A
:103BD400234632460F49183000F092F9AA68044689
:103BE400137C384643F004031374FFF7E7FDAB6816
:103BF400D3E90A23B3F1004F08BF002AD8D102F059
:103C040022FC201A20EAE070D3E700BFCC0B00208E
:103C1400F00B0020EF620000014B9868704700BF72
:103C2400CC0B00202DE9F84304468789EFF3118675
:103C3400202383F31288BFF36F8F037C190705D504
:103C440086F31188BFF36F8FBDE8F883D90943F079
:103C5400080272D10274A36813B1204602F0E1FA9B
:103C640004F1180002F0BAFBA56D04F15808A84548
:103C740011D04FF0000975B1284602F0D2FA05F1CF
:103C8400180002F0ABFB2846C5F8AC90FFF7B0FD76
:103C9400A56DA845EFD1DFF8C480D8F808309C4260
:103CA40053D1EFF30589B9F1000918BF4FF00109A9
:103CB400D8F818502A4A954200D00DB9D8F80C50BB
:103CC400AB4202D0284600F07FF82046C8F81450D2
:103CD40001F0D6F8204600F0C7F8B9F1000F02D081
:103CE4002048FFF75DFDD8F808309C4230D1EFF34F
:103CF40005836BBBA289D20711D586F31188BFF364
:103D04006F8F83F31188BFF36F8F0423184602DF8C
:103D1400EFF31186202383F31288BFF36F8F3046AD
:103D2400FFF74CFDFB078FD5002383F31188BFF306
:103D34006F8F0423184602DF86E703F07F0343F006
:103D44000803037402F065FA85E74FF00009AFE752
:103D540086F31188BFF36F8FE4E700BFCC0B00201C
:103D6400E40B002078040020027C034612F01F02BA
:103D740010D10A4988420DD00949086868B1D98927
:103D84007F2909D893F90E20064B1B689A42B8BFC5
:103D94000020704700207047104670471803002029
:103DA400E0000020F40B00200122044BC01A044B55
:103DB400C0105843034B1A54704700BF2805002015
:103DC400ABAAAAAA390C002070B50C4B0C4D1E7C72
:103DD400FFF7CAFF182303FB06550446284602F0E2
:103DE400FDFA0022074B9A553CB1621E2846BDE8F5
:103DF40070400549D31700F083B870BDCC0B002088
:103E040028050020390C0020AD3D000038B5EFF343
:103E14001185202383F31288BFF36F8F0F4B104A51
:103E24009C681068A04206D1FFF7CEFF85F3118885
:103E3400BFF36F8F38BD00211B7C1160094AD35C2E
:103E4400002BF3D02046FFF78FFF0028EED0237C11
:103E5400DB0601D1FFF758FD2046E5E7CC0B002037
:103E6400F00B0020390C0020EFF31181202383F3A1
:103E74001288BFF36F8F0A4A136A834207D11B6FFC
:103E8400136281F31188BFF36F8F70471346002BC1
:103E9400F7D01A6F8242F9D1026F1A67F1E700BFB7
:103EA400CC0B0020024B1868984208BF00207047D2
:103EB400E4000020034B1B680BB9FEF71BBD002078
:103EC400704700BFF80B002030B570B10B4B5B6836
:103ED40098420AD0036843B1D3E90421D0E90445E8
:103EE400121941EB0501C3E90421D0E90032136042
:103EF4005A600023C0E9003330BD00BFE400002055
:103F0400B3F1FF3F08BFB2F1FF3F2DE9F84F04467C
:103F1400994615461F467AD08160EFF31188202315
:103F240083F31288BFF36F8FB9F1000FDFF8E4A0B9
:103F340020DBFFF7BFFFDAE90027013549F100096B
:103F44002D1849EBE07306464FF00109C4E9045308
:103F5400AD1843EB0707FFF7A5FF0346DFF8B8E00A
:103F6400DEF804A0EBB9C4E900EACAF80040CEF8D0
:103F7400044028E06FF00103DAE900125B1A4FF005
:103F8400FF3161EB02025B1B62EB0902012B72F150
:103F94000001BCBF012300224FF00009C0E9043234
:103FA400D9E7D3E9041CD4E904208A4270EB0C0B52
:103FB40024DA891A5A686CEB0000C3E90410C4E9D6
:103FC400003214605C60FFF76DFF84420ED1134B26
:103FD4001B685BB9B9F1000F02D1FFF76BFF06460E
:103FE400304602F0E4F90021FEF756FC88F311880C
:103FF400BFF36F8F28463946BDE8F88F521A60EB3D
:104004000C005345C4E90420ADD01B68AAE7002581
:104014002F46EFE740050020E4000020F80B0020C5
:104024002DE9F047DFF8A8900246C9F800000D46D4
:10403400FFF738FF00260027DFF898804FEAE27E7A
:10404400D8E9001350B1D0E9044CA2427EEB0C0A2B
:104054001ADAA41A6CEB0E06C0E9044600245218BE
:1040640043EB0E032046C8E90023C9F8004002F0E0
:104074009EF92146FEF710FC85F31188BFF36F8F7C
:10408400BDE8F047FFF7C2BE611843EBE473C0E933
:104094000467C8E90013FFF717FF01224FF000433C
:1040A400C0E9042385F31188BFF36F8F83689847B1
:1040B400EFF31185202383F31288BFF36F8FD9F8B0
:1040C4000020121BC9F80020FFF7ECFEB6E700BF82
:1040D400F80B00204005002010B5EFF311842023D5
:1040E40083F31288BFF36F8FFFF7E4FE0346054A9C
:1040F400D2E90001181841EBE37184F31188BFF38E
:104104006F8F10BD40050020F8B50446EFF311870A
:10411400202383F31288BFF36F8FD0E90423B3F114
:10412400004F08BF012A04D087F31188BFF36F8FB3
:10413400F8BDD0E90A566A1C46F10003022A73F15D
:10414400000334D3013D46F1FF36002EBCBF0025E9
:104154002E4602F07CF9013041F10001401946EB92
:104164000101012871F1000148DB02F070F96FF0E0
:104174000203013041F10001401946EB0101834281
:104184006FF000438B413EDB02F061F9013041F1F5
:1041940000016FF00102401946EB01034FF0FF31BB
:1041A400121A61EB030320461949FFF7A9FE236B9A
:1041B40001332363236A63B187F31188BFF36F8FDD
:1041C40020469847EFF31187202383F31288BFF327
:1041D4006F8F54F8185FA542A6D0002DA4D02846AE
:1041E40002F05EF80023C5F8AC3087F31188BFF302
:1041F4006F8F2846BDE8F84002F043B86FF0010223
:104204004FF0FF33CFE700224FF00043CBE700BF6E
:104214000D4100002DE9F04105461C4690461F461D
:10422400EFF31186202383F31288BFF36F8FB4F169
:10423400FF3F08BFB2F1FF3F05D186F31188BFF3FA
:104244006F8FBDE8F081002C09DB012A74F10003B3
:10425400BCBF0122002412F1FF3844F1FF37284685
:1042640002F0BCF8DDE906010023C5E90A012B636D
:1042740042463B4628460249FFF742FEDDE700BFBF
:104284000D41000070B50546EFF31184202686F336
:104294001288BFF36F8F02F0A1F820B184F3118864
:1042A400BFF36F8F70BD6B6A63B184F31188BFF382
:1042B4006F8F28466B6A9847EFF3118486F3128850
:1042C400BFF36F8F05F1180002F01FF80028E5D046
:1042D40001F0D7FF2146BDE87040014802F02BB839
:1042E4003A0C002010B50A4C23681BB1012323604B
:1042F400002010BD00F0F4F80028F7D0013807289A
:1043040003D8044B53F8200010BD034810BD00BF70
:10431400FC0B0020C06A0000FE8FFFFFBFF34F8F2D
:104324000549064BCA6802F4E0621343CB60BFF34D
:104334004F8F00BFFDE700BF00ED00E00400FA0569
:1043440030B44FF0FE3200250B4B0C4C0C4949683D
:10435400C3F80024C3F80424C3F80824C3F80C24C5
:10436400C3F81024C3F81424C3F81824C3F81C2475
:10437400C4F8005530BC08470050845000408450B5
:10438400EC000020024BD0E90012C3E90012704790
:10439400EC00002010B5044650B1636813F0685F68
:1043A40005D0064A934202D000236260236010BD08
:1043B400034B04485B689847EFE700BF2C5F5CA998
:1043C400EC000020E06A0000C8B143680D4A934243
:1043D40013D013F0685F0ED0012350E8002F194664
:1043E40040E8001C9CF0000FF7D1012AF5D0BFF380
:1043F4005F8F0020704704487047044870476FF48B
:10440400E04070472C5F5CA9E98FFFFFEA8FFFFF54
:10441400034680B1426809498A420AD012F0685FB3
:1044240005D0BFF35F8F002210461A60704704481E
:104434007047044870476FF4E04070472C5F5CA9F4
:10444400E98FFFFFEA8FFFFF10B5044620B1002378
:10445400034A2360626010BD0248FFF771FFF6E76C
:104464003A00003A086B000070B5184CD0F804C04C
:104474000568C4F804C0D0F808C0C068C4F808C00F
:10448400E06025600868124B124A1860486858605A
:1044940088689860C8680969D8601961536813F01E
:1044A400685F05D000230C49104651601360A8478B
:1044B4000A48436813F0685F07D00022064923685E
:1044C400C0E90021BDE87040184770BD0801002014
:1044D400F4000020280100202C5F5CA920010020AA
:1044E40008B500F013F830B900F014F828B9064AFA
:1044F400C2F80C0A08BD032008BD00F009F800F05A
:1045040043F8042008BD00BF0050845000207047C9
:104514000020704710B5154800F05EF800B110BDDA
:10452400134800F059F80028F9D1124C204600F045
:1045340053F80028F3D1104B10481C6000F04CF8DD
:104544000028ECD10E4800F047F80028E7D10D48C8
:1045540000F042F801460028E1D100F039F80446A1
:1045640008B900F04DF8204610BD00BF68010020D6
:104574006401002060010020580100205C0100203B
:10458400540100205001002008B50B4800F02EF81B
:104594000A4800F02BF80A4800F028F8094800F00F
:1045A40025F8094800F022F8084800F01FF8BDE893
:1045B400084000F00FB800BF68010020640100202B
:1045C400600100205C010020540100205001002003
:1045D40000207047704700BF08B5034B02681B6892
:1045E40010689847002008BD0801002008B5034B57
:1045F40002685B6810689847002008BD0801002025
:1046040070B5094C094D2069AB68984718B1084B3F
:1046140008485B6898470021074AEB6811602069E5
:10462400BDE87040184700BFF400002008010020D6
:10463400EC0000202C6B0000180C00202DE9F04F3A
:1046440043688BB080469246009383789C0740F180
:10465400F98000250878002800F0F68025280AD083
:104664004B1C019301354146009B98470028C0F23A
:10467400E3800199EEE74E788B1C252E0193F1D04F
:1046840000270A22B9463C461F2C22D8A6F1200353
:10469400102B20D8DFE803F0141F1F1A1F1F1F0B55
:1046A4001F1F1F121F171F1F090044F00104019B45
:1046B40013F8016B0193002EE6D13AE044F00204B2
:1046C40044F00404F3E744F00804F0E744F0100471
:1046D400EDE77F2C24D8A6F13003092B08D8600617
:1046E4004EBF02FB073744F0200402FB0939DEE722
:1046F4002A2E0DD161065AF8043B53D4002BA7BFD0
:1047040044F020049946C3F1000944F02804CEE79C
:104714002E2E05D1630600F1978044F04004C6E7CD
:104724006C2E2ED028D8682E32D06A2E37D04C2E3C
:1047340035D0002F46F02003B8BF24F04004A3F185
:104744006502BCBF0027A4B2022A01D9612B2BD178
:104754000AF1070A07279D4E2AF0070A0AF1080AF8
:10476400210760D506EB070B34465C455DD1AE1BD3
:10477400A9EB0709A21959E1742E98D07A2E96D084
:10478400D7E7260648BF44F4007444F080048EE75B
:10479400E00548BF44F4007444F4807487E744F4AB
:1047A400207484E71F4682E7A6F16302122A00F20E
:1047B400D880DFE812F013004D00D600D600D600F2
:1047C400D6004D00D600D600D600D600D600E800AC
:1047D400D100D600D6001A00D600A0005AF8043B37
:1047E400012704AE8DF81030BAE75AF8046B784B01
:1047F400002E08BF1E4614F0400F304614BF394641
:104804004FF0FF3101F073FE0746A9E7414620202F
:10481400009B984700280FDB013CA742F6D34D4488
:10482400A1462D1B9EE74C46F7E7414614F8010BC1
:10483400009B9847002898DA98F8023043F0040364
:1048440088F802304FF0FF3528460BB0BDE8F08FF2
:10485400220630D5A3052AD50AF1070A2AF0070350
:104864009A4659685AF8080B24F0100B00291FFACD
:104874008BFB2FDA40424BF4806B61EB410104ACBB
:104884000A23224601F03FFE1BF0400FA0EB040276
:1048940000F08E802BF001049742A4B240F38F8085
:1048A400002E40F08E802BF01104A4B21DE05AF8C3
:1048B400040BC117D8E7E0055AF8041B01D40846D5
:1048C400F7E7A20547BF48B241F3C01108B241F36C
:1048D400C031C9E750EA0103D1D16306CFD5002F17
:1048E400CDD124F011043A46A4B23B4640F206412D
:1048F4000C4262D124E024F010040A23A4B214F080
:10490400800243D014F4007117BF0AF1070A5AF861
:10491400040B2AF0070292461CBF51685AF8080B90
:1049240050EA01023ED124F0160B62061FFA8BFBFB
:104934003CD5002F3AD124F017043A463B46A4B2A2
:1049440021075AD4E10705D5994572DDA9EB030384
:104954009F184B469B464AE044F0100410237826E7
:10496400CDE7782B04D1C6F1780343F01003C6E7F2
:1049740041462520009B98470028FFF65DAF02358D
:104984004146304670E608230026B8E714F48071E7
:104994005AF8040BC4D014F400711ABFC0B2114603
:1049A40080B2BDE724F006041FFA84FB04AC68E778
:1049B40013465C46E10699D52EB90133C0E7134688
:1049C400F8E73B46F6E70233BAE700BF9F70000002
:1049D40098700000CDE9023241462020009B9847A0
:1049E4000028FFF629AF0BF1010BDDE90232D945AE
:1049F400F0DCEB1A03EB0B055B46E10627D54146D9
:104A04003020CDE90232009B98470028FFF614AF0E
:104A1400DDE902327EB901352F44791B8A4229DB54
:104A2400144604AE94BB2A44A9EB030915469144E9
:104A340040E017468EE7023541463046CDE9023262
:104A4400009B98470028DDE90232E5DAF4E640F2FB
:104A540006410C42E0D014F0020F05F10105414675
:104A640014BF2B20202014F4806FCDE9023218BF2C
:104A74002D20E5E7CDE902324146009B3020013587
:104A840098470028DDE90232C7DAD5E6013C414601
:104A9400CDE90232305D009B98470028DDE90232FF
:104AA400C0DAC9E641462020009B0135984700281A
:104AB400FFF6C2AEA9EB0503002BF3DCD9E500BF7A
:104AC4007047034601211B790068994083685B693C
:104AD4001847836800EBC101B3F5004F2CBF51F8B0
:104AE400220031F81200704700EBC1018068B0F574
:104AF400004F2CBF41F8223021F8123070470122B8
:104B040008B5FFF7E6FFD04008BD836800EBC1019C
:104B1400B3F5004F08D34B681AB143F001034B605F
:104B2400704723F00103FAE74B881AB143F00103FD
:104B34004B80704723F00103FAE753000122FFF78B
:104B4400D3BF08B58368B3F5004F06D3FFF7D7FF8B
:104B540001288CBF0020012008BD0020FCE78368E9
:104B6400B3F5004F28BF0139B1FA81F0C0F11F003D
:104B740070472DE9F04104460D46FFF7E2FFB8BB4C
:104B840029462046FFF7BBFF01462046FFF7E7FF13
:104B940004EB80010E6996B90122E3688240134355
:104BA400E36002220D612B4629462046FFF79CFF55
:104BB400032229462046BDE8F041FFF795BF0222B3
:104BC40031462046FFF785FF07460346294620461F
:104BD400FFF78AFF0322334629462046FFF784FF66
:104BE40039462B462046FFF77FFF02223146E1E794
:104BF400BDE8F081B2F5802F34BF042308232DE9EA
:104C0400F0410026D21A8C18CD1D25F0070524F09A
:104C14000704641BE408056021462846AC60EE6086
:104C2400FFF79DFF820002F11B07FF0831460432A3
:104C340005F1100001F040FC3A4631462846FFF7E2
:104C44007CFF3346324631462846FFF74DFFA4EB3E
:104C54000708284631460122FFF757FF42463946E6
:104C6400FFF76BFF3B46324639462846FFF73CFFC9
:104C740021462846FFF761FF43463246214628462F
:104C8400FFF732FF214628460122FFF73EFF39464F
:104C9400BDE8F041FFF76DBF002070470FB407B5C2
:104CA40004A951F8040B0191FBF772FC03B05DF801
:104CB40004EB04B07047038B13F0070306D10368B9
:104CC400002B18BF032008BF00207047022B05D11A
:104CD400408BB0FA80F0400980007047012B04D16A
:104CE4000368002B18BF0520EDE70020704710B5BE
:104CF4000C4600B111B96FF0150010BD081D00F08D
:104D040087F80028F9D1A368032BF6D9F3E72DE936
:104D1400F0410D4607461946281D90461E4600F0F0
:104D240088F8044638B13346424629463846A446F4
:104D3400BDE8F0416047BDE8F08110B4EFF31182A3
:104D4400202484F31288BFF36F8F416110BC0121CA
:104D5400FBF750BC38B50C46054658B151B10B6849
:104D640043B14B6833B11C22002101F0A5FB0020A4
:104D74002C6138BD6FF01500FBE7F8B504460E460C
:104D8400FFF7B5FF051E3BDBEFF31182202383F30E
:104D94001288BFF36F8F4FF6FF71638B278B8B42A3
:104DA40007F007072ED0062F2FD8DFE807F0182EBC
:104DB400082E180418006FF08505002303E0013362
:104DC40063830225012382F31188BFF36F8FBBB184
:104DD40000233A4631462046FFF799FF10E00023AE
:104DE4003360636823B9C4E9006627B13D46E4E74C
:104DF4001E606660F9E702212046FBF7FBFB3D4697
:104E04002846F8BD6FF00A05D7E76FF00405D4E72C
:104E1400034658B1426802F00302012A03D0032A70
:104E240004D1026812B10020986070476FF0150039
:104E340070474268034602F00302032A4FF000025F
:104E4400816014BF104600685A6070477047FEE7DF
:104E540001F032BB01F00ABB01460068FBF7F8BD64
:104E640008B5FBF725FEBDE80840FCF757B900215B
:104E74000120FBF7EDBDD0F8943083F30B88704725
:104E84006FF08500704761B662B680F31188BFF396
:104E94006F8F704708B572B6002383F31188BFF390
:104EA4006F8F00F053F850B1BFF34F8F30BF00BF86
:104EB40000BF00BF00BF00BF00BF00BF00BF62B69D
:104EC400BFF36F8F08BD10B5044672B6002383F399
:104ED4001188BFF36F8F00F039F850B1BFF34F8FD3
:104EE40020BF00BF00BF00BF00BF00BF00BF00BFA6
:104EF40000BF84F31188BFF36F8F62B610BD40E822
:104F040000F313F4803FD8B208BF6FF01500704768
:104F140030B50C684B6885B00A894D890094013B13
:104F240024F01F04234402F01F0242EA451223F036
:104F34001F0369468DF808200393FCF7A3F905B015
:104F440030BD08B5FCF77EFB002008BDFCF7A0BB14
:104F54004FF05023012270B50C460546C3F81426C1
:104F64000020FCF729FC28462346BDE870400021B8
:104F740018472DE9F041064601200D46FCF71CFCBC
:104F84004FF47F03D3F830214FF05024072AD3F88D
:104F940034311BD1023B022B18D94FF001080027F2
:104FA4000520C4F81886C4F8147600F0EAFC4046DC
:104FB400C4F8148600F0E5FCC4F81476C4F8187636
:104FC40030462B46BDE8F041002118470023C4F8C1
:104FD4001436F5E70C220369C9B202FB0133986F5A
:104FE40000F00700704770B50346C9B20069EFF3DB
:104FF4001186202484F31288BFF36F8F0C2505FBE0
:105004000104A46F14F0C00401D0A24210D1012203
:1050140005FB01008267002086F31188BFF36F8FC0
:1050240028B95B6803EBC1035B689847002070BD37
:105034004FF0FF30F0E78022FFF7D5BFF8B5069FA9
:1050440005460469C9B2EFF3118C202080F312885D
:10505400BFF36F8F0C2606FB0146B06F00F0070EFE
:10506400BEF1010F11D1B76700268CF31188BFF38D
:105074006F8F46B90C2000FB0144C4E91C236B6804
:1050840053F8313098473046F8BD00F0C0008742ED
:105094000CBF6FF077064FF0FF36E6E713B58024B8
:1050A4000094FFF7CBFF02B010BD10B41C240069BC
:1050B400CBB204FB0300002110BC1047032000F016
:1050C400B4BC022000F0B1BC032000F0BDBC02203F
:1050D40000F0BABC1046FEF7A3BA00F03EBDFDF7DF
:1050E40047BE436800205B681B690B6070474368D8
:1050F40002EA01005B6821EA020198600020D9609D
:105104007047436800205B689960704743680020DB
:105114005B68D960704743685B685A6821EA02009B
:10512400114098600020D960704730B50369586811
:1051340000B30024884219D108688CB99C6858606F
:10514400A14200D19860002008602AB15A680A6020
:105154009A68596002B9996000200FE02846E9E78F
:1051640020609868814208BF9C60ECE705680446AB
:10517400002DF3D1002AE9D16FF0150030BDFDF701
:1051840035BF30B543681360057A446804EBC50441
:10519400A34202D36FF0010030BD5C7908338C4226
:1051A400F1D10020F8E743681B68D3F88004C3F802
:1051B4008004704703691A6813680BB15268184772
:1051C400704730B587B004460D461422002101A86B
:1051D40001F072F9042320460DEB03018DF804302D
:1051E4000295FFF7E7FF07B030BD70B586B00669DA
:1051F40004460D461422002101A801F05DF90223A2
:105204008DF80430336820461B6C01A9029333687F
:105214009B6CCDE90335FFF7CDFF06B070BD30B50B
:1052240003691C6843681B68EFF31185202080F331
:105234001288BFF36F8F206CA8B1E06CB0B9002066
:10524400C4E91312042AC3F83415C3F8382582BFFD
:10525400D3F8002242F02002C3F8002285F311881B
:10526400BFF36F8F30BD6FF00C00F7E76FF00F00E6
:10527400F4E70369186820B101601B6800205A60D4
:1052840070476FF08500704710B542680069136875
:10529400006860B9D3F8104164B1926A12780A7058
:1052A400C3F81001D3F8102101221A6010BD6FF069
:1052B4008500FBE74FF0FF30F8E738B54268036933
:1052C40015681A68D2F8A01051B1002482F8B840C9
:1052D40018686830FEF7D6FF01232046EB6038BD1E
:1052E4006FF00D00FBE7406BFFF7E7BF10B50369F4
:1052F4001968D1F8A420D1F8B040121B13D0082AA1
:1053040028BF08224068C1F8AC201968C069C1F8F8
:10531400A8001B68D3F8A010D3F8B030194401F0EA
:10532400A5F8012010BD1046FCE710B5044612EAAA
:10533400030005D0605818B100230120635063585E
:1053440010BD02680346D2F8580140B95B68DB0718
:1053540006D4D2F82001003818BF0120704701207C
:10536400704713B501AA0446FFF70BFF002805DBBD
:10537400019B226819791868FCF7B6FD02B010BDCC
:1053840010B402694468936823EA0101916011F042
:10539400030108D143681B68C3F80015E0680121C4
:1053A40010BCFFF7DEBF10BC704710B502699368EC
:1053B4001943916013F0030107D14368D8681C684E
:1053C400FFF7CFFF0823C4F8003510BD10B54368BC
:1053D4001C68C4F84415C4F848250022C4F82021E8
:1053E400D4F82011C4F858215B68D4F858219B07DD
:1053F40002D50121FFF7D9FF0123A36010BD10B529
:1054040004464068FFF79DFF0B6848B9012283F802
:10541400B8204FF4800263681B68C3F8042310BDEE
:10542400002283F8B8204FF0FF320B682046C3F8FF
:10543400B4200B68D3E92A12FFF7C8FFE9E7F8B5EF
:10544400036904461D6843680F461E6805F1080099
:10545400FEF718FFEFF31182202383F31288BFF3C2
:105464006F8FEB6C53B1D6F8003223F02003C6F8EB
:1054740000320023C6F84C31D6F84C31002385F8AD
:10548400633017B1012385F8643023691968012357
:1054940081F86230616809684B6082F31188BFF358
:1054A4006F8FF8BD08B503691B681B6C23B101211C
:1054B400FFF7C5FF002008BD6FF00D00FBE72DE9E5
:1054C400F84317460022036988461C68436805466A
:1054D4001E6894F86130D6F83C1584F86120A26CFB
:1054E4009B1A1944002901DDFFF77FFE2846216C31
:1054F400FFF767FEE36C2364236D63640023C4E950
:105504001333A36494F86330F3B1EFF311892023C8
:1055140083F31288BFF36F8F236CBBB1D6F80032CC
:1055240023F02003C6F80032B8F1000F08D13FB9C8
:1055340001233360C6F84471D6F8443184F86270AC
:1055440089F31188BFF36F8FBDE8F883D4E916326D
:10555400134303D004F10800FEF794FE2B691A6884
:10556400012382F862306A6812685360E8E710B574
:10557400446B636822691B681268D3F8081139B157
:105584000021C3F80811D3F8083182F8601010BD67
:1055940092F860300133DBB2042B82F86030F6D12C
:1055A400FEF770FE23691A68D36CB3FA83F35B09C0
:1055B40082F86230012263681B685A60E7E72DE9CC
:1055C400F04F43688DB01D680369D5F804731E68F5
:1055D400039304463B464FF400324FF4A27128462D
:1055E400FFF7A3FE814608B196F862903B4610226D
:1055F4004FF488712846FFF798FE3B4604224FF487
:10560400847180462846FFF790FE3B464FF4002203
:105614004FF4A67104902846FFF787FE3B46824666
:105624004FF400724FF492712846FFF77EFE20B3C8
:10563400636814221B68002107A8D3F880B405937B
:1056440000F03AFF06221BF0010F059B8DF81C2089
:1056540042D11BF0020F41D11BF0040F40D10BF0DB
:10566400080220468DF8202007A9C3F880B4FFF76C
:10567400A1FD00212046FFF7E2FE049B93B1002127
:1056840023696268D2F800B01A6882F8601018685A
:10569400D0E91623CDE900230830FEF7BBFD04232F
:1056A400CBF80833B8F1000F02D1BAF1000F3BD0A8
:1056B400F36CBBB1B8F1000F03D1C5F81081D5F874
:1056C40010314A4651462046FFF7F9FEBAF1000F61
:1056D4002AD04FF0000808E00122C2E70222C0E706
:1056E4000422BEE7BAF1000F16D01422002107A845
:1056F40000F0E2FE03238DF81C30236920461A686B
:1057040007A9D2E9163213431FBF042263681B683A
:10571400C3F80423FFF74EFDB8F1000F04D00022B4
:1057240020461146FFF7CBFEB9F1000F22D04FF00F
:10573400000986F862902369D4F804A0D3F80080A5
:10574400D8F8401021B12046FFF73BFDC8F840903F
:1057540098F86430002B00F08680002388F86430C9
:105764000022636820461B68C3F80821D3F8083177
:10577400FCF78CFCF80519D5D5F82031B3B1636872
:105784001B68EFF31182202181F31288BFF36F8F1E
:10579400D3F8201131B10021C3F82011D3F820111E
:1057A4000121D96082F31188BFF36F8F79023DD54F
:1057B400D5F85831002B39D063682569D3F80080B7
:1057C400EFF31189202282F31288BFF36F8F2A68C6
:1057D4005B68D2F8B4100029ACBFD2F8B470D8F822
:1057E4004C759A0707D54FF4800301212046C8F869
:1057F4000833FFF7C5FD89F31188BFF36F8F28685D
:10580400D0F8A03093B190F8B820002A4FD0EFF32D
:105814001187202383F31288BFF36F8F2946204614
:10582400FFF7EDFD87F31188BFF36F8F039B0833F8
:10583400D3E8EF2F22F00401C3E8E01F0028F7D1DA
:10584400530770D52046716CFFF7CFFC2046316CAE
:10585400FFF7B7FC00232046C6E910330DB0BDE8BE
:10586400F04FFCF713BCDAF804309B077FF578AFF0
:1058740062681368126AC3F834250522C3F8382510
:105884000122DA62D3F81021002AFBD00021C3F8E8
:105894001011D3F81021D3F84C212AB1C3F84C11BC
:1058A400D3F84C21D3F83C2588F8612058E7D0F888
:1058B400A820934210D0D0F8AC20D0F8B030BA422F
:1058C4003B442ED1C0F8B0302046FFF70FFD00282E
:1058D4009DD12868D0F8B0706830FEF7D3FC14224C
:1058E400002107A800F0E8FD2B682046D3F8A0307B
:1058F40007A9CDE908372B68D3F8A4309F421CBF11
:1059040001238DF81C304FF48003C8F808330023BA
:105914002A68C2F8A0302A68C2F8A430FFF74AFC0B
:1059240084E71F46D8E70DB0BDE8F08F002200F1F0
:1059340050039B009BB203F1502303F580331A609C
:105944001B68704708B5FCF745FE08BDFEF7CABCE6
:1059540008B5FAF757FFFBF73DF8BDE80840FEF736
:10596400C1BC4FF47F03D3F83021D3F834010228AB
:1059740008BF072A0CBF01200020704703460020FF
:10598400184700F08DBB024610B5116891B1B1FA09
:1059940081F3C3F11F000123834021EA0303D2E80A
:1059A400EF4F8C4204D1C2E8EC3FBCF1000FF6D1BA
:1059B400EBD110BD6FF00B00FBE710B50368CB40D3
:1059C400DB0710D401238B40026843EA0201D0E8CC
:1059D400EF4F944204D1C0E8EC1FBCF1000FF6D1A4
:1059E400F2D1002010BD6FF01500FBE770B5D0F8C0
:1059F40080300646002B0C46154613DBD1F8803068
:105A0400002B0FDB00210846FDF75CF848B92B7822
:105A140043F00043C6F880302B7843F00043C4F8C9
:105A2400803070BD6FF01500FBE703280BD8DFE86A
:105A340000F002040608FDF79BB9FDF7C7B8FDF7AF
:105A44004FB9FDF705B9704703280BD8DFE800F01C
:105A54000402060800F02EB800F07FB800F062B827
:105A640000F044B8704708B5FDF7CCF8FDF7C4F969
:105A7400FDF754F9BDE80840FDF708B938B54FF013
:105A840050240123C4F808336360002342F21075E4
:105A9400C4F80031D4F80031D4F80C24D4F80C3410
:105AA400D20306D5DB0704D50120FFF76AFF013DC9
:105AB400F2D138BDFFF7E2BF38B54FF050244FF4B0
:105AC4008073C4F808330123E361002342F21075A4
:105AD400C4F82031D4F82031D4F85434DB0304D58D
