:10000000784300205926000001C700004526000063
:100010004526000045260000452600004526000034
:100020000000000000000000000000003127000078
:100030004526000000000000F928000045260000C9
:100040007929000079290000792900007929000028
:100050007929000079290000792900007929000018
:100060007929000079290000792900007929000008
:1000700079290000792900007929000079290000F8
:1000800079290000792900007929000079290000E8
:1000900079290000792900007929000079290000D8
:1000A00079290000792900007929000079290000C8
:1000B00079290000792900007929000079290000B8
:1000C00079290000792900007929000079290000A8
:1000D0007929000079290000792900007929000098
:1000E0007929000079290000792900007929000088
:1000F0007929000079290000792900007929000078
:100100007929000079290000792900007929000067
:100110007929000079290000792900007929000057
:100120007929000079290000792900007929000047
:100130007929000079290000792900007929000037
:100140007929000079290000792900007929000027
:040150007929000009
:1001540010F8012B11F8013B012A28BF9A42F7D06D
:10016400D01A7047034611F8012B03F8012B002A1B
:10017400F9D17047034613F8012B002AFBD1181A52
:100184000138704730B589B005F068FF034640B1C7
:100194001B4A01211B480CF0E3F94FF0FF3009B072
:1001A40030BD03F0B5FF034608B1174AF1E7174D18
:1001B4000321174A134803AC0CF0C9F90FCD0FC43F
:1001C4002B68012523600222124B1349009503A8D2
:1001D40004F0A8FB044610B1104A0346D9E70321F2
:1001E4000F4A08480CF0B3F9013404F0010100206F
:1001F40005F054FF00214FF400400EF0FDFAF3E740
:10020400B4F60000D8F00000CFF6000000F20000C1
:10021400E9F6000078F2000080F2000000F7000028
:1002240026F700002DE9F843884600AF00297DD069
:100234000568012228460BF0BAF90146044628460F
:100244000BF06FF910EA020616D1E94688B06A4647
:10025400384BCDE90538032342F8103F4FF4C2511F
:100264003346354801F080FBCD4686F31188BFF351
:100274006F8F0423184602DF214628460BF067F9E6
:1002840026183146002228460BF04BF9361AB442A0
:1002940018D06E4688B06946284BCDE9053803234B
:1002A40041F8103F244813460A464FF4C25101F066
:1002B4005BFB0023B54683F31188BFF36F8F0423E0
:1002C400184602DF0022214628460BF046F9214653
:1002D4000BF03DF926180122314628460BF021F98E
:1002E400C20708D4314628460BF0A3F9324621460A
:1002F40028460BF015FA0022214628460BF011F986
:10030400261A0122314628460BF00BF9C30709D4FB
:10031400314628460BF08DF92246314628460BF02B
:10032400FFF93446214628460BF018FABD46BDE8CD
:10033400F88300BFB5F7000080F100008CF70000DF
:100344002DE9F04F91B0009302F004030293C2F33D
:10035400C2030133840705460E46DDF868A0039204
:10036400059340F09C81041D002849D101F0070643
:10037400341DC6F10806009B00274FF004085A1EDE
:100384004FF0FF33B9460193BB46434604970DB182
:10039400009921600598002800F3D6808F480099C1
:1003A400814203D38E488142C0F0CE800399601B02
:1003B40011F0020C40F0D680B9F10F0F00F2CF809B
:1003C400002D00F0D68009F140010DEB010E0199DA
:1003D400C0F387000EF8200C0EF8101CBCF1000FBF
:1003E40000F0C38060F07F000EF8200C013709F1A3
:1003F4000109C5F108014FF6DA7E043406918CE058
:100404000729B8D86FF01B0011B0BDE8F08F7A2827
:100414005BD84B280FD8472857D829282ED8252809
:1004240050D052D8202818BF23280CBF4FF0010BFE
:100434004FF0000B71E04C382E2846D8DFE800F06E
:100444006D4545454545454545454545484545452D
:100454004545454545564548485656566D486A45AE
:100464006D4518481845457F7C48454548457C00FE
:1004740000204FF0000B4FF0040835E001212A382A
:10048400C0B201FA00F010EA0E0F46D110F0625C1F
:100494002CD110EA010B40D06046013C4444B4FB2B
:1004A400F8F408FB04F425B1A3EB050CA444B4450B
:1004B400A8D8002870D00599013905915AF8041B71
:1004C400009164E70199013901914FF0000B24E098
:1004D40012F8010C6C2834D1002012F8023C834637
:1004E4006C2BC8D14FF008084346D6E70AF1070A37
:1004F4002AF0070A073424F00704FAE802BC35B1ED
:1005040006982044B0423FF67DAFC4E900BC4FF0EA
:10051400000B08344FF00808434612F8010F002876
:1005240053D0BBF1000F7FF472AF2528F5D14FF003
:10053400010B019B013301934FF00408ECE758468B
:1005440097E700208346A8E7039988077FF551AF12
:100554004FF0010C601BB0F5007FFFF42DAF6FF07E
:10056400150051E74FF0000CF5E7049801300490B2
:100574003DE7BCF1000F01D0013638E7029802369E
:1005840000287FF434AF0098CDE90632FFF7F2FD7E
:10059400DDE9063206442AE7042B08D10AF10400F7
:1005A40015B1DAF80010216082460434B5E70AF187
:1005B400070323F0070303F1080A1DB1D3E900017F
:1005C400C4E9000108230834A7E7631BB3F5806F6F
:1005D400C5D23DB9A6F10804E01815E780EC000087
:1005E4008C0F0100029A9B0828602B709DF8103034
:1005F400AAB1EB70AF702FB1002208A8C5F1010CAD
:1006040091450ED14FF0000AC5F101030DF1200808
:1006140001930DF1300BD14512D1601BF4E66B70E0
:10062400E8E710F8013B190608D50CEB040EB645B3
:1006340003F07F033FF6E6AE04F8013B0132DFE747
:100644001FB198F90020002A17DB029BD3B11AF8D6
:100654000B2004F8012B0022019B18191044B0420E
:100664003FF6D0AE98F80000009904F8010B20463C
:1006740003920EF02EFA039A14440AF1010A08F1C7
:100684000108C8E798F8002055F822300093029B2F
:10069400009845F82230FFF76DFD421CDCE76FF04F
:1006A4000D00B1E62DE9F04F97B000AF05468A463C
:1006B400C7E90A3249B903784678807800EB8300A9
:1006C4002844564524D8A0EB050AD7F8803095F87D
:1006D400028003F00103D7F88040FB61EB78B8F1A6
:1006E400000F0CBF002404F001047B621BB1D7F897
:1006F40080309A0715D4A4B9FB6A1BB15146284629
:10070400BA6A9847564630465C37BD46BDE8F08F16
:10071400441C2046FFF72EFD013020440AF1010A53
:10072400CFE7D7F88030C3F3C0033B622B78BB61BB
:100734009B003B616B687B61BB6905EB830BFB6AC8
:10074400002B77D15646D844BCB11C461BF8013B5C
:1007540055F82300FFF70EFDD7F88430013043B17C
:10076400D7F88830A34282BFD7F8843023F8140026
:100774000134C3450644E9D1D846D7F880304FF058
:10078400000913F0050F0CBF4FF0020B4FF0010BE3
:100794007B6A9945B7D298F8013008F1020855F8F8
:1007A40023A0AE4B9A45C0F04C81AD4B3A6A9A45B2
:1007B4002CBF002301230AB318F8021C7869FB62DA
:1007C4000BF0CEF8FB6AC8B1EA468AB06A46A54B7C
:1007D40005937B69CDE906314FF40073ADF8203001
:1007E400A14B42F8103F00234FF412519F4801F0EF
:1007F400BBF8D546023E09F10109C9E723B1FB69FB
:1008040033B9A6EB0B06F6E7D7F880309B07F2D591
:100814005046FFF7AFFCD7F884304BB1D7F8883097
:100824009C423FBFD7F88420431C22F81430013483
:100834000644E0E7002C6AD1B8F1000F6DD0D7F878
:10084400803058076CD5C14607F1480042465946E6
:100854000EF03FF900220BEB0803FB600233796AC8
:100864008A425FD3D7F8802095F801B0F9699207DE
:1008740004EB0B0348BF0022DBB258BF4FEA590216
:10088400002940F0A680D7F8801011F0040F14BF9F
:10089400494600216B70A970EA702846BA6A396922
:1008A400FB6A9847061EFFF62EAFBB6949462B70BC
:1008B4007B6ABA6AEB7085F801B0FB6A85F802803E
:1008C40007F148009847B0F10009C0F2B6803B69CF
:1008D4007A6A786A03EB4201FB68414403EB400007
:1008E400BA6AFB6AAAEB010198470028C0F2A78004
:1008F4004FF0000BB14409EB000607F1380AA34599
:1009040069D30021BA6A0846FB6A9847FBE6444665
:100914004FF0000907F1380098E74446C14699E7CB
:10092400A14697E713F8016CDFF830C155F82600AB
:1009340013F8021C6045C0F08A80DFF824C16045CA
:10094400386A2CBF4FF0000B4FF0010B38B17869B7
:10095400C7E901320BF004F8D7E90132F0B9BBF171
:10096400000F1ED0F96949B1611C04F1280007F198
:100974003004041904F8206CCCB20FE0D7F88010CE
:1009840049070BD509F1280007F1300C09F10101E1
:1009940000EB0C0909F8106C5FFA81F9013202339B
:1009A4005DE7D7F880008007DED409F1280C07F151
:1009B400300EF44409F101000CF8101C07F1580141
:1009C40009F1020951FA80F05FFA89F900F8106C14
:1009D400E4E700215EE71BF80A3055F8239087F816
:1009E4003730D7F884302BB3D7F888309B4521D2E1
:1009F400D7F8843033F81B800121BA6AFB6A07F107
:100A04003700984700281ADB0644B8F1000F06D1D6
:100A14004846FFF7AFFB00F101081FFA88F841468A
:100A24004846BA6AFB6A9847002808DB06440BF17B
:100A3400010B64E74FF00008DEE74E4663E6064626
:100A440061E63B6A002B3FF4DFAE0023B4E6386A6C
:100A54000028A6D04FF0000B79E700BF80EC00001F
:100A64008C0F0100E2F700000400000120F10000F7
:100A7400014B1860704700BF2801002080B505466F
:100A84000E461746984607F083FC034601F084FFA0
:100A94000446DFF81890424649F80030394630469B
:100AA400A84754F8090001F00FFF00BF0800000038
:100AB4002DE9F047058B0446280717460CD5012974
:100AC4000CBF45F0100545F02005258387F31188F8
:100AD400BFF36F8FBDE8F087022905F0070540F0EA
:100AE400948020460BF0E3F9052864D801A353F859
:100AF40020F000BFD10A00000F0C0000BB0B000067
:100B04007D0B0000970B0000A90B000001F0070308
:100B14005A1F012A1FD8002221F00701062BD4F8FE
:100B2400008089B2C4E9002209D1434603E0628B04
:100B3400013262831B68002BF9D141F00201204687
:100B440021830BF0B4F94FF0000900286DD041F077
:100B54002001218369E0042B0AD121F0070189B225
:100B6400204621830BF0A3F910B141F02001218329
:100B74004FF00008C14658E02369D3F80090238B56
:100B840023F0070343F006034FF00008238346468F
:100B94004BE02369D3F80490238B23F0070343F03D
:100BA4000403F1E72369D3F80890238B23F00703A8
:100BB40043F00503E8E74FF00008C146E7E70122E8
:100BC40043F00803238387F31188BFF36F8F002A50
:100BD4003BD1B8F1000F4AD1B9F1000F02D0204641
:100BE4002C49C847EFF31187202383F31288BFF3FE
:100BF4006F8F238B23F008039BB22383D9063FD541
:100C040023F01002228303F007056669218B002E6E
:100C1400BFF67CAF00239946D4F8008021F0070189
:100C2400C4E9003341F001012183238B03F0070A57
:100C3400AA4502D0A268002AC1D1B8F1000F02D19E
:100C4400B9F1000FDAD00022BAE7A1680029C0D0B8
:100C54000D680029BDD03346524620464F68B84738
:100C64001DB12B6829461D46F3E72B46FAE741469A
:100C7400334652462046D8F800800BF044F9A8E7E2
:100C84009A067FF523AF23F02002228303F00705A1
:100C940027E700BF37BF000010B530B90B480C4937
:100CA4000BF0F5F96FF0150010BD836833B90748F0
:100CB40008490BF0ECF96FF00400F5E71B6813B179
:100CC400BDE8104018471846EEE700BF38F10000B1
:100CD400A1F80000B2F8000010B530B90B480C4977
:100CE4000BF0D5F96FF0150010BD836833B90748D0
:100CF40008490BF0CCF96FF00400F5E75B6813B119
:100D0400BDE8104018471846EEE700BF38F1000070
:100D1400A1F80000B2F8000070B508B101B132B911
:100D24000B480C490BF0B3F96FF0150070BD8468E3
:100D34000CB1256935B9064807490BF0A8F96FF0DD
:100D44000400F3E741F8040B2369BDE87040184739
:100D540038F10000D0F80000B2F8000010B50446E5
:100D640030B9104810490BF092F96FF0150010BD1E
:100D7400006830B90B480D490BF089F96FF0010098
:100D8400F5E783680BB15B6933B9064808490BF092
:100D94007EF96FF00400EAE7616898470028E6D11D
:100DA4002060E4E738F10000FCF800000DF90000D1
:100DB400B2F8000070B51346044630B91048114922
:100DC4000BF065F96FF0150070BD006830B90C4880
:100DD4000D490BF05CF96FF00100F5E782680AB188
:100DE400956835B9064809490BF051F96FF00400CC
:100DF400EAE70A46AC466168BDE87040604700BF58
:100E040038F10000FCF800000DF90000B2F8000011
:100E1400034A13680BB9526813600020704700BF7F
:100E24002C01002030B50C460E4985B00291D0F853
:100E3400CC110546CDE9003100F1F0014FF0FF334C
:100E4400204605F0F1FF50B9012384F86C30D5F841
:100E5400C83123B1204605B0BDE83040184705B07D
:100E640030BD00BFA1C100002DE9F04F0123814630
:100E74000569466891B005F56777D7E8EF2F002A32
:100E840003D1C7E8E13F0029F7D10CBF1A4600227D
:100E940040F0BE80B368B16A05F5F4781C1F1046B3
:100EA4000BF0CCF984427CD8013A00F0AB80B2FA62
:100EB40082F24FF00044D44072682046073222F098
:100EC4000302C5F83422B16A0BF0B8F9C5F8380248
:100ED400B36A40466343033323F0030302EB430244
:100EE400230103EB4403093323F0030303EBC4039B
:100EF400C5F82C221A440832C5F828227368C5F8AC
:100F04003042C5F82432444BC5E9AB63316800F084
:100F140039FA0446002842D1D9F810B0D9F804A00F
:100F2400D9F800300BF53274CDE90600059320465C
:100F3400DAE90739012B08BFA9F110090DF074FB98
:100F4400DAF82400354905AB009301EB80214B46C8
:100F540020464FF4806206F07DFE2021DAF824302A
:100F64002F4A0DEB01000AF061F8204608A906F0AB
:100F74001BFF2C490BF52E700DF00FFBDAE9050170
:100F840083685C684CB15B46274AA047044630B985
:100F9400DAE9050183681B692BB96FF05704002156
:100FA40029E001327BE70122984704460028F6D164
:100FB4001E4B2846C5F8C8311D4BC5F8CC311D4B16
:100FC4000393D5F838320293D5F83432CDE900834F
:100FD40005F50F73B26AD5F8981300F09BF904462F
:100FE4000028DCD105F1F00005F0C4FF0028C5F8A5
:100FF400A0030ADB022138460BF008F9204611B0A1
:10100400BDE8F08F6FF00B04C9E76FF01504C6E775
:101014006FF07704F2E700BFFBC10000D823002083
:1010240032F90000E1C10000D5C10000B910000090
:1010340017C300003D1000002DE9F04190460C4616
:1010440099B30B788BB3D0F8BC50A5F5DE76143584
:101054004FF0FF324FF0FF33284606F069FB21467C
:1010640030460BF09DF80746A0B9304610490BF006
:1010740097F8064620B92846BDE8F0410BF0C4B8FD
:101084001F22214648300DF07BFD86F86770C6F8B4
:101094006880F0E728460BF0B7F843462246394605
:1010A4003046BDE8F041FFF7BDBEBDE8F08100BFAA
:1010B400E00D010013B5044640B100230122CDE93F
:1010C4000032074BD0E9091205F082FE236F1B683A
:1010D40023B1606F02B0BDE81040184702B010BDE4
:1010E400E00D010013B504460846216901F5677156
:1010F400D1E8AF1F022910D193B1A0B10121CDE9EC
:1011040000311346D0E9091205F062FE074B9842FC
:1011140008BF6FF00B0002B010BD6FF00F00FAE7CC
:101124006FF04C00F7E76FF00100F4E72EF8FFFFD3
:101134002DE9F84389461546066906F56773D3E831
:10114400AF3F022B66D11368EBB11B78DBB1D6F845
:101154009873002F3FD106F5E8784FF0FF324FF037
:10116400FF33404606F0E4FA304629680BF018F8DD
:10117400044660B9304629490BF012F8044638B9E0
:1011840040460BF041F86FF01500BDE8F8830127E5
:1011940005F108032367AB6964646367002384F87B
:1011A4006C3067B140460BF02FF821463046A36EF1
:1011B4002A68FFF737FE0020C9F80040E5E71F2240
:1011C400296804F148000DF0DBFC404684F86770A0
:1011D4000BF01AF8EFE7304610490AF0E1FF044635
:1011E4000028D0D0002705F108030367AB6980F815
:1011F4006C70436740641F22296848300DF0C0FCBE
:1012040022460121304684F8677000F065F8002812
:10121400D1D0B8E76FF00F00B7E700BFE00D0100D1
:1012240010B50C46006900F56773D3E8AF3F022B95
:101234000FD189B10A4900F52E700DF0DAF9204674
:101244000CF005FD7822002120460DF068FC0020FA
:1012540010BD6FF00F00FBE76FF00100F8E700BF6F
:10126400D81200202DE9F04F05460E46904600277F
:10127400D0F8BCA085B0AAF5BA7421463046FEF772
:1012840067FFE0B9134BA4F1480B0293DAF810306E
:101294003246CDE9008329464FF0FF335846AAF57C
:1012A400DE7905F0C1FD88B97823012203FB079399
:1012B40083F86C20DAF80C300BB1584698477B1C45
:1012C400022B4FF0010704F17804D6D105B0BDE834
:1012D400F08F00BF45C300001FB5144690B18AB11A
:1012E400012912D10A4B00F1F0010293D0F8CC315C
:1012F400483201934FF0FF332046009305F094FDEC
:1013040004B010BD6FF01500FAE70020F8E700BF45
:1013140045C300002DE9F04387B00E46DDE90E8198
:101324001446DDE910251F4630B329B3DFF850C059
:1013340000F1F009002D08BF65469EB9CDE90344CC
:1013440000F5DE74204605960CF0F3FE03ABCDE900
:1013540000432A463B464146484605F089FE07B00D
:10136400BDE8F083002241460E9248462A4607B063
:10137400BDE8F04305F0D0BF6FF01500EFE700BF04
:1013840069120000F0B5044687B02B4A04AB0E4640
:1013940092E8030083E80300002C49D0184605F0C6
:1013A4001BFC0546B0B94FF0FF33E16C04F1540760
:1013B400A163CDE9010000933846236D04F138029E
:1013C4000CF006F9A06C0AF0EAFFC4F8BC0020B9DE
:1013D4006FF00B05284607B0F0BDA06C0AF0DFFFE4
:1013E400C4F8C0000028F3D0236CD4F8BC10C4F8AF
:1013F40090300423C4F89430C4F8AC300223E36280
:101404000E4BB4F84820C4F88C10616C236204F1CC
:101414008C03C4F8A070A4F89820C4F8B870C4F879
:10142400A810A4F8B020C4F8A400A6612363D1E7EF
:101434006FF01505CEE700BF14F20000C0F2000003
:101444002DE9F047044607464FF00109DFF84C80C8
:1014540094FAA4F5B5FA85F509FA05F32E0108EB1B
:1014640005156FEA030A24EA03042B7B63B158F8D9
:1014740006301B696BB94644736804222846196810
:1014840007EA0A070AF0F3FF002CE1D13846BDE869
:10149400F087284698470028F6D1ECE7A0F1000031
:1014A40010B5002288B00E490E480DF099FA0022BA
:1014B40000230024CDE906230E234FF44072CDE926
:1014C4000334CDE90144084B08490094084806F068
:1014D400E1FC0849064806F067FC204608B010BD48
:1014E400FD140000A80D002015180000D8270020C6
:1014F400F00800203EF90000014806F00DBA00BFD4
:10150400A40400202DE9F047804621480F460AF044
:1015140092FF0646002833D000252846BDE8F08710
:10152400237B83B12368DB680BB12046984763684B
:1015340083F8069023681B69D3B9636804222046A4
:1015440019680AF094FF013610345445E8D3B8F111
:10155400000FE2D0002DDFD02846FFF771FF0546CB
:10156400002FF7D000214FF4A4700DF045F9F1E7F6
:10157400204698470028E0D009FA06F31D43E2E725
:1015840005464FF00109034CDFF80CA0DDE700BF6E
:1015940008130020A0F10000B0F10000014B53F843
:1015A4002000704700F3000008B5034608462BB13D
:1015B400044A136000F038FC002008BD6FF01500E9
:1015C400FBE700BF5801002010B5044C237813B981
:1015D400034806F0A1F90123237010BD4C2100201B
:1015E400A404002010B5044609480AF024FF3CB1C5
:1015F400084BD3E8EF1F0139C3E8E21F002AF8D1F2
:10160400054807F00DFABDE81040044806F084B917
:101614000013002004130020A80D0020A4040020BF
:101624000022044BD3E8EF0FC3E8E12F0029F9D1DE
:10163400704700BF0013002070B5FFF7F1FF0546A7
:10164400074C084EB44200D370BD63685B792BB17C
:1016540023685B6813B12946204698471034F1E7A4
:10166400A0F10000B0F1000010B5044C044920467C
:101674000AF0B2FA034B1C6010BD00BFB403002093
:10168400ECF20000F812002000230D4A10B513708C
:101694000C4A4FF4004113600B4A0C481360FFF7E7
:1016A40083FFFFF7E1FF0A4B0A4918468B4200D338
:1016B40010BD1A1A5C681211013222711033F5E759
:1016C4004D210020001300200413002037C4000023
:1016D400A0F10000B0F100000146002200230148FF
:1016E4000AF09BBAB403002001480AF032BB00BFE1
:1016F400B4030020024B014618680AF085BB00BF02
:10170400F812002001480AF0BABB00BFB40300205D
:1017140070B5284B1B78002B4AD0FFF7E5FF044631
:10172400002842D1244B254D1B68002B19DD0DF0F8
:101734000FF94FF47A76A0FB063206FB0121D5E9B6
:101744000020DB0B43EA41439B1A40F2E9324FEAA3
:10175400D13161EB0001934271F1000101D3FFF734
:101764006BFFD5E9003213F57A7342F10002C5E943
:101774000032ECB1BDE87040FFF7C4BF6B685B7921
:1017840023B12B68214628461B6898471035B5427B
:10179400F4D32046FFF7AEFF094BD3E8EF1F01391E
:1017A400C3E8E21F002ABDD0F7E7064D064EEEE778
:1017B400002070BD4C21002000130020A00D00204B
:1017C40004130020A0F10000B0F1000070B50D4D2D
:1017D400297861B90120FFF795FE0B4C0B4EB442FA
:1017E40006D3FFF795FF0028FBD101232B7070BDB2
:1017F40063685B791BB1236820469B689847103463
:10180400EDE700BF4D210020A0F10000B0F1000081
:1018140000212DE9F8430846FFF774FE044648B357
:1018240040F267684FF0000901F0B6F81A4B1B4A02
:101834001B58136033B11A4B1B68092B02DD19487E
:1018440006F06AF80025184F44B12046FFF7F8FD6A
:10185400044618B94FF0FF384FF0FF39FFF758FF2F
:10186400064628B9B5B90F4842464B4606F088F8F3
:101874003546E9E74FF0FF384FF0FF39D4E72B68DE
:101884009B691BB100222846114698471035BD427A
:10189400F5D3E8E7054DFAE708000000FC12002044
:1018A40004130020A4040020B0F10000A0F1000003
:1018B40013B518480AF0BFFD174B1B7873B1EFF34B
:1018C4001184202383F31288BFF36F8FFFF720FF67
:1018D40084F31188BFF36F8F02B010BD0F4B1B68E8
:1018E400002BF9D050B9002200230D48CDE9002384
:1018F4004FF40042002307F05BF8EDE70928EBD131
:10190400074807F08DF8074802B0BDE8104006F01C
:1019140003B800BF041300204D210020FC12002056
:10192400A80D0020A404002010B5064B04461B6833
:1019340098472146A06004480AF0ECF9BDE810403D
:10194400FFF7B6BF58010020B4030020044A054B3A
:101954009B1AB1EBD30F34BF52F83100002070470B
:10196400D8F00000A0F100002DE9F04F8FB0C1F3D2
:101974004A2604AF0D469046B8607B600C0D002EDD
:1019840061D04FF000090A234FF0040B07F1140A49
:10199400FE60C7E90799C7F824900093CDF808B012
:1019A400CDF804A007F11C034A464046F968FEF747
:1019B40079FEB0F5006F03461CD36C468AB0D8F8A4
:1019C400041004AB24481A46C3E9050140F2FF7130
:1019D400D9614FF400711984204B42F8103F4FF441
:1019E40012514B461E48FFF7BFFFA5462C37BD4694
:1019F400BDE8F08FC0F30A0604F11700184420F084
:101A0400070080083B60FFF767FE66F35325044632
:101A140080B13B6800F11001C7E908390A23F96174
:101A2400CDE901AB009340460E4AF96807F11C0367
:101A3400FEF738FE66F353252A4620467B68B968CC
:101A44000AF035FDD2E704F1170020F00700800802
:101A5400FFF742FE0446EDE753F9000004000001DD
:101A640040F1000085C400002DE9F04F87B0054621
:101A7400DDE9106BDDE9127A884614469946BFB158
:101A840010213B465A460020CDF800A0CDF814A002
:101A9400FEF756FCB0F5006F01460BD340F2FF731E
:101AA4000221184A184807B0BDE8F04F0AF058BDA3
:101AB4003946384604F0070305F00704E40044EA15
:101AC400831444EA402444EA065406F11700084407
:101AD40020F0070080080391FFF7FEFD054640B1A2
:101AE4003FB13B465A460399CDF800A01030FEF7AB
:101AF40027FC4B4622464146284607B0BDE8F04F36
:101B04000AF0D5BC92F9000040F10000406820B111
:101B1400034BC01A40F3CF0070474FF0FF307047BB
:101B2400D8F000000EB403B503AB53F8042B014600
:101B34000448019301F064F902B05DF804EB03B0CA
:101B4400704700BFC7C50000CA0605D48B064CBF4A
:101B540002490349FFF7E6BF704700BFDF0D0100EC
:101B6400DE0D01002DE9F04F89B098469DF85090A4
:101B7400159B044606930D46DDE916A3189F0592AE
:101B84000493B9F1000F00F0B08007F48073079359
:101B94000AF06BFC07F0020B0246002874D02046C2
:101BA4007749FFF7BFFF0646BBF1000F08D017F0D7
:101BB400440F6BD12A4620467249FFF7B3FF06440F
:101BC40007F0010353B1704B204653F829206F4BA3
:101BD4006F49002A08BF1A46FFF7A4FF07F4807371
:101BE400002B07F0080318BF4FF00008002B79D032
:101BF400684B204653F829206749FFF793FF0546B1
:101C0400059B2BB11A4620466449FFF78BFF054418
:101C1400B8F1000F05D0424620466149FFF782FF24
:101C2400054460483544069B1BB122465E4909F0D1
:101C340066FE049B002B00F08E80DDF81080394690
:101C4400B8F1100F204628BF4FF010080026FFF708
:101C54007BFFB54250DC0026334620461AF80320A9
:101C64005249FFF75FFF0136102E4BD0710703D1A5
:101C740020464F49FFF756FF46453346EDD32046ED
:101C84004C49FFF74FFFEEE706468DE74A4B1868CD
:101C9400002894D0494B4FF47A7B1B684FF03C0CDE
:101CA400B5FBF3F5B5FBF0F14FF4616300FB11559F
:101CB4000BFB05F5B1FBF3F2B5FBF0FE03FB1211D0
:101CC40000FB1E55B1FBFCF30BFB05F5B5FBF0F572
:101CD4000CFB131120460091CDE901E53849FFF7CB
:101CE40021FF6CE707F008058AE7B8F1010F4D46BC
:101CF4000CBF2C48334896E720462D49FFF712FFC6
:101D04000136A6E7002620462F49FFF70BFF33468E
:101D14001AF803202046A2F120035F2B28BF2E22AD
:101D24002A49FFF7FFFE0136102E0DD0720703D1AA
:101D340020461F49FFF7F6FEB0453346E8D8204653
:101D44001B49FFF7EFFEEEE7049BC244B3EB080325
:101D540004937FF472AFB9F1000F0AD0FB0704D5E6
:101D640020460A4A0A49FFF7DDFE39462046FFF7B6
:101D7400EBFE204609B0BDE8F04F0AF015BC00BFE9
:101D8400CFF90000D3F9000010F30000CAF90000F5
:101D94006802010024F30000F8F90000FEF90000D5
:101DA40002FA0000C7C50000052E000007FA000073
:101DB400AA0D0100A80D0100101300200C1300202F
:101DC400DCF90000F5C500000DFA00000FFA000070
:101DD40042F20F7373B58B4228BF0B460568044665
:101DE400052168460D4A09F021F90646636828462C
:101DF4000B225B680A490AF0C9FB636832466946EC
:101E040028465B680AF0C2FB63681B2228465B68AD
:101E140004490AF0BBFB02B070BD00BF2C000100F6
:101E24001A0F0100FE0E010000210123064A904210
:101E340006D8064A01B901231360054B18607047A0
:101E4400012140085B00F2E740420F000C13002020
:101E540010130020F8B50D460446064F4618B44248
:101E640001D12846F8BD14F8011BBB6801485B6822
:101E74009847F4E7CCED0000014B03600020704765
:101E84006CF3000008B5044809F08BFD034809F021
:101E940088FD002008BD00BF4CFA000081FA000054
:101EA400014807F05DB900BF6CF3000038B5044683
:101EB40018B90F4B0F485B6898476168B1F5683FE4
:101EC40010D0B1F5680F0DD00B4DA9420AD011F412
:101ED4006861206807D0014608480CF0E6F9002341
:101EE4002360656038BD14220CF019FEF9E700BFC9
:101EF400F4020020AEFA00002C5F5CA93818002020
:101F040008B560B34368B3F5683F0ED0B3F5680F06
:101F140018D0144A934220D000684FF0FF324FF09B
:101F2400FF3305F005FC58B115E001220368D3E83E
:101F3400EF1F002903D1C3E8E02F0028F7D10AD10D
:101F4400002008BD0368084A1B7803F5807352F823
:101F54002330002BF4D00548F3E70548F1E76FF48C
:101F6400E040EEE72C5F5CA900000350E98FFFFF1F
:101F7400EA8FFFFF08B520B34368B3F5683F09D083
:101F8400B3F5680F13D0114A93421DD0006805F0D1
:101F940041FC14E000220368D3E8EF1F012903D1B8
:101FA400C3E8E02F0028F7D109D0094808BD002173
:101FB4000368084A1B7803F5807342F82310002055
:101FC400F4E76FF4E040F1E70348EFE72C5F5CA926
:101FD400E98FFFFF00000350EA8FFFFF10B50446AE
:101FE40018B91D4B1D485B6898476368B3F5683F93
:101FF4002FD0B3F5680F2CD0194A934219D1236816
:1020040003BB4FF0FF324FF0FF332146154805F074
:1020140061FB08B923681BB90F4B13485B689847E9
:102024001422002120680CF07AFD4FF46863636089
:1020340008E0B3F5680F0DD83A2B03D040F6BA6226
:102044009342DED120680CF07BF9636843F03A03D5
:10205400636010BD054AF3E7F4020020AEFA000005
:102064002C5F5CA938180020D4FA00003A00003A2A
:1020740008B506494023142205480CF009F9BDE8C7
:1020840008400449044807F0FBBA00BF3813002095
:102094003818002074F3000088F3000008B50348E2
:1020A400034A0021121A0AF021FB08BD480500204A
:1020B400D8230020074808B5074A0849121A0AF02D
:1020C40017FBBDE808400648064A0749121A0AF0F9
:1020D4000FBB00BF00000020440500208C0F01004E
:1020E40000000020000000208C0F01002DE9F047C3
:1020F40006460C4600AF002936D0D1E90012E94665
:102104008AB06D46A3684FF0050AE8461F48CDE93A
:102114000723CDE9050148F810AF002342464FF4E8
:1021240021511B48FFF720FCD4E90312CD46636913
:10213400AD461848C5E90723C5E90501C5F810A04F
:10214400002342464FF421511148FFF70DFCCD46C0
:10215400E3690121104A0E480AF002FAA369012139
:102164000E4A0B480AF0FCF9012E07D1EFF3058360
:102174000B4A31460648103B0AF0F2F92146304634
:1021840005F0F0F8BD46BDE8F08700BF01FB000094
:1021940078F1000030FB00005FFB00006EFB0000E4
:1021A4009CFB000030BFFFF7FDBF00BF2DE9F041ED
:1021B40005460B4EDFF82C80324606EB0807CC1B95
:1021C400204609490CF085FCA01942460021083C30
:1021D4000CF0A5FCC5F8A44007F10800BDE8F081A7
:1021E4000000000004000000F4F1000010B5244CCD
:1021F400244925480AF089FAA36A99013ED5224860
:1022040022490AF082FA1E20A36ADA0104D51E4884
:102214001F490AF07AFA1F20194CA36ADB0204D57D
:1022240019481C490AF071FA0220A36A1C0304D558
:10223400154819490AF069FA2120114CA36A590377
:1022440004D5114815490AF060FA2220A36A9A03BA
:1022540004D50D4812490AF058FA2320084CA36A01
:10226400DB0304D508480F490AF04FFA2420A36A77
:102274006FEA03436FEA1343A36210BD1D20C3E753
:1022840000ED00E0AFFB000078F10000C7FB0000A8
:10229400DAFB0000F4FB00001EFC00003CFC000024
:1022A40061FC00007BFC000070B506460D46294C1D
:1022B40029492A480AF029FAA36ADB0647D52748A0
:1022C40027490AF022FA1120A36A1C0704D52348DF
:1022D40024490AF01AFA12201E4CA36A990712D54F
:1022E40021491E480AF011FA636BA26A120609D545
:1022F40001211E4A19480AF033F91EB1A36A23F0DA
:102304008003A3621320134CA36ADE0704D5134889
:1023140017490AF0FAF91420A36A9C0604D50F4859
:1023240014490AF0F2F915200A4B9A6AD10658BFEB
:102334009A6A9A6A920642BF5A6A22F400525A6210
:102344009A6A42F0FF029A6200232B7070BD10203B
:10235400BAE700BF00ED00E0A6FC000078F1000041
:10236400BCFC0000EFFC000002FD00001AFD0000B0
:1023740030FD00004FFD000070B506460D46284CA8
:10238400284929480AF0C1F9A36AD9043CD526484A
:1023940026490AF0BAF91720A36A1A0504D5224877
:1023A40023490AF0B2F918201D4CA36A9B0512D5E3
:1023B4001D4820490AF0A9F9A36BA26A100409D5A3
:1023C40001211D4A18480AF0CBF81EB1A36A23F470
:1023D4000043A3621920124CA36A590504D512487C
:1023E40016490AF092F91A20A36ADA050ED50E48A6
:1023F40013490AF08AF91B20094A936A43F47F437C
:10240400936200232B7070BD1620C5E7A36A9B045A
:10241400F2D505480B490AF078F91C20ECE700BF17
:1024240000ED00E07EFD000078F1000094FD000066
:10243400EFFC0000A5FD0000BEFD0000D3FD000080
:10244400EEFD00004FFD00002DE9F0418AB0674B1E
:102454000446D3F80480002500AFC8F3080685F3CA
:102464001188BFF36F8F02F07F43B3F17F4F07D121
:1024740002F00C03082B12D15D495E480AF045F9BD
:1024840000252C460023FB71F31E092B00F28E80DD
:10249400DFE803F00A8487808C8C8C8C8C8A10078C
:1024A4004CBF0C460125EDE7534952480AF02DF97B
:1024B40000234E4EFB71F36A9A0705D54F494D48E8
:1024C4000AF023F900232DE0F36A002B01DA4C49CA
:1024D400F5E7F36A5B00F5D54A4946480AF015F971
:1024E4007369A26943F480737361BFF34F8FBFF3C1
:1024F4006F8F32F8023C726922F480727261BFF30A
:102504004F8FBFF36F8F03F47F42B2F55F4F2BD130
:10251400DBB2022B28D1236801213B4A35480AF05B
:102524001FF82368FA79DAB907F1080604F1200CD8
:10253400324620686168083403C264451646F7D100
:102544007A6A002D4FD0C2F3080121B96FEA5222F2
:102554006FEA42227A62184607F10801FFF7C6FDC6
:102564002837BD46BDE8F081204B9A6AD2B222B129
:102574000120F91DFFF798FE0EE09A6A12F47F4FCE
:1025840004D00120F91DFFF7F7FE05E09B6AB3F5BF
:10259400803F97D3FFF72AFE0346C3E70020F91DC7
:1025A400E8E70020F91DEEE7184988E7184A18F40F
:1025B400F87FE8468AB0174B08BF13466A461649A7
:1025C400103ECDE905134FF40073ADF82030134BE2
:1025D400079642F8103F00234FF411510548FFF7C6
:1025E400C3F9C5466EE76FF30802B3E700ED00E0F8
:1025F40034FE000078F100005FFE000076FE00006B
:1026040097FE0000A5FE0000C4FE0000E0FE0000EE
:1026140006FE00001BFE000004FF00000400000191
:10262400064B5A6942F010025A615A6942F48062B8
:102634005A615A6922F008025A61704700ED00E0BD
:10264400EFF30880EFF3098101B57246FFF7FCFE52
:1026540001BD00BF002080F31488BFF36F8F0020FA
:1026640080F30A8880F30B88104880F308880020E0
:102674000F49087003F06CFD00200E490860BFF399
:102684004F8F00F02DF8202080F311880A484FF472
:102694000061401880F30988EFF314800221084395
:1026A40080F31488BFF36F8F00F0A6F878430020FE
:1026B400D523002094ED00E0383200200023184692
:1026C4000649D1F89020C2F30722934200DB7047F9
:1026D400C1F89830C1F8A0000133F6E700ED00E03E
:1026E40010B572B6002484F31388FFF7E7FF23467E
:1026F4004FF0FF300C4A03F120010133102B42F854
:102704002100F8D100234FF0FF30074A03F16001A4
:102714000133102B42F82100F8D162B6BFF34F8F7A
:10272400BFF36F8F10BD00BF00E100E01EF0040F87
:102734000CBFEFF30880EFF30980816911F8021CE4
:102744000229FFD001B5724609F0D4FF01BD00BFD4
:1027540040B2002807DB01234109034A00F01F00AF
:10276400834042F82130704700E100E040B2002885
:102774000CDB01220649430900F01F00824020338C
:1027840041F82320BFF34F8FBFF36F8F704700BF13
:1027940000E100E0054B420953F82220012300F038
:1027A4001F0003FA00F01040704700BF00E100E092
:1027B40040B2002801F10101ACBF00F16040064BBA
:1027C4004FEA4111C9B2ABBF00F5614000F00F0000
:1027D40080F800131954704714ED00E0044B054AC7
:1027E40023F07F039360BFF34F8FBFF36F8F704766
:1027F4000000000000ED00E008B5FFF7EFFF074A16
:10280400D2F8883023F47003C2F88830FFF746FC0E
:10281400FFF750FC00F0A2F804F0CCFE00ED00E05D
:1028240042F8203C009B0B4942F81C3C019B21F0E0
:10283400010142F8183C029B42F8081C42F8143C7F
:102844004FF0807342F8043C0023203A0265C0F83C
:10285400A8307047810A000000B50E4B15469860F9
:10286400D0F8A4200C4B0E461A60D0F8943083F3B1
:102874000B882C4686F309880020044B9847204691
:10288400002100220023024C204700002FC7000033
:10289400810A0000C81A0020541800201022014B9D
:1028A4001A61704700ED00E0054B5A699B689A4233
:1028B4001FBF044A536843F080535360704700BFFE
:1028C400C81A002000ED00E0084B9B6883420BD13E
:1028D400EFF3058343B1064B5A6842F080525A60C5
:1028E4005A6A22F400425A6205F058BDC81A002000
:1028F40000ED00E016498A684FF030001044EFF311
:10290400098C80E8F01F202080F31288BFF36F8FBA
:10291400104F4FF000664A698A603E60D2F8A40006
:102924000D4C2060D2F8A8000023C2F8A83080F330
:10293400118802F1300090E8F01F8CF3098802F14D
:10294400000004B509F0E9FEBDE80440704700004A
:10295400C81A002004ED00E05418002000232021B0
:102964000348C2180133452B82F80013F9D170478C
:1029740000E100E008B5EFF30583064A103B02EBE3
:10298400C30152F8330049688847BDE80840FFF79F
:102994008BBF00BF3CEE0000014800687047000098
:1029A400541800201FB50121094B0A4A0A4800F0B7
:1029B4000FF90023064A0393084B0121019301A850
:1029C400D31A029300F00EF905B05DF804FB00BFC2
:1029D400000007200000002098F3000048050020B4
:1029E4000A7A0B6810B562F304031C46CB685209DB
:1029F40023F01F0343EA4203044A43F00103C2F8ED
:102A04009800C2F89C40C2F8A03010BD00ED00E070
:102A140010B50A4BD3F89030C3F30723013B984217
:102A240008D901210346064A064809F099FD6FF0CA
:102A3400150010BDFFF7D4FFFBE700BF00ED00E079
:102A44001BFF000060F100002DE9F04F8946144699
:102A540006464FF000084F4D85B0C84527DAD6F832
:102A640004A0BAF1000F44D0BAF11F0F17D91AF01D
:102A74001F0F14D1D6F800B01BF01F0F0FD158460A
:102A840009F08FFE07460AEB0B00013809F089FEB6
:102A9400874210D06FF015073F4A3B4601E043469A
:102AA4003E4A01213E4809F05BFD6FF015042046C3
:102AB40005B0BDE8F08F17F1160FEDD0BC42EBDD89
:102AC400C5F89870D5F89C10C5F89870D5F8A03062
:102AD40021F01F0143F01F0BD6E900321A4499423A
:102AE40002F1FF3A1AD1D34507D13146F8B209F0C1
:102AF40061FE08F101080C36AFE73146C5F898705D
:102B0400D5F89C30E0B263F30402C5F89C2009F0C8
:102B140051FE10F1160FC8D0441CEAE7C5F89870AE
:102B2400D5F8A020013B23F01F0302F01F0213433A
:102B3400D3453146E0B2C5F8A030E8D009F03AFEFA
:102B440010F1160FB1D0C5F89870D5F89C209DF8F7
:102B540008300BF1FF3B62F304038DF80830D5F81D
:102B6400A0309DF808205B0863F347128DF8082015
:102B7400D6E900321344009323F01F035B44A3EB14
:102B84000A03013023F01F036946C0B20393FFF721
:102B94003FFFBEE700ED00E067FF000041FF0000DB
:102BA40060F100000522044BC3F89420BFF34F8F5B
:102BB400BFF36F8F704700BF00ED00E0BFF35F8F7E
:102BC4000022024BC3F89420704700BF00ED00E0E0
:102BD40010B5034C2278FFF737FF207010BD00BFFB
:102BE4004F2100202DE9F74F294D8A4606464FF024
:102BF4000008AB46274FD0451BDAD6F80490B9F14C
:102C0400000F3FD031680846019109F0CAFD0199CF
:102C1400044609EB0100013809F0C3FD84424FF07A
:102C240014021D4B08D002FB08F36FF015024BF899
:102C3400032003B0BDE8F08F14F1160F2C60F8D018
:102C44001978A142F5DD02FB08B0C7F89840C7F82F
:102C54009840D7F89C4000F10801007B64F304001D
:102C64000871D7F8A0000C79400860F347140C7180
:102C7400D7F89C1021F01F016960D7F8A01021F04B
:102C84001F01296108F1010814350C36B3E700BFB0
:102C94005818002000ED00E04F210020F0B5534902
:102CA400534DD1F890302C68C3F307239C4287B06E
:102CB40000F299800020FFF781FF4E4BC1F8C0302D
:102CC400844216D14C4D01A82C70FFF7D5F800268C
:102CD40007464A4CB74213D100202B784349D1F818
:102CE4009020C2F30722934277DBFFF75BFF0020BB
:102CF40046E0696801EB0011FFF772FE0130DFE77F
:102D04000199300101EB0613DA682240B2F1807FA9
:102D140052D00AD8B2F5001F34D0B2F5800F3ED09D
:102D2400B2F5801F12D00136D4E7B2F1006F43D060
:102D3400B2F1805FF7D15A689B680958013B22F0D1
:102D44001F00034423F01F03012032E05A689B68EC
:102D54000958013B22F01F0003440120844623F05C
:102D64001F0340EA4C10CDE902218DF8100002A99E
:102D740028780593FFF74CFE00282ADA6FF0150037
:102D840007B0F0BD5A689B680958013B22F01F0048
:102D940003444FF0020C012023F01F03E1E75A68BB
:102DA4009B680958013B22F01F000344062023F0CE
:102DB4001F034FF0000CD4E75A689B680958013B85
:102DC40022F01F0003444FF0030C012023F01F03E3
:102DD400C7E72B7801332B70A5E7C1F89830C1F809
:102DE400A00001337BE74FF0FF30C9E700ED00E0BE
:102DF400A4F30000AAFF44004F2100200000F0FFCC
:102E0400F0B587B007460E461446002110226846E6
:102E14001D460BF084FE02238DF80230054B2A4632
:102E240021466846CDE90476019308F029F907B0F4
:102E3400F0BD00BFEBC7000008B5024808F0D6F8A3
:102E4400FEE700BF99FF000008B5024B1B689847D6
:102E5400002008BD6C180020034B044A18609378C6
:102E640043F00203937070476C180020A401002003
:102E740008B50649064821F00701C1F1005202F5E0
:102E8400E02208F0EAFC002008BD00BFF761002042
:102E94007018002070B541690446867A0A4D59B10C
:102EA400437ADB0706D4242303FB0653DB691B6840
:102EB4009B689847002363612420214600FB065049
:102EC400BDE870400BF0D7BAB40400202422024BB2
:102ED40002FB0030704700BFB40400202421827A32
:102EE400054B01FB02331A6A1B7D801A1B3323F046
:102EF4000303B0FBF3F07047B404002038B5242476
:102F0400827A064B04FB0233DB69D3E901240C60AB
:102F14001568FFF7E3FF04FB005038BDB40400203C
:102F24002DE9F04385B00546684690461C4603915A
:102F34000BF010FDDDE90067EFF31189202383F323
:102F44001288BFF36F8F6B8A002B41D02A8A9A4272
:102F540025D900220023284604F0ACFC0446F0B135
:102F640089F31188BFF36F8F039B002B41D0324646
:102F74003B4668460BF013FD2421A27A254B2046DC
:102F840001FB0233DB6903A91B681D68DDE900232B
:102F9400A847606170BB2046FFF77CFF24E0698A84
:102FA4004B1E6B8289F31188BFF36F8F2B7D2A8AA6
:102FB4002C6A1B3323F00303521A02FB0344154B00
:102FC400154AEB1A9B105343A3722B7DE372CBE794
:102FD40089F31188BFF36F8F23464246284604F0D5
:102FE40069FC04460028BFD10024204605B0BDE892
:102FF400F0836361012300252381039B29466382B7
:10300400E27A656004F118000BF089FD636925829A
:10301400E360EAE7B4040020398EE33870B5242570
:103024000C4C00B970BD037A4668002BFAD0013B02
:10303400DBB20372002BF5D1C3604360837A05FBD6
:1030440003439B6913B198473046EAE7FFF722FF31
:10305400FAE700BFB4040020052370B5144D154EE3
:103064002C780134B4FBF3F303EB8303E41A09F083
:10307400CDFE114A137823B156F82430C01A07281C
:1030840014D94FF05023D3F8141141B10021C3F8DF
:103094001411D3F814312C700CB9012313702C784B
:1030A40009F0B4FE46F82400012070BD0020FCE7BE
:1030B400512100207C18002050210020054B03EBF7
:1030C4008000D0F8003223F0E04343F04053C0F8CE
:1030D4000032704700258450012208B50B4B0C497F
:1030E400C3F8002502230020C1F8D036FFF7E6FF1D
:1030F4001046FFF7E3FFC1F80427C1F80429C1F81B
:10310400002BBDE8084000F065B800BF0010005077
:103114000040005007B500220D4B0E49C3F8A8210A
:10312400C3F8AC204FF48062C3F8B8254FF40062B2
:103134000948C3F83C250DF1070209F0EFFE002809
:1031440003DB9DF8070003F0EFF803B05DF804FB20
:1031540000A002502CA0025028A1025048B1054BF7
:10316400054A1B68B3FBF2F35843044B43F00103D5
:1031740018477047A802002040420F0070F2000078
:1031840070B50025104E1149114C000716F8013B8B
:1031940003F01F025B090FD0012B0FD1234603EB71
:1031A4008203D3F80022013522F0E0420243042DC9
:1031B400C3F80022EAD170BD0B46F0E70023803249
:1031C40053F82230FFDE00BF260F01000025845093
:1031D400002884500149024808F0B8BEDCF300001E
:1031E400901800201FB578B10023019303930123A5
:1031F40069460848029308F0BCFE029B9B0700D175
:10320400039B05B05DF804FB024805B05DF804EBD0
:1032140008F0FABE9018002008B54FF0FF33044AB6
:1032240013603F231046536003F06AF8002008BD82
:10323400AC18002070B50B7892B006460C4607AD6A
:10324400032B31D8DFE803F0022A2C2E1949284633
:10325400FCF788FF05956378174A0493A3781E2129
:103264000393E3780AA80293237910AD0193637959
:103274000093A37907F0DAFE32460AAB1C4603CC6E
:10328400AC4210605160234602F10802F6D1206876
:1032940010603046A388938012B070BD0749D6E70A
:1032A4000749D4E70749D2E70A212846064A07F026
:1032B400BDFECFE7B9FF0000DBFF0000C0FF000048
:1032C400C7FF0000D1FF0000990001000E4B402908
:1032D40028BF402170B51D460C4C4618B04203F17E
:1032E400020304D1002305F81130074870BD0278A9
:1032F4001209A25C03F8022C10F8012B02F00F0251
:10330400A25C03F8012CE9E7522100203D0F0100E3
:1033140010B509F042FB0BF0ACF9044608B904F00F
:1033240073FF064BD3E8AF3F0BB10A2098471CB993
:10333400BDE8104004F07CBF10BD00BFB4180020ED
:1033440038B50446084809F05FFA054648B1631EDB
:10335400DBB21F2B96BF054A0021D15C0C3009F06B
:1033640099FA284638BD00BFFC0400204E0F010026
:103374000E38012810B50AD8094809F045FA044660
:1033840018B104210C3009F085FA204610BD09B1AA
:103394000448F2E70220BDE81040FFF7D1BF00BFA8
:1033A40020050020B404002010B501210C3009F0E0
:1033B40092FA03780121BDE81040024A024809F05C
:1033C40006BB00BF0D000100F8F0000010B500249A
:1033D400084B86B0039303AB00934FF42C724FF069
:1033E400FF3305490548CDE9044404F033FC204685
:1033F40006B010BD2F000100D82A0020E00D0020E7
:1034040010B5094BD3F80C3163B1084908480BF0E7
:10341400E0F8031E06DABDE810400121054A06481B
:1034240009F0D5BA10BD00BF0000002054020020EE
:10343400B00E00203F000100F8F000000B46B0B5CC
:103444000D8A00AF04462946D868FFF73FFF8AB0CB
:103454006A46094BCDE90750CDE9053440F20243F1
:10346400ADF82430054B4FF43251054842F8103F73
:1034740009F0BAFABD46B0BD5C00010005000001C8
:10348400F8F0000037B50446084602EBC3039A423D
:1034940002D16FF05E0010E0114611F8085BA542FE
:1034A40011D1038A5178994209D908480121084A5F
:1034B400009409F05FF86FF0150003B030BD536855
:1034C40098470020F9E70A46E1E700BFF8F000005A
:1034D4007E00010010B5012104460C3009F0FBF90F
:1034E4002146BDE810400023014A007809F07FBA64
:1034F40078F4000010B5012104460C3009F0EBF912
:103504002146BDE810400023014A007809F06FBA53
:1035140090F40000F8B50121044600AF0C3009F026
:10352400DAF90678002321463046104AFFF7AAFF4D
:103534005F3019D1258AE0682946FFF7C7FE6C463B
:103544008AB06A460A4BCDE90750CDE9053640F208
:103554000243ADF82430074B4FF43251064842F889
:10356400103F09F041FAA546BD46F8BD90F40000AD
:10357400A000010005000001F8F000002DE9F74F5C
:103584000023804689461746DFF800A1DAE8EF4FAA
:10359400CAE8E23F002AF9D1264644B9012143464C
:1035A4003B4A3C4803B0BDE8F04F09F010BA20464E
:1035B400FFF794FC4FF00C0B374D0BFB0050438886
:1035C40043451BD02046FFF789FC0BFB0050438882
:1035D40001210093314A43462E4808F0CBFFDAE834
:1035E400EF3FCAE8E26F002AF9D1002B4BD01E4608
:1035F400304603B0BDE8F04FFFF710BDA74208D036
:10360400204609F0FCF83A8AF96804F10C0009F044
:1036140038F92046FFF762FC0C2707FB005043688B
:10362400ABB1B9F1000F12D12046FFF757FC0121CD
:1036340007FB00504268536803F01F008140106884
:103644005B0900EB8300137ACBB109F0C2F9204681
:10365400FFF744FC0C2707FB00508368002BC7D0FE
:103664002046FFF73BFC784305F800902046FFF71F
:1036740035FC07FB0055A86804F04EF9B8E7C943C8
:1036840009F0C3F9E3E703B0BDE8F08F08010020B7
:10369400D2000100F8F00000B8180020FA00010080
:1036A400054BD3E8AF2F02F00B02D3E8EF1FC3E8BA
:1036B400E02F0028F9D17047D40000202DE9F0470D
:1036C4000C4604F0A1FDE568268A2B78042B7DD1F5
:1036D400022E0ED83346434A4348012109F077F9B4
:1036E4002046FFF79BFC002404F0A2FD2046BDE821
:1036F400F0876B783E2B0CD1032E02D13B4A334624
:10370400EAE7EB78012B01D00A2B49D14FF00308EB
:1037140006E0052BFAD00E3B012B41D84FF00108EF
:1037240004F10C0701213846D4F814A009F0CBF8B1
:103734000221384609F0CFF8037881463E2B07D1A1
:10374400E3681B78012B01D00A2B06D1032714E070
:10375400052BFBD00E3B012B32D941F26813244ACE
:103764002449254808F02AF9002383F31188BFF37C
:103774006F8F0323184602DF0227032321461F4AC3
:1037840099F8000009F033F9BB071BD56369A5EB71
:103794000A0513FA85F5E5602682B8F1010FA2D077
:1037A4002146174809F034F8164917480AF011FF62
:1037B400031E98DA0121154A0B4809F008F992E72B
:1037C4000127DAE72046FFF729FCE6E70121104A42
:1037D400054809F0FCF82046FFF720FC6FF01504BB
:1037E40082E700BF2D010100F8F00000490101004B
:1037F400690101009D010100B601010060F40000AF
:103804000C01002054020020B00E00203F000100F3
:10381400D301010038B51C4809F00FF8044690B3F1
:1038240000F10C05284609F05EF80428034624D16B
:103834002846022109F04FF8037805460E3B012B78
:103844000ED840F69A43114A1149124808F0B6F8C6
:10385400002383F31188BFF36F8F0323184602DF1D
:10386400032321460C4A287809F0C1F82046FFF7C3
:10387400D5FBBDE83840FFF7C3BD0121074A08481E
:1038840009F0A5F8F2E738BD0C0100206901010038
:10389400E7010100B601010078F4000015020100FF
:1038A400F8F0000010B5C1E900239DF808300C467B
:1038B4000B72FFF713FB0C22024B02FB00335C601C
:1038C40010BD00BFB8180020F8B502460B461048DA
:1038D40008F09AFF0446C0B104210C3008F0C7FF79
:1038E4002046FFF7FBFA0C2700260A4D07FB005081
:1038F40046802046FFF7F2FA07FB00508660204618
:10390400FFF7ECFA07FB00556E602046F8BD00BFD8
:10391400D8040020B818002010B5044692B04822FC
:10392400684606490BF0D5F8112C9DBF12AB03EB8A
:10393400840454F8480C024812B010BD1CF2000074
:1039440029020100034B0146D3F8240182689268DE
:10395400104700BF000000202DE9F04F91B0042172
:1039640000AF4A4809F035F86D4688B06A46484BBE
:103974004FF4E6510593474B474806934FF40073C1
:10398400ADF81C30454B464C42F8103F09F02CF87A
:10399400AD46E179434B444E07F12008012998BF15
:1039A4001E4640462146FFF745FC8AB06A463F4B17
:1039B400CDF81C80CDE905363D4B4FF423510893D7
:1039C4003C4B354842F8103F09F00EF8A246AD468C
:1039D4000125394EDFF8E480E3790AF1070A9D42B4
:1039E4003BDB94F870506E462846FFF795FF8CB089
:1039F4006A46B4F87210B4F87630CDE907514FF442
:103A04000075DFF8BCC009932E4BCDE905C0ADF8B5
:103A140028504FF4535142F8103F1F4808F0E4FF78
:103A2400B54694F871603046FFF776FF8AB06A466F
:103A3400B4F874302449CDE90763244BCDE905106B
:103A4400ADF824504FF43351134842F8103F08F0B6
:103A5400CBFF4437BD46BDE8F08F51463846FFF7EB
:103A6400E9FBE9468AB06A4640F20133CDE90565CF
:103A74000797ADF820304FF41351074842F8108FE0
:103A840008F0B2FF0135CD46A6E700BFD400002000
:103A94003502010047020100F8F0000003000001B4
:103AA40000000020E00D0100310201004B02010082
:103AB40000020103040000025A0201000400000194
:103AC4006B02010006000001A902010005000001CB
:103AD400014902480AF07DBD44020020E00D0020A7
:103AE40070B505460C4639B1CB684A699B1A032B5D
:103AF4000ED86FF0150509E04FF0FF304FF0FF319D
:103B0400FFF7E2FE044618B96FF06805284670BD59
:103B14002046FFF7E3F90C22164BA61802FB0033EC
:103B2400032130465D8008F0BDFE0580238A012113
:103B3400033B8370304608F0BDFE40F635439D429A
:103B44000FD12046FFF7FEFE05460028DED00121F6
:103B54000346094A094808F03AFF2046FFF75EFA8F
:103B6400D4E7214606480AF07BFC0025FFF7B0FFA6
:103B7400CCE700BFB8180020D0020100F8F0000024
:103B8400140100202DE9F04784B0804691460C468C
:103B940000AF71B94FF0FF304FF0FF31FFF794FEE3
:103BA400044660B96FF0680528461037BD46BDE885
:103BB400F087887AFFF78AF93C4B83426FD1012260
:103BC400002138460AF061FC2046FFF787F90C23F0
:103BD400DFF8DCA003FB00A08760204608F043FE6A
:103BE40001464046FFF77CFF054618B12046FFF723
:103BF40015FAD9E74FF4A0220023384603F0C0FE9B
:103C0400064690B14FF4F1732A4A2B492B4807F02A
:103C1400D5FE324641462A4807F0D0FE85F3118886
:103C2400BFF36F8F0323184602DF2046FFF756F9D0
:103C34000C2358431AF800605EB36D468AB06A4696
:103C4400204B0796CDE905381F4B4FF432510893AA
:103C540040F20243ADF824301C4B1D4842F8103F9B
:103C640008F0C2FE2046AD46093EFFF7D7F9092EFB
:103C74000CD8DFE806F0050B0B08170B0B0B0B1425
:103C84006FF06E0590E76FF00C058DE76FF004059B
:103C94008AE7B9F1000FA9D0C9F8004084E76FF0B2
:103CA400150581E76FF00B057EE700BFD8040020FF
:103CB400B818002069010100F2020100B6010100F8
:103CC400FB02010040030100E00D010005000001BA
:103CD400F8F00000F7B5144B054693F99B300C46F9
:103CE400002B1DDA14B9204603B0F0BD082C4FF0A8
:103CF400000142F2180001AA264628BF0826FFF751
:103D040041FF0028F0D1019F3246F968284601316D
:103D14000AF0DFFE3846FFF781F93544A41BE1E7DA
:103D24006FF08500E0E700BF0000002000222DE9CD
:103D3400F04182B0114640F6034000AFFFF722FF86
:103D4400044600285FD1FFF7ABFC214641F2030093
:103D54003A1DFFF717FF0446002854D17A68C54D71
:103D6400D16805F17803D1F80100D1F8051003C337
:103D74001046FFF753F9214641F201003A1DFFF7BF
:103D840001FF044600283ED17868C3685A7885F854
:103D940070205A88A5F872201A7985F87120B3F832
:103DA4000720A5F87420B3F80530A5F87630FFF79E
:103DB40035F9214641F202003A1DFFF7E3FE0446BD
:103DC40008BBD7F804C005F18006DCF80C20531CAE
:103DD4004132344618685968083303C4934226466E
:103DE400F7D16046FFF71AF900F03CFF044650B9DA
:103DF40095F87C305E060BD401219F4A9F4808F059
:103E0400E4FD6FF0120420460837BD46BDE8F0819A
:103E140001463A1D42F20300FFF7B4FE04460028AF
:103E2400F1D17A68964BD168D1F80100D1F8051028
:103E340003C31046FFF7F2F81F23A5F8E83095F8FE
:103E44007C30980619D44FF0FF304FF0FF31FFF764
:103E54003BFD0646002800F03D8102210C3008F0AD
:103E64000AFD0123447022460370314640F66D403A
:103E7400FFF788FE04460028C5D195F89C30190741
:103E840012D5002142F21C003A1DFFF77BFE0446C6
:103E94000028B8D17868C368D3F80120D3F8053076
:103EA400C5E93823FFF7BAF84FF0FF304FF0FF3180
:103EB400FFF70AFD0446002800F00C8108210C30AD
:103EC40008F0D9FC02260022214606704270827056
:103ED400C270027142718271C27142F20100FFF735
:103EE40051FE044600288ED14FF0FF304FF0FF31D1
:103EF400FFF7EAFC8046002800F0EC8008210C3033
:103F040008F0B9FC8023437020230470847004718A
:103F1400447184712246C670C371414640F6014023
:103F2400FFF730FE044600287FF46DAF01463A1DCA
:103F34004FF60140FFF726FE60B1524A02214F4876
:103F440008F043FDEB79002B40F0B48000F034FC22
:103F5400044658E77B686E46DC688AB0B4F80130E2
:103F6400042B96BF484A494952F823106A460793DE
:103F74004FF400734648ADF82030464BCDE90501B7
:103F840042F8103F4FF413513C4808F02DFDB4F8AB
:103F94000120B546022AB4F803304BD1052B49D889
:103FA4003D4A52F823106E468AB06A4607934FF48E
:103FB40000733A48ADF82030364BCDE9050142F89C
:103FC400103F4FF413512D4808F00EFDB5466379A8
:103FD40094F806C0032B98BF314AB4F80760D4F8AC
:103FE40009006C468CB094BF52F8231027496A46E6
:103FF400CDE9073C4FF40073DFF8A8E0ADF82C30AE
:10400400294BCDE905E1CDE909604FF4735142F83C
:10401400103F1A4808F0E8FCA5467868FEF7FEFF52
:1040240000214FF602403A1DFFF7ACFD044618B1DB
:104034001E4A83E71549B6E77868C368B3F80130C8
:10404400A5F8C130FEF7EAFF95F8C1305A077FF5AD
:1040540079AF21464FF603403A1DFFF793FD08B1AF
:10406400134A6BE77868C3685B7885F8C030FEF75D
:10407400D5FF67E7000000205F030100F8F00000AF
:10408400D8000020830301004CF400002902010041
:10409400A70301000400000134F40000C003010080
:1040A40024F40000D8030100070000010504010006
:1040B4002E0401002E78002E7FF448AF95F8C1300D
:1040C4009B061FD54FF0FF304FF0FF31FFF7FCFB8D
:1040D400044610B96FF0680495E606210C3008F028
:1040E400CAFBD5F8013021460360084B32469B8851
:1040F40083804FF60640FFF745FD044600283FF451
:1041040025AF80E66FF085047DE600BF0100002046
:1041140073B52C4D0646D5F824010AF060F848B969
:104124000121294A294808F050FC6FF01204204666
:1041340002B070BD6FF0020105F1D40008F065FC17
:10414400012108F046FC10EA010437D1204B1E601F
:104154000A4605F1F8000AF098F905F58A700AF0A4
:1041640077F91C480AF060FA6FF007034FF496627F
:1041740019491848009403F06DFD1849154803F0D7
:1041840013FED5F82401164983681B689847044632
:1041940030B101210346134A0C4808F018FCC6E765
:1041A4003EB9FFF7C3FD04460028C0D1FFF7D4FB96
:1041B400BDE705F1C40003F047FDB8E76FF07704ED
:1041C400B5E700BF0000002057040100F8F000002C
:1041D400C4180020B00E0020882D00206F040100B8
:1041E400C13600007804010010B5FFF79FFD0446B6
:1041F40008B9FFF7B1FB044B1B681BB12046BDE8AF
:104204001040184710BD00BFC418002038B5042161
:1042140004460C3008F05FFB034640885D7818B113
:1042240022461978FFF7AAF935B1044803F074FB64
:10423400BDE83840FFF74CBC38BD00BFF800002093
:10424400B0B50446032100AF0C3008F044FBE2682B
:104254000346117840F63542B0F80100904216D179
:104264006C468AB06A46104B1048CDE90531104BB4
:104274004FF41251079340F20133ADF820300D4B47
:1042840042F8103F08F0B0FBA546BD46B0BD1D780E
:1042940010B12246FFF772F9002DF6D0064803F05C
:1042A4003BFBFFF715FCF0E794040100F8F0000075
:1042B400E00D010004000001F800002038B503F00F
:1042C400A3FF2E4DD5F81431002B52D00022002329
:1042D40005F1F80003F054FB00284AD10022002322
:1042E40005F58A7003F0E6FA044668B940F6AA4375
:1042F400234A2449244807F061FB84F31188BFF35F
:104304006F8F0323184602DFD5F808315BB1012112
:104314001E4A1F4808F059FBD5F80801FEF77EFE37
:104324000023C5F80831204608F09DFAC5F80801B5
:104334002046FFF707FB0346C8B10121154A14487C
:1043440008F045FB144803F0E7FA2046FEF7C6FDE3
:104354000C22124B02FB0033588818B122461F214D
:10436400FFF70CF92046FEF759FEFFF7B1FBFFF704
:10437400AFFBBDE8384003F05BBF00BF0000002086
:104384006901010001000100B6010100CC04010033
:10439400F8F00000D0020100F8000020B818002056
:1043A400F8B506460024094DEF79E3B29F4202D8DE
:1043B4006FF0010007E02946304608F02EFB073570
:1043C400631C08B12046F8BD1C46EEE7000000203F
:1043D40070B51A4E0622314605460AF0AFFB38B3D3
:1043E4004FF0FF304FF0FF31FFF76EFA044608B389
:1043F400062229460C3008F044FA2146002242F2F3
:104404000500FFF7BFFB044648B110F10D0F04D1BE
:1044140002210B4A0B4808F008FB204670BD3346C6
:104424002A6843F86929AA88B280012283F868209F
:104434000024F2E76FF06804EFE700BF6900002092
:104444000C06010018F1000073B504460D4689B14D
:104454002846174908F0E1FA60B9164A2968C4EBFE
:10446400C4041151A318AA889A80AA799A710020C9
:1044740002B070BD6E46304608F081FA0028F7D1CC
:104484003046FFF78DFF0028F5DA0A4A0098C4EB9E
:10449400C4041051B179B088A31898809971002D83
:1044A400E5D012592A609A88AA809B79AB71DEE71D
:1044B4002A0F01000000002070B5044629BB38B360
:1044C400264908F0AAFA18BB2046FFF769FF00281E
:1044D4003EDA23786BB9224AD379002B38D120688D
:1044E4001060A179A0889171012190801846D17142
:1044F40070BD012B04D1A37903F0C003C02B07D0F6
:104504000121184A184808F090FA6FF01500EFE7F7
:10451400134DEB79012B1ED005F1D403D3E8AF3F43
:10452400DB0707D4002CF0D020460C4908F075FABC
:104534000028EAD1EE792146731C3046EB71FFF76F
:1045440083FF08B93046D3E7EB79013BEB71CFE742
:104554006FF07700CCE76FF00B00C9E72A0F01007A
:10456400000000201B06010018F100002DE9F341B2
:10457400044640B91A4A02211A4808F056FA0020A3
:1045840002B0BDE8F081002141F2090001AAFFF761
:10459400F9FA054608B1144AEDE7019E0622D6F859
:1045A4000C80124908F1010738460AF0C7FA28B10D
:1045B400062238460E490AF0C1FA18B93046FEF709
:1045C4002DFDDCE7D8F801303046C4F80130BB8853
:1045D4002570A4F80530FEF721FD0120D0E700BFC7
:1045E4004906010018F1000062060100370F0100BE
:1045F400310F010007B56846FFF7B8FF044BD871C7
:1046040018B169460020FFF71FFF03B05DF804FBF3
:10461400000000202DE9F041304E88B0F1790029E6
:1046240054D196F8C24014F0010411D12C4A02214D
:104634002C4808F0FAF90024F47116250024012707
:10464400F379E0B283422BD8002B3FD000203AE02C
:104654006A464FF60940FFF795FA08B1224AE6E7A1
:10466400DDF800C0DCF80C5095F80180B8F1000FBB
:104674000ED0AB1C02AA12351746186859680833C5
:1046840003C7AB423A46F7D1186838609B88BB80B1
:104694006046FEF7C3FCB8F1000FCDD1134AC6E75C
:1046A40008AB05FB003353F8182C33F8143C694667
:1046B400CDF80120ADF805308DF80070FFF7C4FE89
:1046C40001340028BCD008B0BDE8F08100210846C0
:1046D40008B0BDE8F041FFF7EFBE00BF00000020C6
:1046E4008006010018F10000AC060100CC060100B0
:1046F4002DE9F0411D460E461746034648B145B123
:104704000A0311D54C0708D50121284A284808F086
:104714008CF96FF01500BDE8F08108F090F90028DD
:10472400F9D101232B70F6E7B107047824D021498D
:104734002FB1B20603D591F8D820500632D5C4EB78
:10474400C40411F80480B8F1010F09D101341846EA
:10475400214408F06CF90028DDD185F8008002E0DE
:10476400B8F1000FF9D02FB1B30642BF2B7843F054
:1047740002032B700020CEE7720710D50D49C4EB5D
:10478400C4040F5D012F07D10134214408F04FF90F
:104794000028C0D12F70E7E7002FE5D1FAE708F031
:1047A4004EF9BEE76FF08500B5E700BFF5060100DE
:1047B40018F100000000002038B5104DEB7913B15A
:1047C4000024204638BDFFF715FF044628B10C4AE3
:1047D40001210C4808F029F9F3E7EB79002BEFD11C
:1047E400FFF718FF04460028F1D1681CFFF7F0FD1D
:1047F40004460028E5D0044AEAE700BF0000002090
:104804001407010018F10000330701002DE9F74FE8
:10481400884601904FF0FF314FF0FF30FFF754F816
:10482400044600284ED020210C3008F024F800273C
:104834000646002120220AF072F93946D8F80050C1
:1048440006F1010BD8F804309F4208D331700022DE
:104854002146019803B0BDE8F04FFFF793B96A7899
:10486400881C13181F2B95F800C05FFA80F915D91E
:10487400BCF1090FC9F11F0201D1002A0CDC01218E
:10488400124A134807F063FE2046FEF7C7FB6FF099
:10489400150003B0BDE8F08F4FF0080C5FFA82FA00
:1048A4000AF1010E0BF801E00131C9B20BF801C0A5
:1048B40069685844D1440AF00CF901375FFA89F168
:1048C4000835BFE76FF06800E3E700BF5607010053
:1048D400E0F00000F7B5CDE90001694642F20800B6
:1048E40016461D469DF82070FFF790FF044648B910
:1048F4005FB90B4BD3E8EF1F41F00401C3E8E21F9B
:10490400002AF7D1204603B0F0BD694642F20900FF
:10491400CDE90065FFF77AFF0028EAD00446F1E705
:10492400280000202DE9F04FD0F8109089B00293B0
:10493400B9F1000318BF012305460F469346DFF87B
:10494400A8A20393DAE8AF3F5A0740F12E814668E4
:1049540073050BD56FF01504002340F201119B453C
:1049640040F02C81204609B0BDE8F08FD0F81080CB
:10497400B8F1000F01D0B407ECD09C4C2878E3794F
:104984008342E7D9C0EBC0000722994920440AF0CA
:10499400D5F80028DED0B00706D194F87030082B83
:1049A40002D8AB689F2BD5D916F0300F6DD0B8F173
:1049B400000FCFD0F1066BD406F46036B6F5603F35
:1049C400C8D0284608F052F880460028C2D0894E44
:1049D400D6E8AF2FC2F30023D20500F1E980CDE978
:1049E4000533CDF81B30AB686A68ADF81030EB685E
:1049F40012F4004FADF8123014BF06230723D0037E
:104A040048BF03F00503910348BF03F0FB038DF88F
:104A14001D30DAE8EF3F23F48073CAE8E23F002A4E
:104A2400F7D12B78039A237684F86F30696872483B
:104A34000DF11503FFF75CFE044600288CD16F4B83
:104A4400B9F1000F30D02A6911684AF8B31C918873
:104A5400998092799A716B689A0727D0B9F1000FFF
:104A64002AD013F0100F0CBF012304238DF8143047
:104A74002B691A68CDF816209A88ADF81A209B790C
:104A84008DF81C304FF0000819E0B8F1000F93D1F5
:104A9400D5E902239A423FF65DAF1F2A7FF65AAF4B
:104AA400B3F5804F88D955E7514ACDE79C0501D429
:104AB400029B5BB3022300E04B468DF814304FF0A9
:104AC400FF304FF0FF31FEF7FFFE0446002872D09E
:104AD4000F2204A90C3007F0D4FE2146002242F232
:104AE4000600FFF74FF8044600287FF435AFB9F10C
:104AF400000F0FD00121404807F0BCFF0446A8B1C5
:104B040001213F4A3F4807F022FD25E703238DF8A2
:104B14001430B7E759463846129B029ACDF8008004
:104B2400FFF7D8FE04460028E4D015E76B68980721
:104B34001FD0D6E8EF3F43F40073C6E8E23F002AF3
:104B4400F7D1B8F1000F1DD0D6E8EF3F43F48063EE
:104B5400C6E8E23F002AF7D16B6859071BD5D6E8AF
:104B6400EF3F43F48053C6E8E23F002A3FF4F4AE3B
:104B7400F5E7D6E8EF3F23F40073C6E8E23F002AE6
:104B8400DFD0F6E7D6E8EF3F23F48063C6E8E23FE0
:104B9400002AE1D0F6E7D6E8EF3F23F48053C6E8D5
:104BA400E23F002A3FF4D8AEF5E76FF00A04D3E6FB
:104BB4006FF07704D0E66FF06804CDE63A888A4255
:104BC40004D17A6812B11278D20702D401330837BB
:104BD400C5E60D490D4809F02DFD4FF47022002360
:104BE4000A4803F0DBF8BDE6D400002000000020F2
:104BF4002A0F0100280000201800002021000020B6
:104C04006F070100E0F00000454C00003000002078
:104C140008B5094807F054FF084BD3E8AF2FC2F397
:104C24000020D20506D5A3F110000021BDE80840FC
:104C340007F020BF08BD00BF180000202800002096
:104C440010B5FFF7E5FF034630B1BDE8104002217F
:104C5400024A034807F084BC10BD00BF8A07010064
:104C6400E0F0000008B504F08BF938B101210346E7
:104C7400034A044807F074FC6FF0040008BD00BF49
:104C8400B007010010F1000008B504F027F938B1AD
:104C940001210346034A044807F062FC6FF0040054
:104CA40008BD00BFCC07010010F10000F8B50426D0
:104CB4000D460769374438462A8AE968FCF77AF8CA
:104CC40010F10C0F044608D000280CDA08492246DB
:104CD400084807F0FCFE2046F8BD4B2009F063FAB3
:104CE400013EE8D1F2E72846FEF798F90024F2E7FE
:104CF400FB07010000F100002DE9F04F1746D2F840
:104D040010A002780646042A0D4685B001F1FF334F
:104D14000BD0052A00F09C80022A6AD06F497048A3
:104D240005B0BDE8F04F07F0D2BE012B09D802222E
:104D340000926C4A01216A4807F01CFC05B0BDE8EA
:104D4400F08F43783E2B35D190F803B0ABF10203DA
:104D5400D3F1000B4BEB030BB6F80120EB1EB3EBC6
:104D6400122FADF80C204FEA122529D1BBF1000F08
:104D740023D04FF000084FF0000942464B465946F5
:104D84009DF80C00FEF7F4FA0446E0B100F10C08BB
:104D9400022203A9404607F074FD228A638A6169EE
:104DA4009B1AE268521A9B1A9D4215D94E4A0093E7
:104DB4002B463DE04FF0000BCEE74FF4A028DAE796
:104DC4004A4A0095B6E7BBF1000FB7D10221484A21
:104DD400434807F0BCFBD0E72A46F11C404607F0E5
:104DE40050FD21463846DAF8003005B0BDE8F04FF2
:104DF4001847032B03D8042200923E4A9AE7002264
:104E040000230820FEF79CFA0446C8B1D6F8013006
:104E140000F10C080422404603A9039307F031FD76
:104E2400BDF80E30053D9D424BD000932B46324ACF
:104E340001212B4807F09EFB2046FEF7EFF87DE7A3
:104E440001212E4A264805B0BDE8F04F07F07FBB8C
:104E5400032B03D804220092294A6BE70022002383
:104E64002020FEF76DFADFF89C900446B8B1D6F81E
:104E7400013000F10C080422404603A9039307F013
:104E840000FD0023C9F80030BDF80E30053DC3F322
:104E94000D039D4215D01C4A00932B46C8E764219C
:104EA400D9F80020B2FBF1F301FB13231BB9174916
:104EB4000B4807F00CFED9F800300133C9F8003074
:104EC4003CE7228A638A61699B1AE268521A9B1A38
:104ED4009D423FF66BAF2A46711D7FE7AF09010083
:104EE40000F1000013080100A30801003F080100BD
:104EF4006E080100C60801000A090100F00801005B
:104F040037090100C8180020810901006109010066
:104F140070B5056900200E4600F060F8044630B113
:104F240002461549154807F0D2FD204670BDA86B0E
:104F3400FBF7B2FE044628B110F1780F02D01049F5
:104F44000246EFE7A86B05F10C02291DFBF7E4FE0E
:104F5400044610B10B490246E4E74FF480320023C3
:104F640005F1280002F00CFD044610B10649024682
:104F7400D8E72E60D9E700BFC309010000F10000A3
:104F8400E8090100180A01003C0A010038B5056966
:104F9400281DFBF7E3FE044630B102460B490C48DA
:104FA40007F095FD204638BDA86BFBF795FE044637
:104FB40010B108490246F2E707F08EFD044610B12D
:104FC40005490246EBE72860ECE700BF5C0A0100F4
:104FD40000F10000870A0100AB0A0100102208B5A5
:104FE400034B0120C3F84024FEF7FCF8002008BD61
:104FF40000300050084B70B5C31A0D4607499B108A
:10500400044659434022064807F075FD2B460146E5
:105014002046BDE870401847E0180020B76DDBB6A5
:1050240040ED0000402373B50B4C0093041B0B466A
:105034000D460A49A41061430646094A094807F087
:1050440086FD014628B130462B4602B0BDE87040CB
:10505400184702B070BD00BFE0180020B76DDBB682
:10506400BFCB000040ED00002DE9F84300220121F0
:1050740007460520FDF79CFB114801F075F904462D
:10508400C0B901F0A5F925464FF01C094FF00C08F2
:105094003E690C4909FB056006F058FF031E0CDB52
:1050A400012308FB05661D44042DB367F0D1204697
:1050B400BDE8F8836FF00404F9E71C46F7E700BF86
:1050C400F5510000A4F400001FB5002201236C4632
:1050D400CDE902236B46074ACDE9004407F066FD9B
:1050E40028B94FF480420023684602F049FC04B01A
:1050F40010BD00BFE9CB000010B5EFF311842023ED
:1051040083F31288BFF36F8F074A136823F00201F9
:10511400DB07116002D4012007F02EFF84F311880D
:10512400BFF36F8F10BD00BF801900200C22104BFD
:10513400014602FB0033002030B4D3E91C52186747
:10514400EFF31180202484F31288BFF36F8F9C6FD8
:1051540004F0C00444F002049C6780F31188BFF398
:105164006F8F1DB12B4630BC0248184730BC7047C6
:10517400E018002040ED000010B4EFF3118020226D
:1051840082F31288BFF36F8F17490B6843F0020450
:1051940013F001030C601AD04FF05023D3F80C1411
:1051A400D3F80C3413F0010311D0EFF3118182F31F
:1051B4001288BFF36F8F0D4A936F03F0C00343F05F
:1051C4000203936781F31188BFF36F8F012380F388
:1051D4001188BFF36F8F1BB1002010BCFFF7A6BF6F
:1051E400012010BC07F0B9BE80190020E01800208F
:1051F400092813D8DFE800F0051012121212121257
:105204000E0C074B986F10F0070007D1FFF78EBF05
:105214000220FBE70320F9E70120F7E7704700BF0E
:10522400E01800202DE9F041012280463749D1E8F9
:10523400EF3FC1E8E02F0028F9D133B934493548AC
:105244004B60CB608A6006F094FE08F1FF33012BBB
:105254004FD8B8F1010F07D14FF05023D3F81C34C5
:1052640003F00303022B44D009F003FA054658B1B6
:10527400EFF31186202383F31288BFF36F8F012588
:105284004FF05024244F22E0244B1B78002BEFD006
:105294004FF0502302220646C3F80823F0E755B323
:1052A400304607F062FAD4F81835DBB2012B0ED180
:1052B400D4F804215AB10022C4F80421D4F80421FA
:1052C4000222C4F818252022C7F88021A360D4F84C
:1052D4001824D4F81834D203E1D503F00303022BC5
:1052E40002D0B8F1010FDAD155B186F31188BFF3BA
:1052F4006F8FBDE8F0810021212009F07DFAD2E70B
:105304004FF050230222C3F80423F2E7DC180020F4
:10531400CC180020FC18002000E100E0D523002078
:1053240008B5074808F05BFF38B10648FDF794FD5F
:105334000448FBF79DFB002008BD6FF01200FBE75B
:10534400CCED00004D5300000A2838B50446074D43
:1053540004D1AB680D2128465B689847AB680348C5
:105364005B68E1B29847204638BD00BFCCED000031
:105374002DE9F04340F206364768D00648BF4FF0A7
:10538400030C3B7C02EA060658BFC2F3401C87B0FC
:1053940001F01F05B6F5837F144645EA43158DF8E1
:1053A40003C043D00DD8062E16D005D8A6B1022EC0
:1053B4003ED06FF0150036E0B6F5807FF9D10126B6
:1053C4000AE040F20222964234D0B6F5407F33D050
:1053D400B6F5007FEDD1022622032FD501237A688A
:1053E4008B409360B86890BB05F01F036D092CD007
:1053F400012D75D13C4A02EB8302C4F30043D2F879
:10540400001283F00103C4F3404444EA430421F44A
:10541400706144EA8C0421F00F0144EA06230B4333
:10542400C2F80032002007B0BDE8F0830726D3E7B6
:105434000426D1E70526CFE70326CDE7630341BF62
:1054440001237A688B40D360CCE7284AD3E7294606
:105454000DF1020208F04FF814F4403F80460CD1DD
:105464002946B86808F060F8B8F1000FDAD19DF861
:105474000210B86801F0C4F9D4E74FF0000901AB99
:10548400CDE90199CDE90439CDF80C902946B868E5
:1054940003AA07F005FF4845C4DB14F4003314D015
:1054A4009DF80330C4F3004484F001048DF80E30F9
:1054B4008DF80C608DF80D404B462946B86803AA58
:1054C40007F0A1FF0028CFDAACE7CDE904330DF1F2
:1054D400030303932946B86803AA07F0E1FEF1E742
:1054E400803350F82330FFDE002884500025845098
:1054F4004209034670B502D0012A17D070BD0D4E83
:10550400326951680029F9D0012503F01F030C68A2
:105514009D400029F2D08A682A4002D030464B6868
:1055240098472CB1236821461C46F2E7024EE7E770
:105534002346F8E778ED00005CED000038B54568D7
:10554400A86890B107F0EAFF014670B9A86801F0B5
:1055540025F9044658B902460649A86807F0C8FF69
:10556400224605210D20FDF723F9002038BD6FF0F8
:105574000400FBE7F5540000F0B544681646A06843
:10558400227C01F01F0587B045EA421500286CD043
:10559400B6F5001F04D1294608F018F8002055E09C
:1055A4006268607CB6F5800F50624FF0000001AA7B
:1055B4000190506037D1B3F1007F14BF0523042359
:1055C4008DF804300023CDE904230393E3680DF13F
:1055D400030723FA01F111F0010139D1B6F1A07FDB
:1055E40036D105F01F036A0903F1800326D0012A8E
:1055F4003ED1214A52F82330DB0729D43A462946C2
:10560400A06807F078FF16301AD002972946A068E0
:1056140003AA07F045FE002818DB01222946A068EA
:1056240007F084FFBAE7B3F1C06F05D0B3F1007F90
:1056340014BF01230223C3E70323C1E70F4AD9E7B9
:105644003946A06801F0E6F80028DEDA07B0F0BDBC
:105654003A462946A06807F04EFF0028D6D19DF8A7
:105664000310A06801F0CCF8D0E76FF08500EDE7F7
:1056740051F82330FFDE00BF0028845000258450F9
:1056840010B504460269A2B02049C2F88000002087
:1056940001F0B4F9002201212A20FDF789F8646899
:1056A4008422002101A809F03AFA6368B3F5803F27
:1056B40004D30221164A174806F049FF2368B3F5BC
:1056C400803F04D30221144A124806F040FF00230D
:1056D4000120219301AA61680432D940C90744BF5B
:1056E40000FA03F142F8041C2168D940C90748BFF5
:1056F40000FA03F103F1010348BFD163102BEAD18F
:1057040001A801F08FF9002022B010BDF957000064
:105714007D0B010058F10000A90B010038B50F29D9
:105724000C4605693CD843681B68CB40DB0737D57A
:10573400D5F88430CB4003F001031AB9EBB96FF00C
:1057440077002CE0002BFAD155F8213023B902213F
:10575400154A164806F0FBFED5F8843013B92A2002
:10576400FCF7F6FF0122D5F88430A2401343C5F8B4
:105774008430E0B201F076F90AE0C8B201F07AF9B7
:105784000122D5F88430A24023EA0203C5F884300C
:10579400D5F8843013B92A20FCF7E8FF002038BD7F
:1057A4006FF01500FBE700BFD50B010058F10000B6
:1057B40038B505460C4622B102210C4A0C4806F0C5
:1057C400C6FE0F2C0ED86B685B68E340DB0709D577
:1057D40001230020A400E4B204F1A04404F5283419
:1057E400236038BD6FF01500FBE700BF050C010016
:1057F40058F1000070B50F2804460D46D1F88060BA
:1058040004D873681B68C340DA0704D402210E4A23
:105814000E4806F09CFED5F88430E340DB0704D440
:1058240002210B4A094806F092FE05EB840255F862
:1058340024503DB121463046AC46BDE870400023BB
:10584400126C604770BD00BF200C010058F10000CD
:105854003C0C0100036803F01F025B09026004D0E2
:10586400012B034818BF002070470248704700BF4F
:1058740000288450002584502DE9F74F154607462B
:105884004FF0010800EB8101B94203D1002003B0BD
:10589400BDE8F08F3B68C3F3C322082AC3F30804AE
:1058A40000F2B4805B48865C40F2FF12944208BF69
:1058B4004FF0FF34B3F10C5F4FEA136215D2222A82
:1058C40015D8DFE802F017262B3A2E353A141414B3
:1058D40014404C1414141414141414144F86898C86
:1058E4001414148F94979A9DA0004E2A28D06FF018
:1058F4008500CCE7C5F80C45621C68D001A801946A
:10590400FFF7A8FF019B4FF0010908FA03F3836036
:105914003BE0C5F814454FF000091BE0C5F8084505
:10592400EAE74FF00009C5F80845601C25D14EE0B0
:105934004FF00109C5F80C45F7E7C5F81045EAE74B
:10594400C5F81445D8E7C5F80845002EE3D14FF053
:1059540000090626631C3AD04FF0000A17E0C5F888
:105964000C45F2E7C5F860457B88621C03F001032F
:105974002DD0002BC2D14FF0010901A80194FFF7EB
:1059840069FF019B08FA03F3C3604FF0010AD7F8DB
:1059940000B001A81BF4004F1CBF4FF001094FF0E9
:1059A400000A0194FFF756FF019B1B4C00EB830098
:1059B400D0F80022CBF3412B330243EA8B0343EAB2
:1059C4000A031440234343EA4903C0F8003204376E
:1059D4005AE7C5F86445C7E7C5F86845C4E7C5F89C
:1059E4006C45C1E7C5F824454FF00109B2E7C5F895
:1059F400284581E7C5F83045F6E7C5F83445F3E7AF
:105A0400C5F83845F0E7C5F83C4575E76FF0150073
:105A14003DE700BF6E0F0100F0F0FCFF2DE9F041FF
:105A240004460D46476808F024FE88B14FF020086C
:105A3400EFF31186314688F31288BFF36F8F6068E5
:105A440007F098F950BB86F31188BFF36F8FEFE727
:105A54001F4B1B78002BE9D04FF0200864266068A8
:105A640007F088F970B9012007F023FA013EF6D156
:105A74000021212008F0C0FEF0E786F31188BFF36F
:105A84006F8FF5E7EFF31186314688F31288BFF381
:105A94006F8F606807F06EF90028EED0FB69002074
:105AA4001D706368FA691B68C3F844250122C3F8B2
:105AB4004825C3F82001D3F82041C3F85801D3F88E
:105AC40058019A6081F31188BFF36F8FBDE8F081AC
:105AD400D52300202DE9F0410546002201210820AC
