:1000000068210020FD0A000009430000E90A000001
:10001000E90A0000E90A0000E90A0000E90A000014
:10002000000000000000000000000000D50B0000F0
:10003000E90A000000000000750D0000E90A000058
:10004000F50D0000F50D0000F50D0000F50D0000A8
:10005000F50D0000F50D0000F50D0000F50D000098
:10006000F50D0000F50D0000F50D0000F50D000088
:10007000F50D0000F50D0000F50D0000F50D000078
:10008000F50D0000F50D0000F50D0000F50D000068
:10009000F50D0000F50D0000F50D0000F50D000058
:1000A000F50D0000F50D0000F50D0000F50D000048
:1000B000F50D0000F50D0000F50D0000F50D000038
:1000C000F50D0000F50D0000F50D0000F50D000028
:1000D000F50D0000F50D0000F50D0000F50D000018
:1000E000F50D0000F50D0000F50D0000F50D000008
:1000F000F50D0000F50D0000F50D0000F50D0000F8
:10010000F50D0000F50D0000F50D0000F50D0000E7
:10011000F50D0000F50D0000F50D0000F50D0000D7
:10012000F50D0000F50D0000F50D0000F50D0000C7
:10013000F50D0000F50D0000F50D0000F50D0000B7
:10014000F50D0000F50D0000F50D0000F50D0000A7
:04015000F50D0000A9
:1001540008B5044803F0F4FF0021A42005F01FF8BB
:10016400F7E700BF8459000008B5044803F0E8FF2E
:100174000021A42005F013F8F7E700BF9C59000004
:10018400014B1B68184700BF00000020014B18609A
:10019400704700BF0000002030B5044685B00D460E
:1001A40010220021684605F094F802238DF80230ED
:1001B400044B2A4621466846019303F099FC05B096
:1001C40030BD00BF8501000080B505460E461746C8
:1001D400984603F0F7F8034600F01CFE0446DFF8E7
:1001E4001890424649F8003039463046A84754F83A
:1001F400090000F0A7FD00BF080000002DE9F0474A
:10020400058B0446280717460CD501290CBF45F079
:10021400100545F02005258387F31188BFF36F8F00
:10022400BDE8F087022905F0070540F094802046D8
:1002340003F093FF052864D801A353F820F000BF0E
:100244001D0200005B03000007030000C902000058
:10025400E3020000F502000001F007035A1F012A1F
:100264001FD8002221F00701062BD4F8008089B2A0
:10027400C4E9002209D1434603E0628B0132628360
:100284001B68002BF9D141F002012046218303F0C1
:1002940064FF4FF0000900286DD041F02001218354
:1002A40069E0042B0AD121F0070189B22046218399
:1002B40003F053FF10B141F0200121834FF00008F7
:1002C400C14658E02369D3F80090238B23F0070339
:1002D40043F006034FF00008238346464BE02369AE
:1002E400D3F80490238B23F0070343F00403F1E7CE
:1002F4002369D3F80890238B23F0070343F0050305
:10030400E8E74FF00008C146E7E7012243F008039D
:10031400238387F31188BFF36F8F002A3BD1B8F191
:10032400000F4AD1B9F1000F02D020462C49C8472A
:10033400EFF31187202383F31288BFF36F8F238B8E
:1003440023F008039BB22383D9063FD523F0100280
:10035400228303F007056669218B002EBFF67CAF6C
:1003640000239946D4F8008021F00701C4E9003342
:1003740041F001012183238B03F0070AAA4502D02F
:10038400A268002AC1D1B8F1000F02D1B9F1000F5F
:10039400DAD00022BAE7A1680029C0D00D6800298C
:1003A400BDD03346524620464F68B8471DB12B682E
:1003B40029461D46F3E72B46FAE7414633465246A3
:1003C4002046D8F8008003F0F4FEA8E79A067FF5EB
:1003D40023AF23F02002228303F0070527E700BFA1
:1003E400E3410000014B036000207047C857000040
:1003F40008B5044803F0A4FE034803F0A1FE00205E
:1004040008BD00BFC6590000FB590000014803F0B5
:1004140013BA00BFC857000038B5044618B90F4BCB
:100424000F485B6898476168B1F5683F10D0B1F533
:10043400680F0DD00B4DA9420AD011F468612068F1
:1004440007D00146084804F0E4FD002323606560FA
:1004540038BD142204F03DFFF9E700BFD8000020A6
:10046400285A00002C5F5CA9480A002008B560B334
:100474004368B3F5683F0ED0B3F5680F18D0144A3B
:10048400934220D000684FF0FF324FF0FF3302F068
:1004940035FC58B115E001220368D3E8EF1F0029A9
:1004A40003D1C3E8E02F0028F7D10AD1002008BD0A
:1004B4000368084A1B7803F5807352F82330002B35
:1004C400F4D00548F3E70548F1E76FF4E040EEE7C0
:1004D4002C5F5CA900000350E98FFFFFEA8FFFFF48
:1004E40008B520B34368B3F5683F09D0B3F5680F86
:1004F40013D0114A93421DD0006802F071FC14E03D
:1005040000220368D3E8EF1F012903D1C3E8E02FD9
:100514000028F7D109D0094808BD00210368084A1A
:100524001B7803F5807342F823100020F4E76FF47E
:10053400E040F1E70348EFE72C5F5CA9E98FFFFF98
:1005440000000350EA8FFFFF10B5044618B91D4B95
:100554001D485B6898476368B3F5683F2FD0B3F5CF
:10056400680F2CD0194A934219D1236803BB4FF06A
:10057400FF324FF0FF332146154802F091FB08B9D2
:1005840023681BB90F4B13485B689847142200215A
:10059400206804F09EFE4FF46863636008E0B3F5DE
:1005A400680F0DD83A2B03D040F6BA629342DED1DD
:1005B400206804F079FD636843F03A03636010BD7A
:1005C400054AF3E7D8000020285A00002C5F5CA9F4
:1005D400480A00204E5A00003A00003A08B506497D
:1005E40040231422054804F007FDBDE808400449EF
:1005F400044803F093B900BF48050020480A0020CE
:10060400D0570000E457000008B50348034A00210E
:10061400121A03F06FFE08BDB0010020280C002060
:10062400074808B5074A0849121A03F065FEBDE8F1
:1006340008400648064A0749121A03F05DBE00BF87
:1006440000000020B0010020285F0000000000200E
:1006540000000020285F000038B505460C4699B11B
:10066400D1E901230F48096803F06AFDD4E90423A2
:10067400E1680D4803F064FDE1690C4803F060FD96
:10068400A1690B4803F05CFD012D05D1EFF3058151
:100694000848103903F054FD21462846BDE8384087
:1006A40002F0B8B97B5A0000AB5A0000DB5A0000D4
:1006B400EB5A00001A5B000030BFFFF7FDBF00BF1C
:1006C4002DE9F04105460B4EDFF82C80324606EB4F
:1006D4000807CC1B2046094904F0EEFDA019424648
:1006E4000021083C04F0F5FDC5F8A44007F108001A
:1006F400BDE8F0810000000004000000B8570000CD
:1007040010B5204C204803F01BFDA36A990137D58E
:100714001E4803F015FD1E20A36ADA0103D51C4808
:1007240003F00EFD1F20174CA36ADB0203D5194802
:1007340003F006FD0220A36A1C0303D5164803F048
:10074400FFFC21200F4CA36A590303D5134803F07F
:10075400F7FC2220A36A9A0303D5114803F0F0FCA6
:100764002320084CA36ADB0303D50E4803F0E8FCFE
:100774002420A36A6FEA03436FEA1343A36210BD04
:100784001D20C9E700ED00E02E5B0000475B000080
:100794005B5B0000765B0000A15B0000C05B0000B7
:1007A400E65B0000015C000070B5244C064624485A
:1007B4000D4603F0C5FCA36AD90435D5214803F0DE
:1007C400BFFC1720A36A1A0503D51F4803F0B8FC21
:1007D40018201A4CA36A9B050FD51C4803F0B0FCE3
:1007E400A16BA36A180407D5194803F0A9FC1EB12C
:1007F400A36A23F40043A3621920104CA36A590589
:1008040003D5144803F09CFC1A20A36ADA050DD51D
:10081400114803F095FC1B20084A936A43F47F4374
:10082400936200232B7070BD1620CBE7A36A9B0450
:10083400F2D50A4803F084FC1C20EDE700ED00E04B
:100844002D5C0000445C0000565C00006A5C000003
:10085400845C00009A5C0000B65C0000CF5C000081
:1008640070B5264C064626480D4603F069FCA36A7B
:10087400D80640D5234803F063FC1120A36A190766
:1008840003D5214803F05CFC12201C4CA36A9A0790
:100894000FD51E4803F054FC616BA36A1B0607D5F1
:1008A4001B4803F04DFC1EB1A36A23F08003A3622E
:1008B4001320124CA36ADE0703D5164803F040FC4C
:1008C4001420A36A9C0603D5134803F039FC1520B1
:1008D4000A4B9A6AD10658BF9A6A9A6A920642BF2C
:1008E4005A6A22F400525A629A6A42F0FF029A62E9
:1008F40000232B7070BD1020C0E700BF00ED00E0A6
:10090400FF5C0000165D0000565C00004A5D0000BC
:10091400635D00007A5D0000CF5C00002DE9F041CA
:100924005D4B04465F6800258AB0C7F3080685F36B
:100934001188BFF36F8F02F07F43B3F17F4F06D16D
:1009440002F00C03082B13D1544803F0F9FB0025E3
:100954002C464FF00008F31E8DF80780092B00F297
:100964008B80DFE803F00A7F837B89898989898703
:1009740010074CBF0C460125EBE74948464E03F0EF
:10098400DFFB8DF80780F36A9A0704D5454803F026
:10099400D7FB00232AE0F36A002B01DA4248F6E78A
:1009A400F36A5B00F5D5414803F0CAFB7369A26999
:1009B40043F480737361BFF34F8FBFF36F8F32F8CB
:1009C400023C726922F480727261BFF34F8FBFF3ED
:1009D4006F8F03F47F42B2F55F4F27D1DBB2022B56
:1009E40024D12168324803F0ABFB23689DF807202B
:1009F400CAB902AE04F1200732462068616808349F
:100A040003C2BC421646F7D1099A002D40D0C2F366
:100A1400080121B96FEA52226FEA4222099218466C
:100A240002A9FFF719FE0AB0BDE8F0811A4B9A6AD1
:100A3400D2B22AB101200DF10701FFF711FF0FE037
:100A44009A6A12F47F4F05D001200DF10701FFF7D8
:100A5400ABFE05E09B6AB3F5803F9AD3FFF750FEE7
:100A64000346C3E700200DF10701E6E700200DF17E
:100A74000701ECE70F488AE70F4B17F4F87F0F499B
:100A84000F4808BF1946A6F1100203F059FB80E78E
:100A94006FF30802C2E700BF00ED00E0C85D00008C
:100AA400F45D00000C5E00002E5E00003D5E000060
:100AB4005D5E00007A5E00009A5D0000AF5D00009C
:100AC4009F5E0000064B5A6942F010025A615A694F
:100AD40042F480625A615A6922F008025A617047EE
:100AE40000ED00E0EFF30880EFF3098101B57246F1
:100AF400FFF714FF01BD00BF002080F31488BFF38B
:100B04006F8F002080F30A8880F30B88104880F3ED
:100B1400088800200F49087001F026FB00200E49C8
:100B24000860BFF34F8F00F02DF8202080F3118868
:100B34000A484FF40061401880F30988EFF31480E9
:100B44000221084380F31488BFF36F8F00F092F8FA
:100B540068210020250C002094ED00E028140020DA
:100B6400002318460649D1F89020C2F30722934285
:100B740000DB7047C1F89830C1F8A0000133F6E7F4
:100B840000ED00E010B572B6002484F31388FFF77B
:100B9400E7FF23464FF0FF300C4A03F120010133F5
:100BA400102B42F82100F8D100234FF0FF30074A00
:100BB40003F160010133102B42F82100F8D162B631
:100BC400BFF34F8FBFF36F8F10BD00BF00E100E094
:100BD4001EF0040F0CBFEFF30880EFF30980816966
:100BE40011F8021C0229FFD001B5724603F086FBFE
:100BF40001BD00BF40B2002807DB01234109034ABD
:100C040000F01F00834042F82130704700E100E00B
:100C1400054B420953F82220012300F01F0003FA78
:100C240000F01040704700BF00E100E040B200282F
:100C340001F10101ACBF00F16040064B4FEA4111E4
:100C4400C9B2ABBF00F5614000F00F0080F800139B
:100C54001954704714ED00E0044B054A23F07F0358
:100C64009360BFF34F8FBFF36F8F70470000000096
:100C740000ED00E008B5FFF7EFFF074AD2F888302F
:100C840023F47003C2F88830FFF7BEFCFFF7C8FCFA
:100C940000F0A2F801F088FF00ED00E042F8203CEB
:100CA400009B0B4942F81C3C019B21F0010142F8D6
:100CB400183C029B42F8081C42F8143C4FF0807325
:100CC40042F8043C0023203A0265C0F8A83070477B
:100CD400CD01000000B50E4B15469860D0F8A42055
:100CE4000C4B0E461A60D0F8943083F30B882C46D4
:100CF40086F309880020044B9847204600210022EF
:100D04000023024C204700002F430000CD010000C7
:100D1400D80B0020640A00201022014B1A6170478E
:100D240000ED00E0054B5A699B689A421FBF044AD4
:100D3400536843F080535360704700BFD80B0020C2
:100D440000ED00E0084B9B6883420BD1EFF3058371
:100D540043B1064B5A6842F080525A605A6A22F4F0
:100D640000425A6202F034BBD80B002000ED00E0D0
:100D740016498A684FF030001044EFF3098C80E87C
:100D8400F01F202080F31288BFF36F8F104F4FF0B5
:100D940000664A698A603E60D2F8A4000D4C206067
:100DA400D2F8A8000023C2F8A83080F3118802F119
:100DB400300090E8F01F8CF3098802F1000004B5BC
:100DC40003F0ABFABDE8044070470000D80B0020E4
:100DD40004ED00E0640A0020002320210348C21827
:100DE4000133452B82F80013F9D1704700E100E08C
:100DF40008B5EFF30583064A103B02EBC30152F832
:100E0400330049688847BDE80840FFF78BBF00BF3F
:100E1400A05400000148006870470000640A0020E4
:100E24001FB50121094B0A4A0A4800F0F7F80023CC
:100E3400064A0393084B0121019301A8D31A029394
:100E440000F0F6F805B05DF804FB00BF00000720D1
:100E540000000020F4570000B00100200A7A0B685B
:100E640010B562F304031C46CB68520923F01F0338
:100E740043EA4203044A43F00103C2F89800C2F86B
:100E84009C40C2F8A03010BD00ED00E010B5074B47
:100E9400D3F89030C3F30723013B984202D8FFF7FD
:100EA400DDFF10BD6FF01500FBE700BF00ED00E0B3
:100EB4002DE9F04F0F46144606464FF000084B4DFF
:100EC40085B0B84580F28E80D6F80490B9F1000F51
:100ED40035D0B9F11F0F40F2838019F01F0F7FD175
:100EE400D6F800A01AF01F0F7AD1504603F059FA31
:100EF400834609EB0A00013803F053FA83456FD1A6
:100F04001BF1160F6CD05C456ADDC5F898B0D5F8B6
:100F14009C10C5F898B0D5F8A03021F01F0143F01B
:100F24001F0AD6E900321A44994202F1FF391BD153
:100F3400CA4508D131465FFA8BF003F03BFA08F159
:100F440001080C36BDE73146C5F898B0D5F89C3099
:100F5400E0B263F30402C5F89C2003F02BFA10F10D
:100F6400160F3DD0441CEAE7C5F898B0D5F8A02088
:100F7400013B23F01F0302F01F021343CA4531460D
:100F8400E0B2C5F8A030E8D003F014FA10F1160F5F
:100F940026D0C5F898B0D5F89C209DF808300AF101
:100FA400FF3A62F304038DF80830D5F8A0309DF8B9
:100FB40008205B0863F347128DF80820D6E9003255
:100FC4001344009323F01F035344A3EB090301309C
:100FD40023F01F036946C0B20393FFF757FFBEE730
:100FE4006FF01504204605B0BDE8F08F00ED00E079
:100FF4000522044BC3F89420BFF34F8FBFF36F8FC8
:10100400704700BF00ED00E0BFF35F8F0022024B8A
:10101400C3F89420704700BF00ED00E010B5034C06
:101024002278FFF745FF207010BD00BF200C002080
:101034002DE9F74F294D8A4606464FF00008AB4686
:10104400274FD0451BDAD6F80490B9F1000F3FD0F2
:1010540031680846019103F0A4F90199044609EBAB
:101064000100013803F09DF984424FF014021D4B36
:1010740008D002FB08F36FF015024BF8032003B00D
:10108400BDE8F08F14F1160F2C60F8D01978A14246
:10109400F5DD02FB08B0C7F89840C7F89840D7F8C8
:1010A4009C4000F10801007B64F304000871D7F848
:1010B400A0000C79400860F347140C71D7F89C1019
:1010C40021F01F016960D7F8A01021F01F012961E8
:1010D40008F1010814350C36B3E700BF680A002094
:1010E40000ED00E0200C0020F0B55349534DD1F839
:1010F40090302C68C3F307239C4287B000F2998098
:101104000020FFF781FF4E4BC1F8C030844216D156
:101114004C4D01A82C70FFF765F9002607464A4C90
:10112400B74213D100202B784349D1F89020C2F361
:101134000722934277DBFFF75BFF002046E06968F4
:1011440001EB0011FFF78AFE0130DFE7019930015E
:1011540001EB0613DA682240B2F1807F52D00AD83C
:10116400B2F5001F34D0B2F5800F3ED0B2F5801F27
:1011740012D00136D4E7B2F1006F43D0B2F1805FF0
:10118400F7D15A689B680958013B22F01F000344B9
:1011940023F01F03012032E05A689B680958013B81
:1011A40022F01F0003440120844623F01F0340EA79
:1011B4004C10CDE902218DF8100002A9287805937E
:1011C400FFF764FE00282ADA6FF0150007B0F0BDBF
:1011D4005A689B680958013B22F01F0003444FF0F2
:1011E400020C012023F01F03E1E75A689B680958A9
:1011F400013B22F01F000344062023F01F034FF09D
:10120400000CD4E75A689B680958013B22F01F0080
:1012140003444FF0030C012023F01F03C7E72B788E
:1012240001332B70A5E7C1F89830C1F8A000013351
:101234007BE74FF0FF30C9E700ED00E00058000005
:10124400AAFF4400200C00200000F0FF08B5024B68
:101254001B689847002008BD7C0A0020034B044A01
:101264001860937843F00203937070477C0A00205F
:101274002400002008B50649064821F00701C1F101
:10128400005202F5E02202F007FF002008BD00BF73
:101294006F210020800A0020052370B5144D154EDF
:1012A4002C780134B4FBF3F303EB8303E41A03F067
:1012B400A1FA114A137823B156F82430C01A07282A
:1012C40014D94FF05023D3F8141141B10021C3F8BD
:1012D4001411D3F814312C700CB9012313702C7829
:1012E40003F088FA46F82400012070BD0020FCE7D2
:1012F400220C00208C0A0020210C0020054B03EB5B
:101304008000D0F8003223F0E04343F04053C0F8AB
:101314000032704700258450012208B50B4B0C495C
:10132400C3F8002502230020C1F8D036FFF7E6FFFA
:101334001046FFF7E3FFC1F80427C1F80429C1F8F8
:10134400002BBDE8084000F065B800BF0010005055
:101354000040005007B500220D4B0E49C3F8A821E8
:10136400C3F8AC204FF48062C3F8B8254FF4006290
:101374000948C3F83C250DF1070203F08FFA002851
:1013840003DB9DF8070000F0DBFF03B05DF804FB0E
:1013940000A002502CA0025028A1025048B1054BD5
:1013A400054A1B68B3FBF2F35843044B43F00103B3
:1013B40018477047C400002040420F00C057000087
:1013C40070B50025104E1149114C000716F8013B69
:1013D40003F01F025B090FD0012B0FD1234603EB4F
:1013E4008203D3F80022013522F0E0420243042DA7
:1013F400C3F80022EAD170BD0B46F0E70023803227
:1014040053F82230FFDE00BF085F0000002584503F
:10141400002884500149024802F0EEBE285800001A
:10142400A00A002008B54FF0FF33044A13603F239D
:101434001046536000F070FF002008BDBC0A002075
:10144400084B70B5C31A0D4607499B10044659430F
:101454004022064803F019F82B4601462046BDE811
:1014640070401847D80A0020B76DDBB6305400002E
:10147400402373B50B4C0093041B0B460D460A49DD
:10148400A41061430646094A094803F029F80146B5
:1014940028B130462B4602B0BDE87040184702B070
:1014A40070BD00BFD80A0020B76DDBB653450000FD
:1014B400305400002DE9F84300220121074605209D
:1014C400FFF7B4FB114800F05BFF0446C0B900F01D
:1014D4008BFF25464FF01C094FF00C083E690C4960
:1014E40009FB056002F088FE031E0CDB012308FBE8
:1014F40005661D44042DB367F0D12046BDE8F8838A
:101504006FF00404F9E71C46F7E700BF411600003A
:10151400345800001FB5002201236C46CDE9022394
:101524006B46074ACDE9004403F00AF828B94FF4A2
:1015340080420023684601F0D7FC04B010BD00BF10
:101544007D45000010B5EFF31184202383F3128846
:10155400BFF36F8F074A136823F00201DB071160A2
:1015640002D4012003F0C8F984F31188BFF36F8F0C
:1015740010BD00BF780B00200C22104B014602FB6B
:101584000033002030B4D3E91C521867EFF3118004
:10159400202484F31288BFF36F8F9C6F04F0C0047F
:1015A40044F002049C6780F31188BFF36F8F1DB170
:1015B4002B4630BC0248184730BC7047D80A00207C
:1015C4003054000010B4EFF31180202282F312880B
:1015D400BFF36F8F17490B6843F0020413F0010344
:1015E4000C601AD04FF05023D3F80C14D3F80C34F9
:1015F40013F0010311D0EFF3118182F31288BFF3CA
:101604006F8F0D4A936F03F0C00343F00203936797
:1016140081F31188BFF36F8F012380F31188BFF327
:101624006F8F1BB1002010BCFFF7A6BF012010BCB8
:1016340003F053B9780B0020D80A0020092813D8E6
:10164400DFE800F005101212121212120E0C074BF2
:10165400986F10F0070007D1FFF78EBF0220FBE759
:101664000320F9E70120F7E7704700BFD80A0020FC
:101674002DE9F041012280463749D1E8EF3FC1E826
:10168400E02F0028F9D133B9344935484B60CB6099
:101694008A6002F0C4FD08F1FF33012B4FD8B8F182
:1016A400010F07D14FF05023D3F81C3403F0030388
:1016B400022B44D003F0FFFC054658B1EFF311862A
:1016C400202383F31288BFF36F8F01254FF050243A
:1016D400244F22E0244B1B78002BEFD04FF05023F3
:1016E40002220646C3F80823F0E755B3304602F059
:1016F4003CFED4F81835DBB2012B0ED1D4F804210A
:101704005AB10022C4F80421D4F804210222C4F8F6
:1017140018252022C7F88021A360D4F81824D4F80F
:101724001834D203E1D503F00303022B02D0B8F13D
:10173400010FDAD155B186F31188BFF36F8FBDE87D
:10174400F0810021212003F02AFDD2E74FF050233D
:101754000222C3F80423F2E7D40A0020C40A0020BA
:10176400F40A002000E100E0250C002008B5074839
:1017740003F00AFC38B10648FFF770FD0448FEF791
:1017840005FD002008BD6FF01200FBE78454000043
:10179400991700000A2838B50446074D04D1AB68F0
:1017A4000D2128465B689847AB6803485B68E1B243
:1017B4009847204638BD00BF845400002DE9F0430B
:1017C40040F206364768D00648BF4FF0030C3B7C16
:1017D40002EA060658BFC2F3401C87B001F01F0599
:1017E400B6F5837F144645EA43158DF803C043D00C
:1017F4000DD8062E16D005D8A6B1022E3ED06FF015
:10180400150036E0B6F5807FF9D101260AE040F2F2
:101814000222964234D0B6F5407F33D0B6F5007F2D
:10182400EDD1022622032FD501237A688B409360E1
:10183400B86890BB05F01F036D092CD0012D75D13C
:101844003C4A02EB8302C4F30043D2F8001283F053
:101854000103C4F3404444EA430421F4706144EABC
:101864008C0421F00F0144EA06230B43C2F8003232
:10187400002007B0BDE8F0830726D3E70426D1E7AC
:101884000526CFE70326CDE7630341BF01237A682A
:101894008B40D360CCE7284AD3E729460DF10202F6
:1018A40003F0E9FA14F4403F80460CD12946B868A5
:1018B40003F0FAFAB8F1000FDAD19DF80210B86813
:1018C40000F0AAFFD4E74FF0000901ABCDE901997C
:1018D400CDE90439CDF80C902946B86803AA03F081
:1018E4009FF94845C4DB14F4003314D09DF8033049
:1018F400C4F3004484F001048DF80E308DF80C60BC
:101904008DF80D404B462946B86803AA03F03BFA0C
:101914000028CFDAACE7CDE904330DF103030393D8
:101924002946B86803AA03F07BF9F1E7803350F83D
:101934002330FFDE002884500025845042090346EA
:1019440070B502D0012A17D070BD0D4E32695168AE
:101954000029F9D0012503F01F030C689D400029DC
:10196400F2D08A682A4002D030464B6898472CB19E
:10197400236821461C46F2E7024EE7E72346F8E7D0
:10198400685400004C54000038B54568A86890B10C
:1019940003F084FA014670B9A86800F00BFF04460E
:1019A40058B902460649A86803F062FA224605219E
:1019B4000D20FFF73BF9002038BD6FF00400FBE772
:1019C40041190000F0B544681646A068227C01F075
:1019D4001F0587B045EA421500286CD0B6F5001FF4
:1019E40004D1294603F0B2FA002055E06268607C15
:1019F400B6F5800F50624FF0000001AA01905060CC
:101A040037D1B3F1007F14BF052304238DF80430CC
:101A14000023CDE904230393E3680DF1030723FABC
:101A240001F111F0010139D1B6F1A07F36D105F0F1
:101A34001F036A0903F1800326D0012A3ED1214AFB
:101A440052F82330DB0729D43A462946A06803F02C
:101A540012FA16301AD002972946A06803AA03F096
:101A6400DFF8002818DB01222946A06803F01EFADB
:101A7400BAE7B3F1C06F05D0B3F1007F14BF0123FF
:101A84000223C3E70323C1E70F4AD9E73946A06815
:101A940000F0CCFE0028DEDA07B0F0BD3A46294655
:101AA400A06803F0E8F90028D6D19DF80310A068D7
:101AB40000F0B2FED0E76FF08500EDE751F8233077
:101AC400FFDE00BF0028845000258450036803F023
:101AD4001F025B09026004D0012B034818BF0020D9
:101AE40070470248704700BF002884500025845086
:101AF4002DE9F74F154607464FF0010800EB810129
:101B0400B94203D1002003B0BDE8F08F3B68C3F3B2
:101B1400C322082AC3F3080400F2B4805B48865C3D
:101B240040F2FF12944208BF4FF0FF34B3F10C5F50
:101B34004FEA136215D2222A15D8DFE802F01726DD
:101B44002B3A2E353A14141414404C14141414144F
:101B5400141414144F86898C1414148F94979A9D1A
:101B6400A0004E2A28D06FF08500CCE7C5F80C45BC
:101B7400621C68D001A80194FFF7A8FF019B4FF0F5
:101B8400010908FA03F383603BE0C5F814454FF0FC
:101B940000091BE0C5F80845EAE74FF00009C5F85D
:101BA4000845601C25D14EE04FF00109C5F80C45ED
:101BB400F7E7C5F81045EAE7C5F81445D8E7C5F8CE
:101BC4000845002EE3D14FF000090626631C3AD0E5
:101BD4004FF0000A17E0C5F80C45F2E7C5F8604578
:101BE4007B88621C03F001032DD0002BC2D14FF07F
:101BF400010901A80194FFF769FF019B08FA03F3A7
:101C0400C3604FF0010AD7F800B001A81BF4004FDD
:101C14001CBF4FF001094FF0000A0194FFF756FF73
:101C2400019B1B4C00EB8300D0F80022CBF3412B2B
:101C3400330243EA8B0343EA0A031440234343EA8F
:101C44004903C0F8003204375AE7C5F86445C7E7CA
:101C5400C5F86845C4E7C5F86C45C1E7C5F824452F
:101C64004FF00109B2E7C5F8284581E7C5F83045CA
:101C7400F6E7C5F83445F3E7C5F83845F0E7C5F8A5
:101C84003C4575E76FF015003DE700BF0C5F0000B1
:101C9400F0F0FCFF2DE9F04104460D46476803F0DF
:101CA4000AFA88B14FF02008EFF31186314688F321
:101CB4001288BFF36F8F606802F0E1FC50BB86F3BB
:101CC4001188BFF36F8FEFE71F4B1B78002BE9D010
:101CD4004FF020086426606802F0D1FC70B901203E
:101CE40002F0A7FD013EF6D10021212003F057FAAE
:101CF400F0E786F31188BFF36F8FF5E7EFF31186F2
:101D0400314688F31288BFF36F8F606802F0B7FC26
:101D14000028EED0FB6900201D706368FA691B6817
:101D2400C3F844250122C3F84825C3F82001D3F899
:101D34002041C3F85801D3F858019A6081F31188FF
:101D4400BFF36F8FBDE8F081250C00200123834091
:101D540070B5DC430C4AD2E8EF1F01EA0405C2E87F
:101D6400E65F002EF7D14FF4803282400748C0F876
:101D74000823BFF35F8FBFF36F8F03EA01000038BE
:101D840018BF012070BD00BFA40B002000500150FB
:101D940070B4124922F07F46D1E90034D01AC31836
:101DA40044F10004C1E90034A6F50013B3F5400F73
:101DB40009D20B4B1B681A0A1B069C19094B42F1EA
:101DC4000005C3E90045EFF31181202383F3128852
:101DD400BFF36F8F70BC01F06DBC00BF2003002007
:101DE400A80B002028030020D9B101230D4A834009
:101DF400D2E8EFCF4CEA030CC2E8E1CF0029F7D1D7
:101E04004FF48033084A8340C2F80433074BD3E8C5
:101E1400AF3FC340DB0742BF4FF40012044BC3F88B
:101E240000217047A40B002000500150A00B00209B
:101E340000E100E00D4B1868010A0006BFF35F8F54
:101E44000B4BD3F80435181841F10001B3F5801F8A
:101E54000AD2084BD3E90023904271EB030303D267
:101E640010F1807041F10001704700BFA80B002001
:101E740000500150280300202DE9F04F85B016468C
:101E84001F4604469DF840A0FFF760FF0190FFF74E
:101E9400D1FFB04271EB07035CD23B4B301A67EBC6
:101EA4000101984271F1000109D36FF01505204634
:101EB4000199FFF799FF284605B0BDE8F08F334B31
:101EC40003EB0413D3E902239F4208BF96424ED08A
:101ED4004FF480382E4908FA04F8204626F07F4B48
:101EE400C1F8488302F07AFC4FF00309584604F124
:101EF4005005AD00ADB205F1502504F5A87305F504
:101F040080350293029A20F07F4341F82230C1F8D1
:101F14004483D1F804351F4AC01A033820F07F40A7
:101F2400904224D9286868B1D1F80435A3EB0B009A
:101F340020F07F40B0F5000F039318D9204602F03B
:101F44004DFC039BBAF1000FAFD109EB030009F17B
:101F54000109D7E7BAF1000FA7D101230E4AA34024
:101F6400D2E8EF0F1843C2E8E10F0029F8D107497E
:101F74000E982301C8500F9B01EB04120025C2E9FF
:101F84000267536093E700BF010080001003002044
:101F940000500150FDFF7F00A00B00207FB50025FD
:101FA4004FF0FF304FF0FF31194C1A4B0226C4F8A2
:101FB4000833C4F84833184BC4F80855C3E9020180
:101FC4004FF480334FF40012C4F80433134B01214F
:101FD400C4F804631520C3F880212A46FEF726FEC0
:101FE4001520FEF707FE01230D4AA360236013604A
:101FF4000C4B0D4A009328460023CDE90155FFF709
:102004003BFF3046FFF734FB284604B070BD00BFE9
:102014000050015003000F001003002000E100E015
:10202400A40B0020951D0000FFFF7F002DE9F7435E
:102034002D4BD3F8042391070BD5D3F8042142B1D7
:102044000022C3F80421294AD3F804311368013368
:102054001360254CD4F80433DA033FD5244BD3E87A
:10206400EF2F22F00101C3E8E01F0028F7D1D307C6
:1020740002D4D4F840318BB30025C4F84051D4F8CD
:102084004031FFF7D7FEEFF31182202383F3128848
:10209400BFF36F8F174BD3E90267B042B94120D326
:1020A400D3E900984FF0FF304FF0FF311D60C3E9D2
:1020B40002014FF48033C4F84833C4F84051D4F8D3
:1020C400403182F31188BFF36F8FB9F1000F05D04F
:1020D40032463B460020CDF80080C84703B0BDE837
:1020E400F083A946EDE700BF00500150A80B002083
:1020F400A00B00201003002030B5431C124C85B007
:1021040005D08442A8BF0446012CB8BF0124FFF7C0
:1021140091FE0E4B0C4DD3E90013401AB0F5000F9D
:102124000FD22218AA4228BF2A4600205218084972
:10213400CDE90100009143F10003FFF79DFE05B0D6
:1021440030BD2A46F1E700BFFFFF7F0020030020D7
:10215400951D000008B5FFF76DFE024B1B68C01A01
:1021640008BD00BF2003002008B502F052FB58B19F
:10217400614BD3F8202A3AB90D21C3F8201A012162
:10218400C3F81C19C3F81C290022D30003F57F03EC
:10219400D3F80013013107D0D3F800130132D3F878
:1021A4000433202A0B60F0D102F033FB002840F006
:1021B4009A8002F02EFB40B1504B514AC3F83025AF
:1021C4004FF050230122C3F858254FF47F03D3F86E
:1021D4003021D3F83431072A06D1023B012B9EBFAC
:1021E4000022484BC3F84C2502F013FB50B14FF0CA
:1021F4005023D3F80024D10742BF0022C3F814218E
:10220400C3F818214FF47F03D3F83021D3F83431C5
:10221400072A09D14FF05023D3F80024D20744BF32
:102224006FF00102C3F8002402F0F3FA18B165223A
:10223400314BC3F80C274FF47F03D3F83021D3F884
:102244003431072A16D12F4BD3F82034002B11DA5E
:102254004FF050230322C3F8182501229A60D3F8C3
:102264000421002AFBD00022C3F804210122DA60F1
:10227400C3F818254FF47F03D3F83021D3F8343151
:10228400072A20D1023B022B1DD97E221A4B1B495F
:10229400C3F80C27C3F83C297F231B4AC2F8183122
:1022A4000023C1F8043EC1F8083E01F54821C1F8F5
:1022B4001031C2F82431C2F82C3102F5FF1202F5B4
:1022C4008052C2F8A032114AD2F88C3043F44063F1
:1022D400C2F88C300E4A0F4B1168C3F84415D2690A
:1022E400C3F84C2508BD2922034BC3F80C2703224D
:1022F400C3F83C275DE700BF004000500090035046
:102304004400EFBE002003500020005000ED00E028
:102314000080FF0000600050014B1860704700BF50
:10232400AC0B002010B5054B1446186802F083FA74
:102334000028A4BF2070002010BD00BFAC0B0020FB
:102344000123024A8340C2F80435704700700150EB
:10235400014B00201B681847B00B0020014B1B6881
:10236400184700BFB00B0020014B09201B68184719
:10237400B00B0020014B08201B681847B00B00204D
:1023840010B5144C237913BB01232371124B00287D
:10239400206018BF184600F037F8D0B923680F48FA
:1023A400002B08BF184600F0B9F890B923680C4810
:1023B400002B08BF184600F0F9F850B92368094803
:1023C400002B08BF1846BDE8104000F063B86FF05A
:1023D400770010BDB00B0020552300006D230000D2
:1023E400612300007923000008B5064B1B6843B144
:1023F4000520FEF70DFC20B9BDE808400520FEF7D6
:10240400F9BB08BDB00B0020074B0246187938B958
:102414001A6001221A714FF05023C3F81425704733
:102424006FF07700704700BFB80B00204FF05023C7
:102434000022C3F80021D3F80021012208491A60C0
:10244400096811B1C3F804237047D3F80021002AA6
:10245400FBD00022C3F80021D3F80031704700BF3D
:10246400B80B00204FF05023D3F80423D2070DD526
:10247400D3F8002152B10022C3F80021D3F800217F
:102484000122C3F80823024B1B681847704700BF9A
:10249400B80B0020054B0246187918B91A600122BE
:1024A4001A7170476FF07700704700BFC00B0020AF
:1024B4004FF050230022C3F82021D3F82021012219
:1024C4009A61094A126822B14FF48072C3F8042356
:1024D4007047D3F82021002AFBD00022C3F8202122
:1024E400D3F82031704700BFC00B00204FF05023B9
:1024F400D3F80423D2050ED5D3F820215AB10022F3
:10250400C3F82021D3F820214FF48072C3F80823A4
:10251400014B1B6818477047C00B0020074B02464D
:10252400187938B91A6001221A714FF05023C3F890
:10253400802570476FF07700704700BFC80B0020FC
:102544004FF050230022C3F82421D3F82421012280
:102554001A62094A126822B14FF40072C3F80423C4
:102564007047D3F82421002AFBD00022C3F8242189
:10257400D3F82431704700BFC80B00204FF050231C
:10258400D3F8042392050ED5D3F824215AB100229E
:10259400C3F82421D3F824214FF40072C3F808238C
:1025A400014B1B6818477047C80B0020074B0246B5
:1025B400187938B91A6001221A714FF05023C3F800
:1025C400182570476FF07700704700BFD00B0020CC
:1025D4004FF0502310B5D3F818141E4C11F4803F5B
:1025E400D3F818241BD002F00302022A02D0012AD5
:1025F40012D101224FF05023C3F818250022C3F84A
:102604000421D3F8042101229A602268A2B9D3F8E4
:102614000421002AFBD017E002F0DEF9E9E7D3F841
:102624001424D207E5D5D3F81C2402F00302013A9E
:10263400012AF1D822681AB10222C3F8042310BD7A
:10264400D3F80421002AFBD00022C3F80421D3F8D4
:102654000431F4E7D00B0020F8B54FF050230125E6
:102664000026D3F80443184F04F0820404B9F8BDDB
:10267400B4FA84F0C0F11F00830003F580739BB2A9
:1026840003F1502305FA00F2196892B224EA020415
:102694000029EBD01E601B684FF05023022AC3F8B8
:1026A40008230DD1D3F81814D3F8181401F003013A
:1026B400012905D1C3F81825C3F804239960D5E787
:1026C4003B68C0B29847D1E7D00B0020036803F001
:1026D4001F025B09026004D0012B034818BF0020CD
:1026E40070470248704700BF00288450002584507A
:1026F400034A4309D35C00F01F001844C0B270477A
:10270400155F0000024611F0010010B50BD18B07D4
:10271400C1F340000DD50749086A506008620038CB
:1027240018BF012005E0044C236A13602362002BC8
:10273400EDD010BD0028845000258450F7B5044620
:102744000846FFF7D5FF04EB4006B38A0D46DB07C6
:102754002AD5204602F042FA2946204602F0AFF973
:1027640050B1204602F0C1F90023276807EB80002E
:10277400C0F81035C0F810352946204602F0DEF9BD
:10278400002101A8B1820195FFF7A0FF019B00EB96
:102794008300D0F80022064B134043F00203C0F834
:1027A4000032084603B0F0BD6FF01500FAE700BF31
:1027B400F0F0FCFF70B590F88C40054690F88D6001
:1027C40024BB21466022143002F083FD2146114BC4
:1027D400286853F836608E420ED10024C0F87C413C
:1027E400D0F87C3140F30730FEF704FA0123204689
:1027F40085F88C30AB6770BDCBB29B0003F580725B
:102804007C2B04BF845083580131E4E76FF07700D8
:10281400F1E700BFD058000090F88D00024B03EBA5
:10282400800002F022B800BFC800002010B5064B9B
:1028340090F88D000C4603EB800001F0FCFF0028AB
:10284400A4BF2070002010BDC80000202DE9F04F67
:10285400804658F804AB90F88D40DAF804136A4BBC
:10286400C9B2074653F8342050468BB041F00041BA
:1028740002F08DF9051E39DA0023CDE90833624BE5
:10288400E60003EBC404636808A819460093FFF745
:1028940039FF331D03934FF0000B5C4B0DF12009FE
:1028A4000293029A584912F8013B0292039A02EBEE
:1028B400D3028A5C03F0070322FA03F3DB071BD479
:1028C4000BF10103022B4FF0010B09F10409E8D1CC
:1028D4004FF000410022504602F059F9009908A82F
:1028E400FFF710FF0028D6D125F000450124002D64
:1028F40073D10BB0BDE8F08F454B5B440493D9F81A
:102904000060002EDCD096FAA6F6B6FA86F6049B92
:102914001C7846EA44142046FFF7EAFE07EB400021
:10292400818AF208C1F3820305930193012319F804
:10293400020006F0070603FA06F620EA060009F884
:10294400020007A80794FFF7C1FE079A11F0100FC1
:1029540002F1800250F82260059BC6F3014623D0A1
:102964004046019A214602F0CAF807A80794FFF7E7
:10297400ADFE079BF6B2803350F82330C3F3014316
:102984009E4207D10021204602F08AF831462046B3
:1029940002F086F807A80794FFF798FE0122079B28
:1029A40002FA03F30362AAE7022E14BF02210321F1
:1029B4002046059302F074F8059B032B03D0022EE6
:1029C40007D1012BE6D121464046019A02F097F83F
:1029D400E0E7032EDED1022BF4E795FAA5F3B3FA70
:1029E40083F304FA03F225EA020503F5A2725AF806
:1029F400222007EB43034046B3F87C10C2F30142A4
:102A040002F07DF873E700BFD0580000255F000096
:102A1400255F000038B5EFF31185202383F3128876
:102A2400BFF36F8F064B9C6802F0C1FA85F31188DF
:102A3400BFF36F8F2046BDE83840FEF783B900BF6F
:102A4400D80B002038B50A4B53F82040013053F816
:102A54002050A54200D838BD606830B1037EDB0742
:102A640001D402F079FA0834F3E723689847FAE7C7
:102A7400E0580000012270B52A4B86B003201A707A
:102A8400FFF7E0FFFEF766FC02F015FC0420FFF7F9
:102A9400D9FF254C254D2646AE4204F130040FD310
:102AA40000F0DEFB204CAC4226D300F0EDFB02F03C
:102AB400FFFB1F4A938923F00103938106B070BD85
:102AC40054F80C3C059354F8103C049354F8143C0B
:102AD400039354F8183C029354F81C3C019354F8A3
:102AE400203C009354E90A2354E90C0100F022FA33
:102AF40054F8303C5E65CEE7D4E90A23B3F1FF3FD6
:102B040008BFB2F1FF3F05D052EA0301206803D1A8
:102B140002F05EFB3034C6E70649183000F03AFD97
:102B2400F8E700BF250C0020C85600002857000015
:102B3400E00300207D510000B02370B5144E86B030
:102B440003FB0066134B012205930F23CDE90332E7
:102B54000023CDE9013314234FF4A0720E4D0F4925
:102B640003FB0055044602FB00110D4B3046009553
:102B740000F0E0F9337C2C7423F004033374094B24
:102B8400013403EBC423EE606B6006B070BD00BF7C
:102B940030030020EF5E0000D80B0020281C00202A
:102BA40087500000281400207FB50020FFF74AFF5B
:102BB400294B03F5006282F3088883F30A88002412
:102BC400E023264D85F82230EC772C766C76AC76B3
:102BD40085F820406B6A43F4E0236B6285F8234058
:102BE400FDF770FFFEF798F84FF0FF33AB62EB622E
:102BF400FEF77AFAFEF714F9194800F001FAFEF725
:102C04008BFB0120FFF71EFF0220164DFFF71AFF72
:102C140000F05EFB144B4FF480625D61134B14496A
:102C2400059301232846CDE90343CDE90144114B23
:102C3400009400F07FF906462B7C284623F0040319
:102C44002B7402F076FA2046FFF776FF31462846C9
:102C5400084AFEF73FF800BF2814002000ED00E00A
:102C640090040020E0030020D80B0020F45E000054
:102C7400681D0020792A000038B5074C074DAC4286
:102C840001D3002038BD204602F094F908B91C3461
:102C9400F5E76FF01500F5E7600100206001002002
:102CA40073B50C46EFF31181202585F31288BFF329
:102CB4006F8FC5685DB125602B68C360836901337C
:102CC4008361002081F31188BFF36F8F11E052EA12
:102CD400030603D16FF00B002560F3E7CDE9002371
:102CE4000246083000F038FA18B9034B9B685B6958
:102CF400236002B070BD00BFD80B00202DE9F34162
:102D0400044617461E46EFF31188202383F31288E6
:102D1400BFF36F8F304BC2689B6872B18068984272
:102D240017D057EA060216D188F31188BFF36F8FC4
:102D34006FF00F0002B0BDE8F08193F90E1001327C
:102D44002161C4E9023288F31188BFF36F8F002038
:102D5400F0E72169F3E793F90E1090F90E309942E8
:102D640030DA9942A8BF194602F096F90546224680
:102D74004146CDE90076194800F0EEF90028E6D086
:102D8400EFF31186202383F31288BFF36F8FA068BB
:102D9400D0B1236821699C420AD04BB193F90E301B
:102DA4009942A8BF19466FF07F039942B8BF1946EC
:102DB40002F072F940B13146084802F0EDF96FF0C3
:102DC4000A00B7E70025D2E7002DF4D186F3118875
:102DD400BFF36F8FF3E700BFD80B0020260C002051
:102DE400F8B583680546002B40D0234A9268934285
:102DF4003FD1C368012B03D9013BC3600020F8BD58
:102E0400EFF31187202383F31288BFF36F8F0169D7
:102E1400806802F041F92C68A54207D10023C5E976
:102E2400023387F31188BFF36F8FE7E7002CF5D0E7
:102E3400D4E90032002613605A60237CC4E900669A
:102E440023F002032374A66004F1180002F0F7F9DA
:102E5400AC6094F90E3020462B61C4F8AC6002F0EB
:102E640068F93946054802F097F9C7E76FF015008D
:102E7400C5E74FF0FF30C2E7D80B0020260C002036
:102E840070B5EFF31186202383F31288BFF36F8F9D
:102E94000468A0421BD0D4B1D4E9003200251360E9
:102EA4005A60237CC4E9005523F002032374A5600F
:102EB40004F1180002F0C3F92046C4F8AC5002F043
:102EC40038F93146BDE87040064802F065B9D0E9EA
:102ED40002329A4218BF0133836086F31188BFF32C
:102EE4006F8F70BD260C002013B5EFF311812024E1
:102EF40084F31288BFF36F8F846844B1013C84600B
:102F040081F31188BFF36F8F002002B010BD52EA25
:102F1400030406D181F31188BFF36F8F6FF00F00A4
:102F2400F3E7CDE900230246014800F015F9ECE788
:102F3400260C00202DE9F04F984685B000F1580387
:102F4400C0E91633129B002583810423D61D26F085
:102F540007060374119B01EB060A0F46C0E90655E8
:102F6400514685608373C5730446DDF838B0DDF8D7
:102F74004C90FDF7A5FB109B073020F00700C4E937
:102F84002576C4F89C0002930F9BAAEB0006CDE9BA
:102F940000B33246434639462046FDF77FFE0F9B79
:102FA400C4E9188BA366109B6565E366EFF3118390
:102FB400202282F31288BFF36F8F104F3A6A3C626B
:102FC400226783F31188BFF36F8FB9F1000F11D01B
:102FD4001F22494604F1740002F083F984F89350E7
:102FE400BB680BB1D3F8A0303046C4F8A03005B0AC
:102FF400BDE8F08F84F87490F2E700BFD80B00208E
:103004000123037483810023C0E92533C0F8A03071
:10301400014B9860704700BFD80B00206FF00A0185
:10302400094A9368C3F8AC100849C3F8A8004B6870
:1030340043F080534B60002383F31188BFF36F8FF9
:103044009368D3F8AC007047D80B002000ED00E083
:1030540070B590F91020037C002A2FDBDC062DD1FB
:10306400184A63F07F031146037451F8183FD4697A
:103074008B4207D1C0E900142060D0610FE09C426C
:10308400F8D01B68002BF5D093F90E6090F90E5020
:10309400AE42F4DD5C68C0E9003420605860936996
:1030A4008B4200D003B9D3689168087CC00606D16E
:1030B400C8897F2803D9986908B9516170BD5361E3
:1030C400FCE700BFD80B002010B590F91020014692
:1030D400002A037C04DA03F07F03037401F0F1FF98
:1030E4000B4A144654F8183F9068A34200D003B921
:1030F400D368884209D0017CC90606D1C1897F29D9
:1031040003D99969002908BF0346536110BD00BF64
:10311400D80B0020B3F1FF3F08BFB2F1FF3F03D04B
:103124000249183000F036BA704700BF7D510000E4
:10313400034648B9EFF3058232B9064A51699268E9
:10314400914201D0FFF76ABF83F31188BFF36F8FF9
:10315400704700BFD80B0020F8B5DDE906670C46C0
:103164001146EFF31183202383F31288BFF36F8F8B
:10317400074B9D68284601F0B6FF284632463B4679
:10318400FFF7C8FF2046BDE8F840FFF747BF00BF80
:10319400D80B0020F8B50446EFF31187202383F3FE
:1031A4001288BFF36F8F037C49B203F01F02002A19
:1031B4000CBF012600262FD103F07F03037401F016
:1031C40080FF037C254A63F07F03817303741046F8
:1031D40050F8183FD569834207D1C4E900052C6033
:1031E400D4610DE09D42F8D01B68002BF5D093F913
:1031F4000EC08C45F6DD5968C4E900310C605C6092
:103204009369834200D003B9D368536187F311886B
:10321400BFF36F8F3046F8BD9B071CD5856801F05E
:1032240050FF81732B689D4209D16B68C4E9005338
:103234001C606C60EAE76A689A42F6D01B68002B4F
:10324400F3D093F90E208A42F5DD5A68C4E90032BE
:1032540014605C60DAE78173D8E700BFD80B002004
:10326400EFF31181202383F31288BFF36F8F054B93
:103274009A68D37B013BD37381F31188BFF36F8FBB
:10328400704700BFD80B002010B4EFF31180202347
:1032940083F31288BFF36F8F0C490C468A68D37B83
:1032A4000133D37354F8183FA34200D003B9CB6859
:1032B400147CE40606D1D4897F2C03D99C69002CA4
:1032C40008BF13464B6110BCFFF732BFD80B002078
:1032D400024B03F11802C3E906227047D80B002001
:1032E40070B4EFF31180202383F31288BFF36F8F40
:1032F400164A9468D5692368AC4214BF1946002164
:10330400646823605C609368D46929B91049C3E98F
:1033140000142360D3610AE091F90E6093F90E5012
:10332400AE420EDD4C68C3E9001423604B60936920
:1033340007498B4200D003B9D368536170BCFFF7CF
:103344006DBEA142E2D00968DFE700BFD80B0020C0
:10335400F00B0020F8B550EA010306460C4603D1F1
:10336400FFF7BEFF0020F8BDEFF31187202383F39E
:103374001288BFF36F8F114DA868FFF7A5FEA868E8
:10338400234632460E49183000F004F9AA68044670
:10339400137C384643F004031374FFF73FFEAB6815
:1033A400D3E90A23B3F1004F08BF002ADAD101F0B0
:1033B4007BFF201A20EAE070D5E700BFD80B00207D
:1033C4007D510000014B9868704700BFD80B002066
:1033D4002DE9F84304468789EFF31186202383F30C
:1033E4001288BFF36F8F037C190705D586F3118804
:1033F400BFF36F8FBDE8F883D90943F0080267D1A2
:103404000274A36813B1204601F063FE04F11800AE
:1034140001F015FFA56D04F15808A84511D04FF02F
:10342400000975B1284601F054FE05F1180001F0B9
:1034340006FF2846C5F8AC90FFF70AFEA56DA8451F
:10344400EFD12B4DAB689C424AD1EFF30588B8F11C
:10345400000818BF4FF00108AB69264A934200D018
:1034640003B9EB6820466B6100F05CFF204600F076
:1034740045F8B8F1000F02D01F48FFF7C1FDAB6853
:103484009C4230D1EFF305836BBBA289D20711D5DF
:1034940086F31188BFF36F8F83F31188BFF36F8FA7
:1034A4000423184602DFEFF31186202383F31288E6
:1034B400BFF36F8F3046FFF7B1FDFB079AD50023AA
:1034C40083F31188BFF36F8F0423184602DF91E75B
:1034D40003F07F0343F00803037401F0F2FD90E767
:1034E4004FF00008B8E786F31188BFF36F8FE4E765
:1034F400D80B0020F00B002090040020EFF3118182
:10350400202383F31288BFF36F8F0A4A136A83421E
:1035140007D11B6F136281F31188BFF36F8F70475C
:103524001346002BF7D01A6F8242F9D1026F1A6743
:10353400F1E700BFD80B0020024B1868984208BF7F
:1035440000207047D0000020034B1B680BB9FEF726
:1035540001BE0020704700BFFC0B002030B570B1E5
:103564000B4B5B6898420AD0036843B1D3E904214A
:10357400D0E90445121941EB0501C3E90421D0E95E
:10358400003213605A600023C0E9003330BD00BF2D
:10359400D0000020B3F1FF3F08BFB2F1FF3F2DE997
:1035A400F84F0446994615461F467AD08160EFF3DA
:1035B4001188202383F31288BFF36F8FB9F1000FB2
:1035C400DFF8E4A020DBFFF7BFFFDAE900270135CD
:1035D40049F100092D1849EBE07306464FF0010943
:1035E400C4E90453AD1843EB0707FFF7A5FF0346EF
:1035F400DFF8B8E0DEF804A0EBB9C4E900EACAF8E1
:103604000040CEF8044028E06FF00103DAE900122C
:103614005B1A4FF0FF3161EB02025B1B62EB0902A4
:10362400012B72F10001BCBF012300224FF00009FD
:10363400C0E90432D9E7D3E9041CD4E904208A425E
:1036440070EB0C0B24DA891A5A686CEB0000C3E99E
:103654000410C4E9003214605C60FFF76DFF84421B
:103664000ED1134B1B685BB9B9F1000F02D1FFF700
:103674006BFF0646304601F0CBFD0021FEF73CFD12
:1036840088F31188BFF36F8F28463946BDE8F88F59
:10369400521A60EB0C005345C4E90420ADD01B68FA
:1036A400AAE700252F46EFE740050020D0000020C0
:1036B400FC0B00202DE9F047DFF8A4900246C9F87E
:1036C40000000D46FFF738FF00260027DFF894803E
:1036D4004FEAE27ED8E9001350B1D0E9044CA2428B
:1036E4007EEB0C0A18DAA41A6CEB0E06C0E9044649
:1036F4000024521843EB0E032046C8E90023C9F8FE
:10370400004001F085FD2146FEF7F6FC85F31188A3
:10371400BFF36F8FBDE8F087611843EBE473C0E932
:103724000467C8E90013FFF719FF01224FF00043B3
:10373400C0E9042385F31188BFF36F8F836898472A
:10374400EFF31185202383F31288BFF36F8FD9F829
:103754000020121BC9F80020FFF7EEFEB8E700BFF7
:10376400FC0B00204005002010B5EFF3118420234A
:1037740083F31288BFF36F8FFFF7E6FE0346054A13
:10378400D2E90001181841EBE37184F31188BFF307
:103794006F8F10BD4005002010B50A4C23681BB183
:1037A40001232360002010BD00F0F4F80028F7D0B6
:1037B4000138072803D8044B53F8200010BD0348F0
:1037C40010BD00BF000C0020F8580000FE8FFFFF62
:1037D400BFF34F8F0549064BCA6802F4E0621343F6
:1037E400CB60BFF34F8F00BFFDE700BF00ED00E0EB
:1037F4000400FA0530B44FF0FE3200250B4B0C4C9C
:103804000C494968C3F80024C3F80424C3F8082405
:10381400C3F80C24C3F81024C3F81424C3F81824E0
:10382400C3F81C24C4F8005530BC08470050845029
:1038340000408450D8000020024BD0E90012C3E9B4
:1038440000127047D800002010B5044650B16368D8
:1038540013F0685F05D0064A934202D000236260E9
:10386400236010BD034B04485B689847EFE700BF33
:103874002C5F5CA9D800002018590000C8B1436827
:103884000D4A934213D013F0685F0ED0012350E821
:10389400002F194640E8001C9CF0000FF7D1012AC4
:1038A400F5D0BFF35F8F0020704704487047044889
:1038B40070476FF4E04070472C5F5CA9E98FFFFF0D
:1038C400EA8FFFFF034680B1426809498A420AD061
:1038D40012F0685F05D0BFF35F8F002210461A60B4
:1038E400704704487047044870476FF4E0407047DD
:1038F4002C5F5CA9E98FFFFFEA8FFFFF10B5044638
:1039040020B10023034A2360626010BD0248FFF720
:1039140071FFF6E73A00003A4059000070B5184CC0
:10392400D0F804C00568C4F804C0D0F808C0C06862
:10393400C4F808C0E06025600868124B124A186099
:103944004868586088689860C8680969D8601961CF
:10395400536813F0685F05D000230C49104651608A
:103964001360A8470A48436813F0685F07D0002231
:1039740006492368C0E90021BDE87040184770BDBE
:10398400F4000020E0000020140100202C5F5CA95A
:103994000C01002008B500F013F830B900F014F859
:1039A40028B9064AC2F80C0A08BD032008BD00F075
:1039B40009F800F043F8042008BD00BF005084500B
:1039C400002070470020704710B5154800F05EF8DD
:1039D40000B110BD134800F059F80028F9D1124C79
:1039E400204600F053F80028F3D1104B10481C6017
:1039F40000F04CF80028ECD10E4800F047F80028FD
:103A0400E7D10D4800F042F801460028E1D100F06A
:103A140039F8044608B900F04DF8204610BD00BF3F
:103A240054010020500100204C01002044010020DA
:103A340048010020400100203C01002008B50B484B
:103A440000F02EF80A4800F02BF80A4800F028F895
:103A5400094800F025F8094800F022F8084800F069
:103A64001FF8BDE8084000F00FB800BF5401002063
:103A7400500100204C01002048010020400100209A
:103A84003C01002000207047704700BF08B5034B7D
:103A940002681B6810689847002008BDF4000020E5
:103AA40008B5034B02685B6810689847002008BD9E
:103AB400F400002070B5094C094D2069AB689847A3
:103AC40018B1084B08485B6898470021074AEB681F
:103AD40011602069BDE87040184700BFE000002075
:103AE400F4000020D8000020645900001C0C0020C1
:103AF4002DE9F04F43688BB080469246009383785B
:103B04009C0740F1F98000250878002800F0F68031
:103B140025280AD04B1C019301354146009B984748
:103B24000028C0F2E3800199EEE74E788B1C252E25
:103B34000193F1D000270A22B9463C461F2C22D813
:103B4400A6F12003102B20D8DFE803F0141F1F1A5E
:103B54001F1F1F0B1F1F1F121F171F1F090044F0D9
:103B64000104019B13F8016B0193002EE6D13AE0A6
:103B740044F0020444F00404F3E744F00804F0E7DA
:103B840044F01004EDE77F2C24D8A6F13003092B70
:103B940008D860064EBF02FB073744F0200402FB3E
:103BA4000939DEE72A2E0DD161065AF8043B53D4B5
:103BB400002BA7BF44F020049946C3F1000944F048
:103BC4002804CEE72E2E05D1630600F1978044F039
:103BD4004004C6E76C2E2ED028D8682E32D06A2E28
:103BE40037D04C2E35D0002F46F02003B8BF24F038
:103BF4004004A3F16502BCBF0027A4B2022A01D984
:103C0400612B2BD10AF1070A07279D4E2AF0070AD8
:103C14000AF1080A210760D506EB070B34465C4518
:103C24005DD1AE1BA9EB0709A21959E1742E98D0F6
:103C34007A2E96D0D7E7260648BF44F4007444F0A1
:103C440080048EE7E00548BF44F4007444F48074B3
:103C540087E744F4207484E71F4682E7A6F16302F1
:103C6400122A00F2D880DFE812F013004D00D600CB
:103C7400D600D600D6004D00D600D600D600D60019
:103C8400D600E800D100D600D6001A00D600A00065
:103C94005AF8043B012704AE8DF81030BAE75AF8FD
:103CA400046B784B002E08BF1E4614F0400F3046BC
:103CB40014BF39464FF0FF3101F026FB0746A9E750
:103CC40041462020009B984700280FDB013CA74277
:103CD400F6D34D44A1462D1B9EE74C46F7E74146DB
:103CE40014F8010B009B9847002898DA98F80230E2
:103CF40043F0040388F802304FF0FF3528460BB038
:103D0400BDE8F08F220630D5A3052AD50AF1070AAB
:103D14002AF007039A4659685AF8080B24F0100B46
:103D240000291FFA8BFB2FDA40424BF4806B61EBC6
:103D3400410104AC0A23224601F0F2FA1BF0400FC1
:103D4400A0EB040200F08E802BF001049742A4B291
:103D540040F38F80002E40F08E802BF01104A4B22B
:103D64001DE05AF8040BC117D8E7E0055AF8041B04
:103D740001D40846F7E7A20547BF48B241F3C01192
:103D840008B241F3C031C9E750EA0103D1D1630657
:103D9400CFD5002FCDD124F011043A46A4B23B462E
:103DA40040F206410C4262D124E024F010040A23BC
:103DB400A4B214F0800243D014F4007117BF0AF1C6
:103DC400070A5AF8040B2AF0070292461CBF5168EE
:103DD4005AF8080B50EA01023ED124F0160B620691
:103DE4001FFA8BFB3CD5002F3AD124F017043A4636
:103DF4003B46A4B221075AD4E10705D5994572DDA3
:103E0400A9EB03039F184B469B464AE044F0100479
:103E140010237826CDE7782B04D1C6F1780343F03C
:103E24001003C6E741462520009B98470028FFF66B
:103E34005DAF02354146304670E608230026B8E7F8
:103E440014F480715AF8040BC4D014F400711ABF2E
:103E5400C0B2114680B2BDE724F006041FFA84FB09
:103E640004AC68E713465C46E10699D52EB90133E4
:103E7400C0E71346F8E73B46F6E70233BAE700BF6C
:103E8400005F0000F95E0000CDE9023241462020C7
:103E9400009B98470028FFF629AF0BF1010BDDE9E1
:103EA4000232D945F0DCEB1A03EB0B055B46E10665
:103EB40027D541463020CDE90232009B984700289F
:103EC400FFF614AFDDE902327EB901352F44791BC8
:103ED4008A4229DB144604AE94BB2A44A9EB0309A5
:103EE4001546914440E017468EE702354146304678
:103EF400CDE90232009B98470028DDE90232E5DA79
:103F0400F4E640F206410C42E0D014F0020F05F151
:103F14000105414614BF2B20202014F4806FCDE905
:103F2400023218BF2D20E5E7CDE902324146009B5D
:103F34003020013598470028DDE90232C7DAD5E69A
:103F4400013C4146CDE90232305D009B9847002890
:103F5400DDE90232C0DAC9E641462020009B013582
:103F640098470028FFF6C2AEA9EB0503002BF3DC4B
:103F7400D9E500BF7047836800EBC101B3F5004F7A
:103F84002CBF51F8220031F81200704700EBC10138
:103F94008068B0F5004F2CBF41F8223021F8123070
:103FA4007047012208B5FFF7E6FFD04008BD8368DB
:103FB40000EBC101B3F5004F08D34B681AB143F0CD
:103FC40001034B60704723F00103FAE74B881AB1F1
:103FD40043F001034B80704723F00103FAE75300D9
:103FE4000122FFF7D3BF08B58368B3F5004F06D3AA
:103FF400FFF7D7FF01288CBF0020012008BD002057
:10400400FCE78368B3F5004F28BF0139B1FA81F0AA
:10401400C0F11F0070472DE9F04104460D46FFF73B
:10402400E2FFB8BB29462046FFF7BBFF0146204606
:10403400FFF7E7FF04EB80010E6996B90122E368FC
:1040440082401343E36002220D612B462946204639
:10405400FFF79CFF032229462046BDE8F041FFF705
:1040640095BF022231462046FFF785FF07460346E7
:1040740029462046FFF78AFF032233462946204675
:10408400FFF784FF39462B462046FFF77FFF0222C5
:104094003146E1E7BDE8F081B2F5802F34BF042357
:1040A40008232DE9F0410026D21A8C18CD1D25F0E5
:1040B400070524F00704641BE4080560214628462C
:1040C400AC60EE60FFF79DFF820002F11B07FF0862
:1040D4003146043205F1100001F0FBF83A4631464E
:1040E4002846FFF77CFF3346324631462846FFF721
:1040F4004DFFA4EB0708284631460122FFF757FF7E
:1041040042463946FFF76BFF3B463246394628465E
:10411400FFF73CFF21462846FFF761FF434632463E
:1041240021462846FFF732FF214628460122FFF7A1
:104134003EFF3946BDE8F041FFF76DBF00207047F0
:104144000FB407B504A951F8040B0191FCF724F846
:1041540003B05DF804EB04B07047038B13F007035E
:1041640006D10368002B18BF032008BF0020704746
:10417400022B05D1408BB0FA80F0400980007047D3
:10418400012B04D10368002B18BF0520EDE70020A4
:10419400704710B50C4600B111B96FF0150010BD91
:1041A400081D00F087F80028F9D1A368032BF6D97D
:1041B400F3E72DE9F0410D4607461946281D9046C0
:1041C4001E4600F088F8044638B133464246294674
:1041D4003846A446BDE8F0416047BDE8F08110B41C
:1041E400EFF31182202484F31288BFF36F8F4161AF
:1041F40010BC0121FCF702B838B50C46054658B18D
:1042040051B10B6843B14B6833B11C22002101F05A
:1042140060F800202C6138BD6FF01500FBE7F8B59D
:1042240004460E46FFF7B5FF051E3BDBEFF3118294
:10423400202383F31288BFF36F8F4FF6FF71638BD4
:10424400278B8B4207F007072ED0062F2FD8DFE8E5
:1042540007F0182E082E180418006FF085050023A7
:1042640003E0013363830225012382F31188BFF342
:104274006F8FBBB100233A4631462046FFF799FFC2
:1042840010E000233360636823B9C4E9006627B1F2
:104294003D46E4E71E606660F9E702212046FBF72D
:1042A400ADFF3D462846F8BD6FF00A05D7E76FF02D
:1042B4000405D4E7034658B1426802F00302012A18
:1042C40003D0032A04D1026812B100209860704719
:1042D4006FF0150070474268034602F00302032A98
:1042E4004FF00002816014BF104600685A607047A6
:1042F4007047FEE700F0EDBF00F0DEBF0146006846
:10430400FCF7AAB908B5FCF7D7F9BDE80840FCF7F3
:1043140009BD00210120FCF79FB9D0F8943083F344
:104324000B8870476FF08500704761B662B680F302
:104334001188BFF36F8F704708B572B6002383F3FB
:104344001188BFF36F8F00F053F850B1BFF34F8F54
:1043540030BF00BF00BF00BF00BF00BF00BF00BF31
:1043640000BF62B6BFF36F8F08BD10B5044672B6C6
:10437400002383F31188BFF36F8F00F039F850B135
:10438400BFF34F8F20BF00BF00BF00BF00BF00BFFF
:1043940000BF00BF00BF84F31188BFF36F8F62B604
:1043A40010BD40E800F313F4803FD8B208BF6FF0AB
:1043B4001500704730B50C684B6885B00A894D8983
:1043C4000094013B24F01F04234402F01F0242EA3C
:1043D400451223F01F0369468DF808200393FCF768
:1043E40055FD05B030BD08B5FCF730FF002008BD11
:1043F400FCF752BF4FF05023012270B50C4605461E
:10440400C3F814260020FCF7DBFF28462346BDE84A
:104414007040002118472DE9F041064601200D4661
:10442400FCF7CEFF4FF47F03D3F830214FF0502434
:10443400072AD3F834311BD1023B022B18D94FF091
:10444400010800270520C4F81886C4F8147600F083
:10445400F0F94046C4F8148600F0EBF9C4F8147679
:10446400C4F8187630462B46BDE8F04100211847C1
:104474000023C4F81436F5E70C220369C9B202FB21
:104484000133986F00F00700704770B50346C9B256
:104494000069EFF31186202484F31288BFF36F8F31
:1044A4000C2505FB0104A46F14F0C00401D0A24242
:1044B40010D1012205FB01008267002086F31188D8
:1044C400BFF36F8F28B95B6803EBC1035B68984740
:1044D400002070BD4FF0FF30F0E78022FFF7D5BF1A
:1044E400F8B5069F05460469C9B2EFF3118C202084
:1044F40080F31288BFF36F8F0C2606FB0146B06F62
:1045040000F0070EBEF1010F11D1B76700268CF33E
:104514001188BFF36F8F46B90C2000FB0144C4E936
:104524001C236B6853F8313098473046F8BD00F0CF
:10453400C00087420CBF6FF077064FF0FF36E6E706
:1045440013B580240094FFF7CBFF02B010BD10B464
:104554001C240069CBB204FB0300002110BC1047EB
:10456400032000F0BAB9022000F0B7B9032000F02C
:10457400C3B9022000F0C0B91046FEF781BC00F0B8
:1045840044BAFEF725B8436800205B681B690B60DA
:104594007047436802EA01005B6821EA02019860FF
:1045A4000020D9607047436800205B6899607047B9
:1045B400436800205B68D960704743685B685A6849
:1045C40021EA0200114098600020D960704730B59C
:1045D4000369586800B30024884219D108688CB96B
:1045E4009C685860A14200D19860002008602AB1FC
:1045F4005A680A609A68596002B9996000200FE00D
:104604002846E9E720609868814208BF9C60ECE78F
:1046140005680446002DF3D1002AE9D16FF0150096
:1046240030BDFEF713B930B543681360057A4468AA
:1046340004EBC504A34202D36FF0010030BD5C79E2
:1046440008338C42F1D10020F8E743681B68D3F8A3
:104654008004C3F88004704742681368D3F81001DB
:1046640050B10020126A12780A70C3F81001D3F80E
:10467400102101221A6070474FF0FF307047026822
:104684000346D2F8580140B95B68DB0706D4D2F878
:104694002001003818BF012070470120704743688B
:1046A4001B68D3F80423D20517D5D3F82021A2B16F
:1046B400EFF31182202181F31288BFF36F8FD3F8B7
:1046C400201131B10021C3F82011D3F820110121A8
:1046D400D96082F31188BFF36F8FD3F858317047D4
:1046E40013B501AA0446FFF79EFF002805DB019BD2
:1046F400226819791868FDF7FBF902B010BDF8B506
:104704000546002201210820FCF790FA0820FCF756
:1047140071FA6C680121E068FFF7E2FF6B681968C1
:104724002369C1F82435A27D637D207D1343228B48
:1047340002431343C1F86C356E680022D6E9004386
:1047440013F0010312D02F6904F10C01C4F8A02165
:1047540004F59070C4F88C2007F1080200F09EF86C
:1047640000283ADB387AFDF7EBFD01230822C4F870
:104774000025F2690121C4F844250022C4F8482523
:10478400A1606BB9D4F82031002BFBD0C4F82021F0
:10479400D4F820310123E3604FF48073C4F8043368
:1047A400D4F85831002BFBD00021C4F800156D68F3
:1047B400E8682C68FFF794FF0823C4F800352A7AC8
:1047C40052B92B6AC4F834350123C4F83835C4F817
:1047D4001021D4F8102123600020F8BD002200F13C
:1047E40050039B009BB203F1502303F580331A60FE
:1047F4001B68704708B5FDF71DFB08BDFEF7CCBF6D
:1048040008B5FBF703FEFBF7E9FEBDE80840FEF739
:10481400C3BF4FF47F03D3F83021D3F83401022807
:1048240008BF072A0CBF0120002070470346002060
:10483400184700F08DBB024610B5116891B1B1FA6A
:1048440081F3C3F11F000123834021EA0303D2E86B
:10485400EF4F8C4204D1C2E8EC3FBCF1000FF6D11B
:10486400EBD110BD6FF00B00FBE710B50368CB4034
:10487400DB0710D401238B40026843EA0201D0E82D
:10488400EF4F944204D1C0E8EC1FBCF1000FF6D105
:10489400F2D1002010BD6FF01500FBE770B5D0F821
:1048A40080300646002B0C46154613DBD1F88030C9
:1048B400002B0FDB00210846FDF734FD48B92B78A7
:1048C40043F00043C6F880302B7843F00043C4F82B
:1048D400803070BD6FF01500FBE703280BD8DFE8CC
:1048E40000F002040608FDF773BEFDF79FBDFDF757
:1048F40027BEFDF7DDBD704703280BD8DFE800F0C5
:104904000402060800F02EB800F07FB800F062B888
:1049140000F044B8704708B5FDF7A4FDFDF79CFE10
:10492400FDF72CFEBDE80840FDF7E0BD38B54FF0BB
:1049340050240123C4F808336360002342F2107545
:10494400C4F80031D4F80031D4F80C24D4F80C3471
:10495400D20306D5DB0704D50120FFF76AFF013D2A
:10496400F2D138BDFFF7E2BF38B54FF050244FF411
:104974008073C4F808330123E361002342F2107505
:10498400C4F82031D4F82031D4F85434DB0304D5EE
:104994000120FFF74EFF013DF6D138BDFFF7E4BF1C
:1049A40038B54FF050244FF40073C4F80833012392
:1049B4006362002342F21075C4F82431D4F8243120
:1049C400D4F85C34DB0304D50120FFF732FF013D4A
:1049D400F6D138BDFFF7E4BF38B54FF050240223B9
:1049E400C4F808330123E360002342F21075C4F8CD
:1049F4000431D4F80431D4F81834DB0304D501208D
:104A0400FFF717FF013DF6D138BDFFF7E5BFF7B556
:104A14001646DDE90847019001A81D46FDF756FE3C
:104A2400019BB6F1000C18BF4FF0010C00EB8300A2
:104A34000B1E18BF0123002D43EA4C030CBF4FF09B
:104A4400000C4FF00C0C002C43EA0C030CBF4FF08D
:104A5400000C4FF4706C002F43EA0C030CBF4FF0B2
:104A6400000C4FF4403CD0F8002243EA0C0322EA45
:104A7400030301B109780EB13678760019430DB1FC
:104A84002D78AD0031430CB12478240229430FB1B1
:104A94003F783F040C433C43C0F8004203B0F0BDF0
:104AA4001FB50DF10F03019300238DF80F101A4663
:104AB40019460093FFF7ABFF05B05DF804FB10B592
:104AC40004460846FDF714FE04EB4004207DC0F3C1
:104AD400401010BD10B504460846FDF709FE04EB6E
:104AE4004004207DC0F3400010BD10B504460846C4
:104AF400FDF7FEFD04EB4004A08A400B10BD70B529
:104B0400044608461646FDF7F3FD083034F8103025
:104B14000D46DA0509D5C3F3432304EBC30231463A
:104B2400284654F8333052689847A3682BB131466D
:104B34002846E268BDE87040184770BD10B50446C9
:104B44000846FDF7D5FD04EB4000838ADA051DD540
:104B5400C3F3432123F4F853838204F1120204F1D2
:104B6400720032F8023F13F4807F03D0C3F343236F
:104B740099420BD08242F4D1002204EBC1035A6063
:104B840004F17800BDE81040FFF76FBE10BDF0B52A
:104B94000446002001270546844695420AD1D4F8EC
:104BA4007C3133B10023C4F87C31D4F87C3140F03B
:104BB4000040F0BDEBB29B0003F580769B0807FA3A
:104BC40003F3194208D054F806E0BEF1000F03D0F5
:104BD40044F806C0A65918430135DEE738B5044643
:104BE4000D46FFF76CFFA8B12046FFF773FF88B9A5
:104BF4002046FFF77AFF012322688340C2F8083376
:104C0400236803EB8000D0F8103523F00303C0F8C9
:104C1400103538BD2846BDE838400021FFF740BFB5
:104C24002DE9F0431746044685B00846FDF760FDBC
:104C3400D7F800800E460546B8F1000F1ED0204676
:104C4400FFF748FF18B12046FFF739FF20BB0023C8
:104C54000DF10F02CDE900338DF80E308DF80F30D1
:104C6400304643460DF10E01FFF7D1FE04EB450239
:104C7400938A23F0020343F0010393827B689BB37E
:104C84003146204693F80080D3F80490FFF722FFC2
:104C940028B1B9F1000F1FD06FF0150027E004EB25
:104CA4004500838A23F4604323F020038382B9F10F
:104CB400000F11D0B8F1030FEED87B6821685B6850
:104CC40093F800C04FEA8C031944B8F1000F11D1D6
:104CD400C1F81085C1F8108504EB4502938A23F0CE
:104CE4001C0343EA88039382BB6843BB002005B0DE
:104CF400BDE8F083D1F8102522F00302C1F8102595
:104D040022681344D3F8102522F44F3222F440725F
:104D1400C3F810253202D3F8101502F47C5242EA8B
:104D240008420A43C3F8102504EB4C03A3F87C6043
:104D3400838A43EA4C3343F020038382CCE7314631
:104D4400D3E900782046FFF7F9FE002FCED0636840
:104D54009F4206D004F17800FFF76DFD002804DAC5
:104D6400C5E7A3689845F5D1002004EBC003C3E967
:104D7400017804EB4505AB8AC0B243EA402343F40F
:104D84008073AB82B2E72DE9F043054685B008464F
:104D940016461F46FDF7ACFC0C46804626B3284653
:104DA400FFF798FE18B92846FFF789FE18BB05EBF4
:104DB4004809B9F8143003F01C0313B17378012BBC
:104DC40019D001238DF80F3000232046CDE900636C
:104DD400721CB31C0DF10F01FFF719FEB9F8143062
:104DE40043F00303A9F81430002F3FD0214628468E
:104DF400FFF770FE20B96FF0150005B0BDE8F08331
:104E040000223E782B684FEA860C03EB8603C3F836
:104E14001025C3F8102505EB4802938A23F4604358
:104E240023F020039382787800B32968BF78614423
:104E3400D1F81035000423F4991323F4F853C1F87E
:104E44001035230200F4403003F47C530343380547
:104E5400D1F8105500F4801003432B43C1F81035EA
:104E6400938A43EA463343F0200393820020C4E745
:104E7400C0E90312704770B504461546FFF71FFEDC
:104E840048B10846FDF734FC04EB40040020A38A33
:104E94005B0B2B7070BD6FF01500FBE790F88C0076
:104EA400003818BF01207047FDF748BC2DE9F341D5
:104EB40004461746FFF703FE0D462668F0B1204668
:104EC400FFF708FE8046C8B92046FFF70EFE8200B1
:104ED40002F5807346F80380F35823681344D3F82B
:104EE400102542F00102C3F8102527B101232268DE
:104EF4008340C2F8043302B0BDE8F081D6F804332D
:104F04002846002BA4BF4FF00043C6F80433FDF736
:104F1400EFFB04EB4004A38AC3F38203042B11D0F8
:104F2400052B11D001A80195FDF7D0FB019B016968
:104F3400D94001F001010231284602B0BDE8F04138
:104F4400FFF7AEBD0321F7E70221F5E7FFF746BE01
:104F540008B1FCF723BA704710B5436904463BB95E
:104F64000020E2684042537843F00103537010BDBF
:104F740098470028F4D00028B8BF4042FF28A8BFB3
:104F8400FF20E3681870ECE740B1C368587810F06C
:104F940001001EBF1878B0FA80F040097047EFF3A3
:104FA4001183202383F31288BFF36F8FFEE708B5C4
:104FB400FFF7F5FF10B542696AB1836842EA03015D
:104FC400890708D10169A2FB011424B95B182CBF1D
:104FD4000121002102D36FF0150005E0C1609B1A86
:104FE40002698A4201D8002010BDC26801311A60EA
:104FF4004269C3609B1AF3E710B5C0E90432002389
:10500400816083610446FFF7D5FF08B9C4E9004411
:1050140010BD2DE9F04105460F46EFF3118820231A
:1050240083F31288BFF36F8FC668FEB90468A04289
:105034001CD0DCB1D4E9003213605A60237CC4E98B
:10504400006623F002032374A66004F1180000F044
:10505400F6F82046C4F8AC60676100F06AF841468F
:1050640005F10800BDE8F04100F096B83E60AB6978
:10507400EF60013BAB6188F31188BFF36F8FBDE82C
:10508400F081202408B5EFF3118384F31288BFF371
:105094006F8FFFF751F9F6E790F90E308B4201D08C
:1050A400FEF778B80020704703460020C3E90033B8
:1050B400C3E902007047EFF30580003818BF0120F0
:1050C4007047D0E9003213605A600023C0E900330E
:1050D400704708B5FFF7F5FF037C23F00203037460
:1050E4000023836008BD38B504460D46FDF7ECFF88
:1050F400237C43F002032374D5B1A5602B689D4241
:1051040009D16B68C4E900531C606C6010E06A68E4
:105114009A42F6D01B68002BF3D093F90E1094F941
:105124000E209142F3DD5A68C4E9003214605C60D9
:1051340038BD10B5EFF31184202383F31288BFF335
:105144006F8FFDF785FF84F31188BFF36F8F10BD58
:1051540008B5037C014613F0280F0CD183680BB10A
:10516400FFF7B7FF0B7C084623F004030B74BDE87C
:105174000840FDF76DBF08BD10B5EFF3118420237F
:1051840083F31288BFF36F8F1838FFF7E1FF84F3BE
:105194001188BFF36F8F10BD0846FDF7C9BF38B53E
:1051A4000C460546FEF7D6F8B4F1FF3F08BFB5F14B
:1051B400FF3F1FBF47F6FF7300224FF47A71E0FBF5
:1051C400013216BFD80B4FF0FF3040EA424038BDE1
:1051D40038B50446EFF31185202383F31288BFF317
:1051E4006F8F037C5B070ED5183000F028F8237C02
:1051F400204623F004032374FDF72AFF2846BDE864
:105204003840FDF795BF85F31188BFF36F8F38BD24
:1052140008B50246FEF790F970B1D0E904319B1A43
:1052240061EBE272B3F1004F72F1000104DA002A7B
:10523400ACBF1846002008BD6FF00040FBE70246F3
:1052440038B5EFF31185202383F31288BFF36F8FF2
:105254000368D3B1FEF770F904461046FEF77EF9F1
:1052640000224FF000438442C0E9042305D000200B
:1052740085F31188BFF36F8F38BDFEF765F9FFF72B
:10528400C7FF0021FCF738FFF1E7D0E90413B3F1BD
:10529400004F08BF012904D100204FF00041C2E9AA
:1052A40004016FF01500E3E708B5FEF75DFA08BDE9
:1052B40000BF0020704770470A44431E914200D14A
:1052C400704710B511F8014B914203F8014FF9D121
:1052D40010BD02440346934200D1704703F8011BFA
:1052E400F9E70139034610B532B111F8014F013A1B
:1052F40003F8014B002CF7D11A440021934200D14A
:1053040010BD03F8011BF9E70246014410B58A42B7
:10531400134603D01C780132002CF8D1181A10BDA2
:10532400F0B5C3F13707044603F01F031046FFB27C
:10533400082BE6B232D0102B3DD06508A40845EA0C
:10534400C17544EA81748A082D1942EB5102290976
:1053540041EA02716D1842EB1212290A41EA026114
:105364006D1842EB1222290C41EA02416D1842EBFE
:105374001242AD1842F10002EC0844EA4274D1082A
:1053840004EB8402A6EB4205EDB2092D0CD90134DD
:10539400A5F10A0541F10001EDB212E0E40806F0BE
:1053A400070544EA4174C908303554EA010200F89B
:1053B400015BBDD1F0BD240906F00F0544EA017478
:0C53C4000909092D84BFED19EDB2EDE7D9
:1053D000291400000000000000000000305400000C
:1053E0007D2C000000000000000000006854000058
:1053F000000000004C5400000148000000000000C4
:10540000000000008454000071170000000000003C
:10541000A11F000000000000791200000000000041
:105420000548000000000000F50300000000000037
:10543000C25E0000405800004C5700005801002098
:10544000D80A0020B914000000000000CD5E000062
:1054500060580000285700005A0100207C0B0020F3
:105460008D19000000000000D95E00007458000093
:10547000285700005C010020880B00208D190000D7
:1054800000000000E55E000088580000685700003A
:105490005E010020940B0020034700000000000084
:1054A0000000000017430000000000001743000048
:1054B0000000000017430000000000001743000038
:1054C00000000000174300001B49000031480000A5
:1054D0000000000017430000000000001743000018
:1054E00084540000A34600000000000017430000A1
:1054F00000000000174300000000000017430000F8
:105500000000000017430000340000202746000080
:1055100000000000174300000000000017430000D7
:1055200000000000174300000000000017430000C7
:1055300000000000174300000000000017430000B7
:1055400000000000174300000000000031200000B0
:105550000000000017430000000000001743000097
:105560000000000017430000000000001743000087
:105570000000000017430000000000001743000077
:105580000000000017430000000000001743000067
:105590000000000017430000000000001743000057
:1055A0000000000017430000000000001743000047
:1055B0000000000017430000000000001743000037
:1055C0000000000017430000000000001743000027
:1055D0000000000017430000000000001743000017
:1055E0000000000017430000000000001743000007
:1055F00000000000174300000000000017430000F7
:1056000000000000174300000000000017430000E6
:1056100000000000174300000000000017430000D6
:1056200000000000174300000000000017430000C6
:1056300000000000174300000000000017430000B6
:1056400000000000174300000000000017430000A6
:105650000000000017430000000000001743000096
:105660000000000017430000000000001743000086
:105670000000000017430000000000001743000076
:105680000000000017430000000000001743000066
:105690000000000017430000000000001743000056
:1056A0000000000017430000000000001743000046
:1056B0000000000017430000000000001743000036
:0856C000000000001743000088
:1056C800600200202810002000040000550100009E
:1056D80000000000000000000000000007000000BB
:1056E80000000000BD59000000000000000000009C
:1056F800B0010020280C0020000400006D0100000B
:10570800000000000000000000000000070000008A
:1057180000000000B4590000000000000000000074
:10572800C11700008B45000097450000AB450000FD
:10573800B5450000BF450000C9190000D345000069
:04574800000000005D
:10574C0019150000DF440000454500000000000072
:0C575C007D440000000000000000000080
:0C5768005D460000991C00004F46000048
:10577400040000000F000000010000000800000009
:105784002000000060000000700000001000000015
:105794000C0000000E000000500000007400000027
:1057A400A8000000FFFFFFFFFFFFFFFFFFFFFFFF59
:0457B400FFFFFFFFF5
:1057C0000338FDD87047000000000000F7420000D9
:1057D0001C000020140000200C000020000000002D
:1057E000040000204D0500001D04000071040000AD
:1057F000E504000000000020000000000600010099
:10580000020000000858000000000000B35E000025
:1058100006000000E0FF0F0000000020BB5E00005B
:1058200021000000E0FF06201B440000F9430000B7
:105830000000000075140000451400000000000086
:10584000C915000049150000874500008345000088
:105850006B4500007745000065450000714500007C
:10586000FFFF0000002884503400002000000000EA
:1058700001000000FFFFFFFF0025845034000020DE
:105880000000000000000000008000500100000047
:1058900000000000AC5800000000D601000000002D
:1058A00000000000240C0020230C00200080005089
:1058B000B858000001000000C058000004000000BB
:1058C0001400000013000002160600011506000374
:1058D00008000000030000000800000003000000B2
:1058E000D0530000D853000010540000185400009A
:1058F0002854000030540000FF8FFFFFFF8FFFFF90
:10590000FE8FFFFFFE8FFFFFFD8FFFFFFC8FFFFF6E
:10591000FC8FFFFFFB8FFFFF6D757465785F66720C
:1059200065652063616C6C65642077697468204EDE
:10593000554C4C20706172616D6574657200000099
:1059400043616E277420696E697469616C697A6558
:10595000206D757465782C20776173204E554C4C02
:105960000D0A0000436F756C64206E6F74206C6FBD
:10597000636B20706F7765722073617665206D753B
:105980007465780048656C6C6F2C204920616D202F
:105990005468726561642030200D0A0048656C6CA3
:1059A0006F2C204920616D2054687265616420313C
:1059B000200D0A007468726561645F31007468725A
:1059C0006561645F30002A2A2A20426F6F74696E15
:1059D00067206E524620436F6E6E65637420534499
:1059E0004B2076332E342E302D3939353533303542
:1059F0003536303762202A2A2A0A002A2A2A2055D8
:105A000073696E67205A6570687972204F532076EB
:105A1000342E342E302D626638303165346533646F
:105A20003139202A2A2A0A006D757465785F696EFB
:105A300069742063616C6C65642077697468204EBA
:105A4000554C4C20706172616D6574657200436FD6
:105A5000756C64206E6F7420616C6C6F636174652B
:105A6000206D75746578206265666F726520696E59
:105A7000697469616C697A696E670072302F61318F
:105A80003A2020307825303878202072312F61324A
:105A90003A2020307825303878202072322F613338
:105AA0003A20203078253038780A0072332F61345C
:105AB0003A2020307825303878207231322F6970C2
:105AC0003A2020307825303878207231342F6C72AB
:105AD0003A20203078253038780A002078707372A8
