:10000000C0320020B90E000021650000A50E0000DE
:10001000A50E0000A50E0000A50E0000A50E000014
:10002000000000000000000000000000910F000030
:10003000A50E00000000000031110000A50E000018
:10004000B1110000B1110000B1110000B1110000A8
:10005000B1110000B1110000B1110000B111000098
:10006000B1110000B1110000B1110000B111000088
:10007000B1110000B1110000B1110000B111000078
:10008000B1110000B1110000B1110000B111000068
:10009000B1110000B1110000B1110000B111000058
:1000A000B1110000B1110000B1110000B111000048
:1000B000B1110000B1110000B1110000B111000038
:1000C000B1110000B1110000B1110000B111000028
:1000D000B1110000B1110000B1110000B111000018
:1000E000B1110000B1110000B1110000B111000008
:1000F000B1110000B1110000B1110000B1110000F8
:10010000B1110000B1110000B1110000B1110000E7
:10011000B1110000B1110000B1110000B1110000D7
:10012000B1110000B1110000B1110000B1110000C7
:10013000B1110000B1110000B1110000B1110000B7
:10014000B1110000B1110000B1110000B1110000A7
:04015000B1110000E9
:1001540053B94AB9002908BF00281CBF4FF0FF312A
:100164004FF0FF3000F00CB8ADF1080C6DE904CE8F
:1001740000F008F8DDF804E0DDE9022304B070477C
:10018400704700BF2DE9F0478C468E46089E154601
:1001940004461946002B40F0D080724547D9B2FA84
:1001A40082F74FB1C7F120030EFA07FCBD40BC40F3
:1001B40020FA03F343EA0C0C4FEA154EA8B2230CC1
:1001C400BCFBFEF80EFB18CC08FB00F943EA0C4319
:1001D400994528D9EB1808F1FF3204D2994502D980
:1001E400A8F102022B44A3EB0903A4B2B3FBFEFC67
:1001F4000EFB1C330CFB00F044EA0344A04214D968
:100204002C190CF1FF3304D2A04202D9ACF1020341
:100214002C44241A43EA02401EB1FC4000233460FB
:100224007360BDE8F0874246DDE76346F1E7002AE4
:1002340079D0B2FA82F3002B3FD01946C1F12003E2
:1002440002FA01F500FA01F42EFA03F20EFA01FEA5
:1002540020FA03F3AFB243EA0E034FEA154EB2FBA2
:10026400FEFC0EFB1C201A0C0CFB07F842EA0042B1
:1002740090455AD9AA180CF1FF3004D2904502D9FE
:10028400ACF102002A44A2EB08029BB2B2FBFEFCD2
:100294000EFB1C220CFB07F743EA02439F4246D99C
:1002A400EB180CF1FF3204D29F4202D9ACF10202E6
:1002B4002B44DB1B42EA004202E0AEEB02030122C4
:1002C4004FEA154EAFB2200CB3FBFEFC0EFB1C3301
:1002D4000CFB07F840EA034398452AD9EB180CF1C4
:1002E400FF3004D2984502D9ACF102002B44A3EBB1
:1002F4000803A4B2B3FBFEFC0EFB1C330CFB07F794
:1003040044EA0344A74216D92C190CF1FF3304D252
:10031400A74202D9ACF102032C44E41B43EA004097
:100324000F46114678E71F2188E76046ABE762462F
:10033400BFE76046DBE76346EFE7734506D916B9C6
:10034400002108466DE7C6E9000EF9E7B3FA83F722
:1003540087B9734501D3824207D8841A6EEB03032D
:1003640001209C461EB900215BE73846FAE7C6E93E
:10037400004CF8E7C7F1200CBB4000FA07F422FA5E
:100384000CF520FA0CF1BA401D432EFA0CF30EFAC8
:1003940007FE4FEA154941EA0E011FFA85FEB3FB39
:1003A400F9F809FB18300B0C08FB0EFA43EA00437A
:1003B4009A4540D9EB1808F1FF3004D29A4502D986
:1003C400A8F102002B44A3EB0A0389B2B3FBF9F8AA
:1003D40009FB183308FB0EFE41EA03418E452CD974
:1003E400691808F1FF3304D28E4502D9A8F102033B
:1003F400294443EA0040A1EB0E01A0FB02984145C9
:10040400CE46434602D306D14C4504D20138B9EB5B
:10041400020E68EB0503002EA5D0B4EB0E0261EBCF
:10042400030101FA0CFC22FA07F3F9404CEA030336
:10043400C6E9003197E74046C5E74346D9E70000DF
:1004440030B58BB06C460F4D4FF0FF324FF0FF3399
:100454000D4802F05DFE0FCD0FC40FCD0FC495E81B
:10046400030084E80300084802F0C4FEDDE900123A
:10047400064802AB05F070FF002142F2676006F007
:10048400CAFFDFE700000020A4010020107D000067
:100494007FB50646234D042103A806F0F9F8152379
:1004A400039CB4FBF3F203FB12440A3C4FF0FF320B
:1004B4004FF0FF331C4802F02BFE2B681B4A2344E9
:1004C4002B606B68202101336B60194B194813EAC8
:1004D400240338BF1346184ACDE90034334605F0E7
:1004E400E9FB4FF4967006F06FFE0F4802F082FEAF
:1004F400042103A806F0CCF81E23039C4FF4004CFF
:10050400B4FBF3F240F2E730002103FB12444FF452
:100514007A720023E4FB0C01FFF71AFE06F07BFF5E
:10052400B9E700BF00000020A4010020557D0000B1
:100534004682000008000020577D0000014B1B6824
:10054400184700BF28000020014B1860704700BF07
:100554002800002030B5044685B00D461022002145
:10056400684607F00BF802238DF80230044B2A4644
:1005740021466846019305F0C7FB05B030BD00BFB6
:100584004105000080B505460E461746984603F01F
:100594007DF9034600F01CFE0446DFF8189042463D
:1005A40049F8003039463046A84754F8090000F0AD
:1005B400A7FD00BF080000002DE9F047058B0446A5
:1005C400280717460CD501290CBF45F0100545F046
:1005D4002005258387F31188BFF36F8FBDE8F0876B
:1005E400022905F0070540F09480204605F0C1FE7D
:1005F400052864D801A353F820F000BFD9050000F2
:1006040017070000C3060000850600009F060000CF
:10061400B106000001F007035A1F012A1FD8002267
:1006240021F00701062BD4F8008089B2C4E9002226
:1006340009D1434603E0628B013262831B68002BBD
:10064400F9D141F002012046218305F092FE4FF0DA
:10065400000900286DD041F02001218369E0042BBA
:100664000AD121F0070189B22046218305F081FED9
:1006740010B141F0200121834FF00008C14658E039
:100684002369D3F80090238B23F0070343F0060378
:100694004FF00008238346464BE02369D3F80490C7
:1006A400238B23F0070343F00403F1E72369D3F812
:1006B4000890238B23F0070343F00503E8E74FF08A
:1006C4000008C146E7E7012243F00803238387F3C8
:1006D4001188BFF36F8F002A3BD1B8F1000F4AD1C4
:1006E400B9F1000F02D020462C49C847EFF3118717
:1006F400202383F31288BFF36F8F238B23F0080327
:100704009BB22383D9063FD523F01002228303F042
:1007140007056669218B002EBFF67CAF002399463E
:10072400D4F8008021F00701C4E9003341F001014D
:100734002183238B03F0070AAA4502D0A268002A6A
:10074400C1D1B8F1000F02D1B9F1000FDAD0002203
:10075400BAE7A1680029C0D00D680029BDD033468E
:10076400524620464F68B8471DB12B6829461D469E
:10077400F3E72B46FAE74146334652462046D8F87B
:10078400008005F022FEA8E79A067FF523AF23F048
:100794002002228303F0070527E700BFFB63000064
:1007A400014B036000207047087B000008B5044833
:1007B40005F0D2FD034805F0CFFD002008BD00BFC1
:1007C400937D0000C87D0000014803F02DBB00BFED
:1007D400087B000038B5044618B90F4B0F485B6816
:1007E40098476168B1F5683F10D0B1F5680F0DD036
:1007F4000B4DA9420AD011F46861206807D0014664
:10080400084806F042FD00232360656038BD1422C9
:1008140006F0B4FEF9E700BF08010020F57D0000F2
:100824002C5F5CA9500C002008B560B34368B3F595
:10083400683F0ED0B3F5680F18D0144A934220D005
:1008440000684FF0FF324FF0FF3302F061FC58B103
:1008540015E001220368D3E8EF1F002903D1C3E8A0
:10086400E02F0028F7D10AD1002008BD0368084A08
:100874001B7803F5807352F82330002BF4D005481D
:10088400F3E70548F1E76FF4E040EEE72C5F5CA97D
:1008940000000350E98FFFFFEA8FFFFF08B520B384
:1008A4004368B3F5683F09D0B3F5680F13D0114A14
:1008B40093421DD0006802F09DFC14E000220368FE
:1008C400D3E8EF1F012903D1C3E8E02F0028F7D1B3
:1008D40009D0094808BD00210368084A1B7803F5BC
:1008E400807342F823100020F4E76FF4E040F1E74E
:1008F4000348EFE72C5F5CA9E98FFFFF000003507A
:10090400EA8FFFFF10B5044618B91D4B1D485B68FC
:1009140098476368B3F5683F2FD0B3F5680F2CD0C0
:10092400194A934219D1236803BB4FF0FF324FF0A9
:10093400FF332146154802F0BDFB08B923681BB9F3
:100944000F4B13485B68984714220021206806F077
:1009540015FE4FF46863636008E0B3F5680F0DD8C3
:100964003A2B03D040F6BA629342DED1206806F0F7
:10097400D7FC636843F03A03636010BD054AF3E7AC
:1009840008010020F57D00002C5F5CA9500C0020BC
:100994001B7E00003A00003A08B5064940231422A1
:1009A400054806F065FCBDE808400449044803F026
:1009B400CBBC00BF50070020500C0020107B00006F
:1009C400247B000008B50348034A0021121A05F0ED
:1009D4009DFD08BD080200207C110020074808B5D1
:1009E400074A0849121A05F093FDBDE80840064875
:1009F400064A0749121A05F08BBD00BF000000200B
:100A040008020020048300000000002000000020F1
:100A14000483000038B505460C4699B1D1E9012399
:100A24000F48096805F098FCD4E90423E1680D48EF
:100A340005F092FCE1690C4805F08EFCA1690B48B5
:100A440005F08AFC012D05D1EFF305810848103922
:100A540005F082FC21462846BDE8384002F0E4B99E
:100A6400487E0000787E0000A87E0000B87E00006A
:100A7400E77E000030BFFFF7FDBF00BF2DE9F04166
:100A840005460B4EDFF82C80324606EB0807CC1BDC
:100A94002046094906F04CFDA01942460021083CB5
:100AA40006F06CFDC5F8A44007F10800BDE8F0812C
:100AB4000000000004000000007B000010B5204C82
:100AC400204805F049FCA36A990137D51E4805F072
:100AD40043FC1E20A36ADA0103D51C4805F03CFC44
:100AE4001F20174CA36ADB0203D5194805F034FC18
:100AF4000220A36A1C0303D5164805F02DFC21200F
:100B04000F4CA36A590303D5134805F025FC222092
:100B1400A36A9A0303D5114805F01EFC2320084C50
:100B2400A36ADB0303D50E4805F016FC2420A36A50
:100B34006FEA03436FEA1343A36210BD1D20C9E7A4
:100B440000ED00E0FB7E0000147F0000287F000021
:100B5400437F00006E7F00008D7F0000B37F0000A4
:100B6400CE7F000070B5244C064624480D4605F09F
:100B7400F3FBA36AD90435D5214805F0EDFB172012
:100B8400A36A1A0503D51F4805F0E6FB18201A4C82
:100B9400A36A9B050FD51C4805F0DEFBA16BA36A75
:100BA400180407D5194805F0D7FB1EB1A36A23F42E
:100BB4000043A3621920104CA36A590503D51448B5
:100BC40005F0CAFB1A20A36ADA050DD5114805F011
:100BD400C3FB1B20084A936A43F47F4393620023B8
:100BE4002B7070BD1620CBE7A36A9B04F2D50A488C
:100BF40005F0B2FB1C20EDE700ED00E0FA7F0000F9
:100C04001180000023800000378000005180000024
:100C140067800000838000009C80000070B5264C33
:100C2400064626480D4605F097FBA36AD80640D52C
:100C3400234805F091FB1120A36A190703D5214825
:100C440005F08AFB12201C4CA36A9A070FD51E4894
:100C540005F082FB616BA36A1B0607D51B4805F0F0
:100C64007BFB1EB1A36A23F08003A3621320124C02
:100C7400A36ADE0703D5164805F06EFB1420A36AA9
:100C84009C0603D5134805F067FB15200A4B9A6AA6
:100C9400D10658BF9A6A9A6A920642BF5A6A22F4E7
:100CA40000525A629A6A42F0FF029A6200232B7041
:100CB40070BD1020C0E700BF00ED00E0CC80000054
:100CC400E3800000238000001781000030810000D1
:100CD400478100009C8000002DE9F0415D4B0446F3
:100CE4005F6800258AB0C7F3080685F31188BFF34F
:100CF4006F8F02F07F43B3F17F4F06D102F00C03F4
:100D0400082B13D1544805F027FB00252C464FF03F
:100D14000008F31E8DF80780092B00F28B80DFE8B2
:100D240003F00A7F837B89898989898710074CBFEF
:100D34000C460125EBE74948464E05F00DFB8DF8BE
:100D44000780F36A9A0704D5454805F005FB00239C
:100D54002AE0F36A002B01DA4248F6E7F36A5B0003
:100D6400F5D5414805F0F8FA7369A26943F4807334
:100D74007361BFF34F8FBFF36F8F32F8023C726918
:100D840022F480727261BFF34F8FBFF36F8F03F44D
:100D94007F42B2F55F4F27D1DBB2022B24D1216809
:100DA400324805F0D9FA23689DF80720CAB902AE83
:100DB40004F12007324620686168083403C2BC424B
:100DC4001646F7D1099A002D40D0C2F3080121B983
:100DD4006FEA52226FEA42220992184602A9FFF7EB
:100DE40019FE0AB0BDE8F0811A4B9A6AD2B22AB150
:100DF40001200DF10701FFF711FF0FE09A6A12F4C9
:100E04007F4F05D001200DF10701FFF7ABFE05E090
:100E14009B6AB3F5803F9AD3FFF750FE0346C3E7BE
:100E240000200DF10701E6E700200DF10701ECE7D2
:100E34000F488AE70F4B17F4F87F0F490F4808BF94
:100E44001946A6F1100205F087FA80E76FF308024D
:100E5400C2E700BF00ED00E095810000C181000001
:100E6400D9810000FB8100000A8200002A82000070
:100E740047820000678100007C8100006C820000D2
:100E8400064B5A6942F010025A615A6942F4806270
:100E94005A615A6922F008025A61704700ED00E075
:100EA400EFF30880EFF3098101B57246FFF714FFF1
:100EB40001BD00BF002080F31488BFF36F8F0020B2
:100EC40080F30A8880F30B88104880F30888002098
:100ED4000F49087001F052FB00200E490860BFF36F
:100EE4004F8F00F02DF8202080F311880A484FF42A
:100EF4000061401880F30988EFF31480022108434D
:100F040080F31488BFF36F8F00F092F8C032002092
:100F14007911002094ED00E0802100200023184680
:100F24000649D1F89020C2F30722934200DB7047B0
:100F3400C1F89830C1F8A0000133F6E700ED00E0F5
:100F440010B572B6002484F31388FFF7E7FF234635
:100F54004FF0FF300C4A03F120010133102B42F80B
:100F64002100F8D100234FF0FF30074A03F160015C
:100F74000133102B42F82100F8D162B6BFF34F8F32
:100F8400BFF36F8F10BD00BF00E100E01EF0040F3F
:100F94000CBFEFF30880EFF30980816911F8021C9C
:100FA4000229FFD001B5724605F0B4FA01BD00BFB5
:100FB40040B2002807DB01234109034A00F01F0067
:100FC400834042F82130704700E100E0054B4209BC
:100FD40053F82220012300F01F0003FA00F0104010
:100FE400704700BF00E100E040B2002801F10101B8
:100FF400ACBF00F16040064B4FEA4111C9B2ABBF30
:1010040000F5614000F00F0080F800131954704798
:1010140014ED00E0044B054A23F07F039360BFF313
:101024004F8FBFF36F8F70470000000000ED00E0AA
:1010340008B5FFF7EFFF074AD2F8883023F47003AE
:10104400C2F88830FFF7BEFCFFF7C8FC00F0A2F836
:1010540001F0B4FF00ED00E042F8203C009B0B4996
:1010640042F81C3C019B21F0010142F8183C029B10
:1010740042F8081C42F8143C4FF0807342F8043CD8
:101084000023203A0265C0F8A830704789050000A3
:1010940000B50E4B15469860D0F8A4200C4B0E46B4
:1010A4001A60D0F8943083F30B882C4686F30988B1
:1010B4000020044B98472046002100220023024CC4
:1010C400204700004765000089050000E00D00206E
:1010D4006C0C00201022014B1A61704700ED00E0F7
:1010E400054B5A699B689A421FBF044A536843F0F0
:1010F40080535360704700BFE00D002000ED00E016
:10110400084B9B6883420BD1EFF3058343B1064B35
:101114005A6842F080525A605A6A22F400425A6273
:1011240002F0BABBE00D002000ED00E016498A6829
:101134004FF030001044EFF3098C80E8F01F2020BA
:1011440080F31288BFF36F8F104F4FF000664A6927
:101154008A603E60D2F8A4000D4C2060D2F8A8004A
:101164000023C2F8A83080F3118802F1300090E81F
:10117400F01F8CF3098802F1000004B505F0D9F9D9
:10118400BDE8044070470000E00D002004ED00E0DD
:101194006C0C0020002320210348C2180133452B86
:1011A40082F80013F9D1704700E100E008B5EFF3CD
:1011B4000583064A103B02EBC30152F83300496829
:1011C4008847BDE80840FFF78BBF00BF8877000061
:1011D40001480068704700006C0C00201FB5012115
:1011E400094B0A4A0A4800F0F7F80023064A039319
:1011F400084B0121019301A8D31A029300F0F6F8D9
:1012040005B05DF804FB00BF0000072000000020CB
:10121400347B0000080200200A7A0B6810B562F3E0
:1012240004031C46CB68520923F01F0343EA42031C
:10123400044A43F00103C2F89800C2F89C40C2F883
:10124400A03010BD00ED00E010B5074BD3F890308E
:10125400C3F30723013B984202D8FFF7DDFF10BD1B
:101264006FF01500FBE700BF00ED00E02DE9F04F43
:101274000F46144606464FF000084B4D85B0B8455E
:1012840080F28E80D6F80490B9F1000F35D0B9F110
:101294001F0F40F2838019F01F0F7FD1D6F800A0F2
:1012A4001AF01F0F7AD1504605F087F9834609EBEF
:1012B4000A00013805F081F983456FD11BF1160F3F
:1012C4006CD05C456ADDC5F898B0D5F89C10C5F8BB
:1012D40098B0D5F8A03021F01F0143F01F0AD6E9D9
:1012E40000321A44994202F1FF391BD1CA4508D190
:1012F40031465FFA8BF005F069F908F101080C3604
:10130400BDE73146C5F898B0D5F89C30E0B263F338
:101314000402C5F89C2005F059F910F1160F3DD0D0
:10132400441CEAE7C5F898B0D5F8A020013B23F0A7
:101334001F0302F01F021343CA453146E0B2C5F849
:10134400A030E8D005F042F910F1160F26D0C5F808
:1013540098B0D5F89C209DF808300AF1FF3A62F362
:1013640004038DF80830D5F8A0309DF808205B08F8
:1013740063F347128DF80820D6E900321344009332
:1013840023F01F035344A3EB0903013023F01F038D
:101394006946C0B20393FFF757FFBEE76FF0150429
:1013A400204605B0BDE8F08F00ED00E00522044BB7
:1013B400C3F89420BFF34F8FBFF36F8F704700BF04
:1013C40000ED00E0BFF35F8F0022024BC3F89420CE
:1013D400704700BF00ED00E010B5034C2278FFF722
:1013E40045FF207010BD00BF741100202DE9F74F98
:1013F400294D8A4606464FF00008AB46274FD04594
:101404001BDAD6F80490B9F1000F3FD031680846D2
:10141400019105F0D2F80199044609EB0100013865
:1014240005F0CBF884424FF014021D4B08D002FBA8
:1014340008F36FF015024BF8032003B0BDE8F08FFA
:1014440014F1160F2C60F8D01978A142F5DD02FBD7
:1014540008B0C7F89840C7F89840D7F89C4000F106
:101464000801007B64F304000871D7F8A0000C792C
:10147400400860F347140C71D7F89C1021F01F0149
:101484006960D7F8A01021F01F01296108F1010853
:1014940014350C36B3E700BF700C002000ED00E0FB
:1014A40074110020F0B55349534DD1F890302C6895
:1014B400C3F307239C4287B000F299800020FFF712
:1014C40081FF4E4BC1F8C030844216D14C4D01A867
:1014D4002C70FFF765F9002607464A4CB74213D132
:1014E40000202B784349D1F89020C2F3072293427D
:1014F40077DBFFF75BFF002046E0696801EB001132
:10150400FFF78AFE0130DFE70199300101EB061392
:10151400DA682240B2F1807F52D00AD8B2F5001FB7
:1015240034D0B2F5800F3ED0B2F5801F12D0013610
:10153400D4E7B2F1006F43D0B2F1805FF7D15A68BB
:101544009B680958013B22F01F00034423F01F034A
:10155400012032E05A689B680958013B22F01F00C1
:1015640003440120844623F01F0340EA4C10CDE9D4
:1015740002218DF8100002A928780593FFF764FE74
:1015840000282ADA6FF0150007B0F0BD5A689B688E
:101594000958013B22F01F0003444FF0020C0120C4
:1015A40023F01F03E1E75A689B680958013B22F0C6
:1015B4001F000344062023F01F034FF0000CD4E760
:1015C4005A689B680958013B22F01F0003444FF0FE
:1015D400030C012023F01F03C7E72B7801332B7082
:1015E400A5E7C1F89830C1F8A00001337BE74FF0BC
:1015F400FF30C9E700ED00E0407B0000AAFF440093
:10160400741100200000F0FF08B5024B1B689847D6
:10161400002008BD840C0020034B044A1860937812
:1016240043F0020393707047840C00204C000020A8
:1016340008B50649064821F00701C1F1005202F538
:10164400E02204F035FE002008BD00BFC7320020B0
:10165400880C0020052370B5144D154E2C780134E8
:10166400B4FBF3F303EB8303E41A05F0FFF9114A27
:10167400137823B156F82430C01A072814D94FF030
:101684005023D3F8141141B10021C3F81411D3F835
:1016940014312C700CB9012313702C7805F0E6F981
:1016A40046F82400012070BD0020FCE776110020DC
:1016B400940C002075110020054B03EB8000D0F83A
:1016C400003223F0E04343F04053C0F80032704747
:1016D40000258450012208B50B4B0C49C3F80025A2
:1016E40002230020C1F8D036FFF7E6FF1046FFF7CB
:1016F400E3FFC1F80427C1F80429C1F8002BBDE8B1
:10170400084000F065B800BF0010005000400050D1
:1017140007B500220D4B0E49C3F8A821C3F8AC202D
:101724004FF48062C3F8B8254FF400620948C3F847
:101734003C250DF1070205F0EDF9002803DB9DF8C7
:10174400070001F007F803B05DF804FB00A00250A5
:101754002CA0025028A1025048B1054B054A1B6831
:10176400B3FBF2F35843044B43F0010318477047AB
:10177400EC00002040420F00007B000070B5002503
:10178400104E1149114C000716F8013B03F01F02DB
:101794005B090FD0012B0FD1234603EB8203D3F84F
:1017A4000022013522F0E0420243042DC3F8002256
:1017B400EAD170BD0B46F0E70023803253F82230A3
:1017C400FFDE00BFE582000000258450002884501D
:1017D4000149024804F01CBE687B0000A80C0020EC
:1017E40008B54FF0FF33044A13603F23104653609B
:1017F40000F09CFF002008BDC40C0020F7B506468D
:101804000D461446124F384605F0FAFCE0B1BB68A9
:10181400314638461B68AAB29847002802DB0020EC
:1018240003B0F0BD002CFBD1AC42F8D22F1B042F27
:1018340028BF042705F01AF93A46019001A9301986
:1018440005F076FE3C44EFE76FF01200E8E700BFD6
:1018540050770000084B70B5C31A0D4607499B101A
:10186400044659434022064804F01EFF2B46014615
:101874002046BDE870401847E00C0020B76DDBB689
:10188400FC760000402373B50B4C0093041B0B46FD
:101894000D460A49A41061430646094A094804F062
:1018A4002EFF014628B130462B4602B0BDE87040F9
:1018B400184702B070BD00BFE00C0020B76DDBB666
:1018C40071670000FC7600002DE9F8430022012135
:1018D40007460520FFF788FB114800F05BFF04462C
:1018E400C0B900F08BFF25464FF01C094FF00C08DF
:1018F4003E690C4909FB056004F08AFD031E0CDBFC
:10190400012308FB05661D44042DB367F0D120466E
:10191400BDE8F8836FF00404F9E71C46F7E700BF5D
:10192400551A0000747B00001FB5002201236C4689
:10193400CDE902236B46074ACDE9004404F00FFFCA
:1019440028B94FF480420023684601F0D7FC04B064
:1019540010BD00BF9B67000010B5EFF31184202376
:1019640083F31288BFF36F8F074A136823F00201D1
:10197400DB07116002D4012005F0FAF884F3118822
:10198400BFF36F8F10BD00BF800D00200C22104BE1
:10199400014602FB0033002030B4D3E91C5218671F
:1019A400EFF31180202484F31288BFF36F8F9C6FB0
:1019B40004F0C00444F002049C6780F31188BFF370
:1019C4006F8F1DB12B4630BC0248184730BC70479E
:1019D400E00C0020FC76000010B4EFF3118020220C
:1019E40082F31288BFF36F8F17490B6843F0020428
:1019F40013F001030C601AD04FF05023D3F80C14E9
:101A0400D3F80C3413F0010311D0EFF3118182F3F6
:101A14001288BFF36F8F0D4A936F03F0C00343F036
:101A24000203936781F31188BFF36F8F012380F35F
:101A34001188BFF36F8F1BB1002010BCFFF7A6BF46
:101A4400012010BC05F085B8800D0020E00C0020BA
:101A5400092813D8DFE800F005101212121212122E
:101A64000E0C074B986F10F0070007D1FFF78EBFDD
:101A74000220FBE70320F9E70120F7E7704700BFE6
:101A8400E00C00202DE9F041012280463749D1E8DD
:101A9400EF3FC1E8E02F0028F9D133B93449354884
:101AA4004B60CB608A6004F0C6FC08F1FF33012B65
:101AB4004FD8B8F1010F07D14FF05023D3F81C349D
:101AC40003F00303022B44D005F031FC054658B162
:101AD400EFF31186202383F31288BFF36F8F012560
:101AE4004FF05024244F22E0244B1B78002BEFD0DE
:101AF4004FF0502302220646C3F80823F0E755B3FB
:101B0400304604F03EFDD4F81835DBB2012B0ED17B
:101B1400D4F804215AB10022C4F80421D4F80421D1
:101B24000222C4F818252022C7F88021A360D4F823
:101B34001824D4F81834D203E1D503F00303022B9C
:101B440002D0B8F1010FDAD155B186F31188BFF391
:101B54006F8FBDE8F0810021212005F05CFCD2E705
:101B64004FF050230222C3F80423F2E7DC0C0020D8
:101B7400CC0C0020FC0C002000E100E079110020D6
:101B840008B5074805F03CFB38B10648FFF744FDAB
:101B94000448FEF7D9FC002008BD6FF01200FBE7F3
:101BA4006C770000AD1B00000A2838B50446074DC9
:101BB40004D1AB680D2128465B689847AB6803489D
:101BC4005B68E1B29847204638BD00BF6C770000DF
:101BD4002DE9F04340F206364768D00648BF4FF07F
:101BE400030C3B7C02EA060658BFC2F3401C87B0D4
:101BF40001F01F05B6F5837F144645EA43158DF8B9
:101C040003C043D00DD8062E16D005D8A6B1022E97
:101C14003ED06FF0150036E0B6F5807FF9D101268D
:101C24000AE040F20222964234D0B6F5407F33D027
:101C3400B6F5007FEDD1022622032FD501237A6861
:101C44008B409360B86890BB05F01F036D092CD0DE
:101C5400012D75D13C4A02EB8302C4F30043D2F850
:101C6400001283F00103C4F3404444EA430421F422
:101C7400706144EA8C0421F00F0144EA06230B430B
:101C8400C2F80032002007B0BDE8F0830726D3E78E
:101C94000426D1E70526CFE70326CDE7630341BF3A
:101CA40001237A688B40D360CCE7284AD3E72946DE
:101CB4000DF1020205F01BFA14F4403F80460CD1EA
:101CC4002946B86805F02CFAB8F1000FDAD19DF86E
:101CD4000210B86800F0AAFFD4E74FF0000901AB86
:101CE400CDE90199CDE90439CDF80C902946B868BD
:101CF40003AA05F0D1F84845C4DB14F4003314D02A
:101D04009DF80330C4F3004484F001048DF80E30D0
:101D14008DF80C608DF80D404B462946B86803AA2F
:101D240005F06DF90028CFDAACE7CDE904330DF105
:101D3400030303932946B86803AA05F0ADF8F1E755
:101D4400803350F82330FFDE00288450002584506F
:101D54004209034670B502D0012A17D070BD0D4E5A
:101D6400326951680029F9D0012503F01F030C687A
:101D74009D400029F2D08A682A4002D030464B6840
:101D840098472CB1236821461C46F2E7024EE7E748
:101D94002346F8E7347700001877000038B5456823
:101DA400A86890B105F0B6F9014670B9A86800F0CA
:101DB4000BFF044658B902460649A86805F094F991
:101DC400224605210D20FFF70FF9002038BD6FF0E2
:101DD4000400FBE7551D0000F0B544681646A068F2
:101DE400227C01F01F0587B045EA421500286CD01B
:101DF400B6F5001F04D1294605F0E4F9002055E0AA
:101E04006268607CB6F5800F50624FF0000001AA52
:101E14000190506037D1B3F1007F14BF0523042330
:101E24008DF804300023CDE904230393E3680DF116
:101E3400030723FA01F111F0010139D1B6F1A07FB2
:101E440036D105F01F036A0903F1800326D0012A65
:101E54003ED1214A52F82330DB0729D43A46294699
:101E6400A06805F044F916301AD002972946A068F4
:101E740003AA05F011F8002818DB01222946A068FE
:101E840005F050F9BAE7B3F1C06F05D0B3F1007FA4
:101E940014BF01230223C3E70323C1E70F4AD9E791
:101EA4003946A06800F0CCFE0028DEDA07B0F0BDA9
:101EB4003A462946A06805F01AF90028D6D19DF8BB
:101EC4000310A06800F0B2FED0E76FF08500EDE7E4
:101ED40051F82330FFDE00BF0028845000258450D1
:101EE400036803F01F025B09026004D0012B03485E
:101EF40018BF002070470248704700BF0028845074
:101F0400002584502DE9F74F154607464FF0010888
:101F140000EB8101B94203D1002003B0BDE8F08F8A
:101F24003B68C3F3C322082AC3F3080400F2B48055
:101F34005B48865C40F2FF12944208BF4FF0FF34C6
:101F4400B3F10C5F4FEA136215D2222A15D8DFE8E9
:101F540002F017262B3A2E353A14141414404C145C
:101F640014141414141414144F86898C1414148F18
:101F740094979A9DA0004E2A28D06FF08500CCE754
:101F8400C5F80C45621C68D001A80194FFF7A8FFAE
:101F9400019B4FF0010908FA03F383603BE0C5F8A5
:101FA40014454FF000091BE0C5F80845EAE74FF077
:101FB4000009C5F80845601C25D14EE04FF0010921
:101FC400C5F80C45F7E7C5F81045EAE7C5F8144528
:101FD400D8E7C5F80845002EE3D14FF000090626DE
:101FE400631C3AD04FF0000A17E0C5F80C45F2E73D
:101FF400C5F860457B88621C03F001032DD0002BDB
:10200400C2D14FF0010901A80194FFF769FF019BB8
:1020140008FA03F3C3604FF0010AD7F800B001A82F
:102024001BF4004F1CBF4FF001094FF0000A01944C
:10203400FFF756FF019B1B4C00EB8300D0F80022F6
:10204400CBF3412B330243EA8B0343EA0A031440E4
:10205400234343EA4903C0F8003204375AE7C5F87A
:102064006445C7E7C5F86845C4E7C5F86C45C1E7EA
:10207400C5F824454FF00109B2E7C5F8284581E7C2
:10208400C5F83045F6E7C5F83445F3E7C5F83845F3
:10209400F0E7C5F83C4575E76FF015003DE700BF74
:1020A400E9820000F0F0FCFF2DE9F04104460D4602
:1020B400476805F03CF988B14FF02008EFF311862A
:1020C400314688F31288BFF36F8F606804F013FC05
:1020D40050BB86F31188BFF36F8FEFE71F4B1B785C
:1020E400002BE9D04FF020086426606804F003FC5C
:1020F40070B9012004F0D9FC013EF6D10021212061
:1021040005F089F9F0E786F31188BFF36F8FF5E7DF
:10211400EFF31186314688F31288BFF36F8F60683E
:1021240004F0E9FB0028EED0FB6900201D70636811
:10213400FA691B68C3F844250122C3F84825C3F88B
:102144002001D3F82041C3F85801D3F858019A600C
:1021540081F31188BFF36F8FBDE8F08179110020FE
:102164000123834070B5DC430C4AD2E8EF1F01EA37
:102174000405C2E8E65F002EF7D14FF480328240B6
:102184000748C0F80823BFF35F8FBFF36F8F03EADC
:102194000100003818BF012070BD00BFAC0D002045
:1021A4000050015070B4124922F07F46D1E9003446
:1021B400D01AC31844F10004C1E90034A6F5001391
:1021C400B3F5400F09D20B4B1B681A0A1B069C1966
:1021D400094B42F10005C3E90045EFF311812023C7
:1021E40083F31288BFF36F8F70BC01F053BD00BF3F
:1021F400D8040020B00D0020E0040020D9B1012350
:102204000D4A8340D2E8EFCF4CEA030CC2E8E1CF99
:102214000029F7D14FF48033084A8340C2F80433CD
:10222400074BD3E8AF3FC340DB0742BF4FF4001274
:10223400044BC3F800217047AC0D0020005001503E
:10224400A80D002000E100E00D4B1868010A00060B
:10225400BFF35F8F0B4BD3F80435181841F100011D
:10226400B3F5801F0AD2084BD3E90023904271EBE7
:10227400030303D210F1807041F10001704700BFE5
:10228400B00D002000500150E00400202DE9F04F73
:1022940085B016461F4604469DF840A0FFF760FF30
:1022A4000190FFF7D1FFB04271EB07035CD23B4BC7
:1022B400301A67EB0101984271F1000109D36FF004
:1022C400150520460199FFF799FF284605B0BDE89A
:1022D400F08F334B03EB0413D3E902239F4208BF6F
:1022E40096424ED04FF480382E4908FA04F820461E
:1022F40026F07F4BC1F8488304F0ACFB4FF0030990
:10230400584604F15005AD00ADB205F1502504F571
:10231400A87305F580350293029A20F07F4341F8B3
:102324002230C1F84483D1F804351F4AC01A033857
:1023340020F07F40904224D9286868B1D1F8043550
:10234400A3EB0B0020F07F40B0F5000F039318D9E6
:10235400204604F07FFB039BBAF1000FAFD109EBD9
:10236400030009F10109D7E7BAF1000FA7D101234E
:102374000E4AA340D2E8EF0F1843C2E8E10F002948
:10238400F8D107490E982301C8500F9B01EB0412A2
:102394000025C2E90267536093E700BF0100800093
:1023A400C804002000500150FDFF7F00A80D00204C
:1023B4007FB500254FF0FF304FF0FF31194C1A4B19
:1023C4000226C4F80833C4F84833184BC4F8085537
:1023D400C3E902014FF480334FF40012C4F804330C
:1023E400134B0121C4F804631520C3F880212A4645
:1023F400FEF7FAFD1520FEF7DBFD01230D4AA3606D
:10240400236013600C4B0D4A009328460023CDE94A
:102414000155FFF73BFF3046FFF734FB284604B075
:1024240070BD00BF0050015003000F00C80400201D
:1024340000E100E0AC0D0020A9210000FFFF7F00B7
:102444002DE9F7432D4BD3F8042391070BD5D3F88B
:10245400042142B10022C3F80421294AD3F80431EB
:10246400136801331360254CD4F80433DA033FD5E1
:10247400244BD3E8EF2F22F00101C3E8E01F00282A
:10248400F7D1D30702D4D4F840318BB30025C4F874
:102494004051D4F84031FFF7D7FEEFF311822023E7
:1024A40083F31288BFF36F8F174BD3E90267B042EF
:1024B400B94120D3D3E900984FF0FF304FF0FF31FA
:1024C4001D60C3E902014FF48033C4F84833C4F8F3
:1024D4004051D4F8403182F31188BFF36F8FB9F1C2
:1024E400000F05D032463B460020CDF80080C84797
:1024F40003B0BDE8F083A946EDE700BF00500150EA
:10250400B00D0020A80D0020C804002030B5431CE5
:10251400124C85B005D08442A8BF0446012CB8BF34
:102524000124FFF791FE0E4B0C4DD3E90013401A22
:10253400B0F5000F0FD22218AA4228BF2A46002065
:1025440052180849CDE90100009143F10003FFF757
:102554009DFE05B030BD2A46F1E700BFFFFF7F00B6
:10256400D8040020A921000008B5FFF76DFE024B36
:102574001B68C01A08BD00BFD804002008B504F0C9
:1025840084FA58B1614BD3F8202A3AB90D21C3F823
:10259400201A0121C3F81C19C3F81C290022D300F6
:1025A40003F57F03D3F80013013107D0D3F80013E8
:1025B4000132D3F80433202A0B60F0D104F065FA19
:1025C400002840F09A8004F060FA40B1504B514A20
:1025D400C3F830254FF050230122C3F858254FF497
:1025E4007F03D3F83021D3F83431072A06D1023BD4
:1025F400012B9EBF0022484BC3F84C2504F045FA3A
:1026040050B14FF05023D3F80024D10742BF002229
:10261400C3F81421C3F818214FF47F03D3F83021F1
:10262400D3F83431072A09D14FF05023D3F80024CA
:10263400D20744BF6FF00102C3F8002404F025FA66
:1026440018B16522314BC3F80C274FF47F03D3F83C
:102654003021D3F83431072A16D12F4BD3F8203444
:10266400002B11DA4FF050230322C3F8182501225E
:102674009A60D3F80421002AFBD00022C3F8042175
:102684000122DA60C3F818254FF47F03D3F8302110
:10269400D3F83431072A20D1023B022B1DD97E22E4
:1026A4001A4B1B49C3F80C27C3F83C297F231B4A48
:1026B400C2F818310023C1F8043EC1F8083E01F500
:1026C4004821C1F81031C2F82431C2F82C3102F586
:1026D400FF1202F58052C2F8A032114AD2F88C30AF
:1026E40043F44063C2F88C300E4A0F4B1168C3F8B0
:1026F4004415D269C3F84C2508BD2922034BC3F8FD
:102704000C270322C3F83C275DE700BF00400050BC
:10271400009003504400EFBE0020035000200050FE
:1027240000ED00E00080FF0000600050014B1860E5
:10273400704700BFB40D002010B5054B144618684F
:1027440004F0B5F90028A4BF2070002010BD00BF1C
:10275400B40D00200123024A8340C2F804357047B7
:1027640000700150014B00201B681847B80D002071
:10277400014B1B68184700BFB80D0020014B09200E
:102784001B681847B80D0020014B08201B68184728
:10279400B80D002010B5144C237913BB0123237109
:1027A400124B0028206018BF184600F037F8D0B943
:1027B40023680F48002B08BF184600F0B9F890B9F9
:1027C40023680C48002B08BF184600F0F9F850B9EC
:1027D40023680948002B08BF1846BDE8104000F0E4
:1027E40063B86FF0770010BDB80D002069270000B2
:1027F40081270000752700008D27000008B5064BCF
:102804001B6843B10520FEF7E1FB20B9BDE8084091
:102814000520FEF7CDBB08BDB80D0020074B0246CE
:10282400187938B91A6001221A714FF05023C3F88D
:10283400142570476FF07700704700BFC00D00206B
:102844004FF050230022C3F80021D3F800210122C5
:1028540008491A60096811B1C3F804237047D3F812
:102864000021002AFBD00022C3F80021D3F8003154
:10287400704700BFC00D00204FF05023D3F804234D
:10288400D2070DD5D3F8002152B10022C3F800219C
:10289400D3F800210122C3F80823024B1B68184710
:1028A400704700BFC00D0020054B0246187918B9C7
:1028B4001A6001221A7170476FF07700704700BFE9
:1028C400C80D00204FF050230022C3F82021D3F874
:1028D400202101229A61094A126822B14FF48072C0
:1028E400C3F804237047D3F82021002AFBD0002228
:1028F400C3F82021D3F82031704700BFC80D002051
:102904004FF05023D3F80423D2050ED5D3F8202159
:102914005AB10022C3F82021D3F820214FF4807249
:10292400C3F80823014B1B6818477047C80D0020E3
:10293400074B0246187938B91A6001221A714FF010
:102944005023C3F8802570476FF07700704700BFAD
:10295400D00D00204FF050230022C3F82421D3F8D7
:10296400242101221A62094A126822B14FF400722A
:10297400C3F804237047D3F82421002AFBD0002293
:10298400C3F82421D3F82431704700BFD00D0020B0
:102994004FF05023D3F8042392050ED5D3F8242105
:1029A4005AB10022C3F82421D3F824214FF4007231
:1029B400C3F80823014B1B6818477047D00D00204B
:1029C400074B0246187938B91A6001221A714FF080
:1029D4005023C3F8182570476FF07700704700BF85
:1029E400D80D00204FF0502310B5D3F818141E4C06
:1029F40011F4803FD3F818241BD002F00302022AFA
:102A040002D0012A12D101224FF05023C3F8182515
:102A14000022C3F80421D3F8042101229A60226819
:102A2400A2B9D3F80421002AFBD017E004F010F96E
:102A3400E9E7D3F81424D207E5D5D3F81C2402F02F
:102A44000302013A012AF1D822681AB10222C3F81A
:102A5400042310BDD3F80421002AFBD00022C3F8BC
:102A64000421D3F80431F4E7D80D0020F8B54FF071
:102A7400502301250026D3F80443184F04F08204A0
:102A840004B9F8BDB4FA84F0C0F11F00830003F563
:102A940080739BB203F1502305FA00F2196892B2D5
:102AA40024EA02040029EBD01E601B684FF0502377
:102AB400022AC3F808230DD1D3F81814D3F8181434
:102AC40001F00301012905D1C3F81825C3F8042333
:102AD4009960D5E73B68C0B29847D1E7D80D00208C
:102AE400036803F01F025B09026004D0012B034852
:102AF40018BF002070470248704700BF0028845068
:102B040000258450034A4309D35C00F01F00184495
:102B1400C0B27047F2820000024611F0010010B505
:102B24000BD18B07C1F340000DD50749086A5060EB
:102B34000862003818BF012005E0044C236A1360C2
:102B44002362002BEDD010BD002884500025845052
:102B5400F7B504460846FFF7D5FF04EB4006B38AF1
:102B64000D46DB072AD5204604F074F92946204691
:102B740004F0E1F850B1204604F0F3F8002327688C
:102B840007EB8000C0F81035C0F810352946204600
:102B940004F010F9002101A8B1820195FFF7A0FF0C
:102BA400019B00EB8300D0F80022064B134043F056
:102BB4000203C0F80032084603B0F0BD6FF0150000
:102BC400FAE700BFF0F0FCFF70B590F88C400546C2
:102BD40090F88D6024BB21466022143004F0CEFCB2
:102BE4002146114B286853F836608E420ED10024DA
:102BF400C0F87C41D0F87C3140F30730FEF7D8F9B7
:102C04000123204685F88C30AB6770BDCBB29B00A6
:102C140003F580727C2B04BF845083580131E4E7B0
:102C24006FF07700F1E700BF187C000090F88D008A
:102C3400024B03EB800003F054BF00BFF000002000
:102C440010B5064B90F88D000C4603EB800003F0A2
:102C54002EFF0028A4BF2070002010BDF00000202B
:102C64002DE9F04F804658F804AB90F88D40DAF81F
:102C740004136A4BC9B2074653F8342050468BB04C
:102C840041F0004104F0BFF8051E39DA0023CDE914
:102C94000833624BE60003EBC404636808A81946D2
:102CA4000093FFF739FF331D03934FF0000B5C4B88
:102CB4000DF120090293029A584912F8013B02923D
:102CC400039A02EBD3028A5C03F0070322FA03F3AC
:102CD400DB071BD40BF10103022B4FF0010B09F1AD
:102CE4000409E8D14FF000410022504604F08BF86B
:102CF400009908A8FFF710FF0028D6D125F0004559
:102D04000124002D73D10BB0BDE8F08F454B5B441B
:102D14000493D9F80060002EDCD096FAA6F6B6FA31
:102D240086F6049B1C7846EA44142046FFF7EAFE24
:102D340007EB4000818AF208C1F3820305930193F3
:102D4400012319F8020006F0070603FA06F620EA42
:102D5400060009F8020007A80794FFF7C1FE079AC6
:102D640011F0100F02F1800250F82260059BC6F3A7
:102D7400014623D04046019A214603F0FCFF07A8F0
:102D84000794FFF7ADFE079BF6B2803350F823306B
:102D9400C3F301439E4207D10021204603F0BCFF48
:102DA4003146204603F0B8FF07A80794FFF798FEC2
:102DB4000122079B02FA03F30362AAE7022E14BF5F
:102DC400022103212046059303F0A6FF059B032B54
:102DD40003D0022E07D1012BE6D121464046019AA9
:102DE40003F0C9FFE0E7032EDED1022BF4E795FAE6
:102DF400A5F3B3FA83F304FA03F225EA020503F513
:102E0400A2725AF8222007EB43034046B3F87C1021
:102E1400C2F3014203F0AFFF73E700BF187C000068
:102E2400028300000283000038B5EFF311852023EC
:102E340083F31288BFF36F8F064B9C6804F0F3F999
:102E440085F31188BFF36F8F2046BDE83840FEF745
:102E540057B900BFE00D002038B50A4B53F82040A5
:102E6400013053F82050A54200D838BD606830B115
:102E7400037EDB0701D404F0ABF90834F3E72368DD
:102E84009847FAE7287C0000012270B52A4B86B0E7
:102E940003201A70FFF7E0FFFEF73AFC04F047FB4B
:102EA4000420FFF7D9FF254C254D2646AE4204F1F8
:102EB40030040FD300F026FC204CAC4226D300F0A3
:102EC40035FC04F031FB1F4A938923F001039381FD
:102ED40006B070BD54F80C3C059354F8103C0493B0
:102EE40054F8143C039354F8183C029354F81C3CD3
:102EF400019354F8203C009354E90A2354E90C014B
:102F040000F022FA54F8303C5E65CEE7D4E90A2397
:102F1400B3F1FF3F08BFB2F1FF3F05D052EA03010E
:102F2400206803D104F090FA3034C6E7064918301B
:102F340000F020FEF8E700BF79110020B07900000E
:102F4400707A000098050020F5730000B02370B576
:102F5400144E86B003FB0066134B012205930F2326
:102F6400CDE903320023CDE9013314234FF4A072D9
:102F74000E4D0F4903FB0055044602FB00110D4B97
:102F84003046009500F0E0F9337C2C7423F0040300
:102F94003374094B013403EBC423EE606B6006B059
:102FA40070BD00BFE8040020CC820000E00D0020CA
:102FB40080290020FF720000802100207FB50020BE
:102FC400FFF74AFF294B03F5006282F3088883F375
:102FD4000A880024E023264D85F82230EC772C76ED
:102FE4006C76AC7685F820406B6A43F4E0236B6220
:102FF40085F82340FDF744FFFEF76CF84FF0FF33EC
:10300400AB62EB62FEF74EFAFEF7E8F8194800F0FF
:1030140001FAFEF75FFB0120FFF71EFF0220164DA9
:10302400FFF71AFF00F0ACFB144B4FF400625D6134
:10303400134B1449059301232846CDE90343CDE9F5
:103044000144114B009400F07FF906462B7C28467E
:1030540023F004032B7404F0A8F92046FFF776FF4D
:1030640031462846084AFEF713F800BF80210020A5
:1030740000ED00E04806002098050020E00D002047
:10308400D1820000C02A00208D2E000038B5074CE4
:10309400074DAC4201D3002038BD204604F0C6F8E9
:1030A40008B91C34F5E76FF01500F5E7A40100201A
:1030B400A401002073B50C46EFF31181202585F39C
:1030C4001288BFF36F8FC5685DB125602B68C3603C
:1030D400836901338361002081F31188BFF36F8F0B
:1030E40011E052EA030603D16FF00B002560F3E709
:1030F400CDE900230246083000F076FA18B9034BF4
:103104009B685B69236002B070BD00BFE00D0020C6
:103114002DE9F341044617461E46EFF31188202398
:1031240083F31288BFF36F8F304BC2689B6872B110
:103134008068984217D057EA060216D188F311889E
:10314400BFF36F8F6FF00F0002B0BDE8F08193F909
:103154000E1001322161C4E9023288F31188BFF3F1
:103164006F8F0020F0E72169F3E793F90E1090F9CF
:103174000E30994230DA9942A8BF194604F0C8F8D3
:10318400054622464146CDE90076194800F02CFA5E
:103194000028E6D0EFF31186202383F31288BFF3CF
:1031A4006F8FA068D0B1236821699C420AD04BB1CB
:1031B40093F90E309942A8BF19466FF07F039942E4
:1031C400B8BF194604F0A4F840B13146084804F0E9
:1031D4001FF96FF00A00B7E70025D2E7002DF4D1FC
:1031E40086F31188BFF36F8FF3E700BFE00D002073
:1031F4007A110020F8B583680546002B40D0234A95
:10320400926893423FD1C368012B03D9013BC36049
:103214000020F8BDEFF31187202383F31288BFF356
:103224006F8F0169806804F073F82C68A54207D198
:103234000023C5E9023387F31188BFF36F8FE7E7F3
:10324400002CF5D0D4E90032002613605A60237CA8
:10325400C4E9006623F002032374A66004F1180095
:1032640004F029F9AC6094F90E3020462B61C4F8BF
:10327400AC6004F09AF83946054804F0C9F8C7E789
:103284006FF01500C5E74FF0FF30C2E7E00D0020F6
:103294007A11002070B5EFF31186202383F312888E
:1032A400BFF36F8F0468A0421BD0D4B1D4E90032BD
:1032B400002513605A60237CC4E9005523F00203FF
:1032C4002374A56004F1180004F0F5F82046C4F84E
:1032D400AC5004F06AF83146BDE87040064804F08A
:1032E40097B8D0E902329A4218BF0133836086F35B
:1032F4001188BFF36F8F70BD7A11002013B5EFF3FF
:103304001181202484F31288BFF36F8F846844B141
:10331400013C846081F31188BFF36F8F002002B0F9
:1033240010BD52EA030406D181F31188BFF36F8FF5
:103334006FF00F00F3E7CDE900230246014800F0E7
:1033440053F9ECE77A1100202DE9F04F984685B047
:1033540000F15803C0E91633129B0025838104232E
:10336400D61D26F007060374119B01EB060A0F46CF
:10337400C0E90655514685608373C5730446DDF87C
:1033840038B0DDF84C90FDF779FB109B073020F046
:103394000700C4E92576C4F89C0002930F9BAAEBAE
:1033A4000006CDE900B33246434639462046FDF7D0
:1033B40053FE0F9BC4E9188BA366109B6565E366F7
:1033C400EFF31183202282F31288BFF36F8F104F23
:1033D4003A6A3C62226783F31188BFF36F8FB9F1B5
:1033E400000F11D01F22494604F1740004F0CEF8F6
:1033F40084F89350BB680BB1D3F8A0303046C4F8BE
:10340400A03005B0BDE8F08F84F87490F2E700BFF7
:10341400E00D00200123037483810023C0E92533D8
:10342400C0F8A030014B9860704700BFE00D002049
:103434006FF00A01094A9368C3F8AC100849C3F84D
:10344400A8004B6843F080534B60002383F311883A
:10345400BFF36F8F9368D3F8AC007047E00D002082
:1034640000ED00E070B590F91020037C002A2FDBFA
:10347400D9062DD11A4C63F07F032246037452F807
:10348400183FE169934207D1C0E900210860E06177
:103494000FE09942F8D01B68002BF5D093F90E6029
:1034A40090F90E50AE42F4DD5968C0E9003108606D
:1034B4005860A569954200D005B9E568A3681A7CEF
:1034C400D20606D1DA897F2A03D9AA690AB96361C7
:1034D40070BDAB4202D0284600F0B0FA6561F7E750
:1034E400E00D002038B590F910200146002A037C35
:1034F40004DA03F07F03037403F01FFF0D4D2A4623
:1035040052F8184FAB68944200D004B9EC688B426F
:1035140007D01A7CD20604D1DA897F2A01D9A2699C
:103524002AB1A34202D0204600F088FA23466B61F8
:1035340038BD00BFE00D0020B3F1FF3F08BFB2F17A
:10354400FF3F03D00249183000F014BB704700BF9E
:10355400F5730000034648B9EFF3058232B9064A11
:1035640051699268914201D0FFF762BF83F31188D9
:10357400BFF36F8F704700BFE00D002038B5184CC3
:10358400A168E0690B68814214BF1A4600224968A9
:103594000B605960A368E1692AB9124AC3E90021A2
:1035A4000B60E3610AE092F90E5093F90E00854234
:1035B40012DD5168C3E900210B605360A569094B12
:1035C4009D4200D005B9E568A3689D4202D0284613
:1035D40000F034FA656138BD8A42DED01268DBE758
:1035E400E00D0020F80D0020F8B5DDE906670D4B6D
:1035F4000C46986811460C4A1060EFF311822022A1
:1036040082F31288BFF36F8F9D68284603F0A7FEEC
:10361400284632463B46FFF78FFF2046BDE8F84078
:10362400FFF706BFE00D0020040E0020F8B50446A5
:10363400EFF31187202383F31288BFF36F8F037C8A
:1036440049B203F01F02002A0CBF0126002635D11F
:1036540003F07F032A4D037403F06FFE2A46037CB4
:10366400817363F07F03037452F8183FE86993424F
:1036740007D1C4E900200460EC610DE09842F8D061
:103684001B68002BF5D093F90EC08C45F6DD596804
:10369400C4E900310C605C60AC69944200D004B9A8
:1036A400EC68AB689C4202D0204600F0C7F96C611C
:1036B40087F31188BFF36F8F3046F8BD9B071CD585
:1036C400856803F03AFE81732B689D4209D16B68CB
:1036D400C4E900531C606C60EAE76A689A42F6D059
:1036E4001B68002BF3D093F90E208A42F5DD5A684B
:1036F400C4E9003214605C60DAE78173D8E700BF84
:10370400E00D0020EFF31181202383F31288BFF32F
:103714006F8F054B9A68D37B013BD37381F3118878
:10372400BFF36F8F704700BFE00D002070B5EFF35B
:103734001186202383F31288BFF36F8F0F4DAB687C
:10374400DA7B0132DA732A4652F8184F944200D0D9
:1037540004B9EC681A7CD20604D1DA897F2A01D92B
:10376400A2692AB19C4202D0204600F067F92346A0
:103774006B613046BDE87040FFF7ECBEE00D002001
:10378400024B03F11802C3E906227047E00D002042
:1037940070B5EFF31186202383F31288BFF36F8F84
:1037A4001A4CA168E0690B68814214BF1A460022D2
:1037B40049680B605960A368E1692AB9144AC3E9EE
:1037C40000210B60E3610AE092F90E5093F90E00B8
:1037D400854216DD5168C3E900210B605360A56979
:1037E4000B4B9D4200D005B9E568A3689D4202D009
:1037F400284600F023F965613046BDE87040FFF7C4
:1038040017BE8A42DAD01268D7E700BFE00D002065
:10381400F80D0020F8B550EA010306460C4603D122
:10382400FFF7B6FF0020F8BDEFF31187202383F3E1
:103834001288BFF36F8F124D124BA8681860FFF700
:1038440051FEA868234632460F49183000F092F919
:10385400AA680446137C384643F004031374FFF744
:10386400E7FDAB68D3E90A23B3F1004F08BF002A90
:10387400D8D103F055FE201A20EAE070D3E700BF48
:10388400E00D0020040E0020F5730000014B986841
:10389400704700BFE00D00202DE9F84304468789F6
:1038A400EFF31186202383F31288BFF36F8F037C19
:1038B400190705D586F31188BFF36F8FBDE8F88328
:1038C400D90943F0080272D10274A36813B12046E7
:1038D40003F03BFD04F1180003F0EDFDA56D04F1C8
:1038E4005808A84511D04FF0000975B1284603F0D7
:1038F4002CFD05F1180003F0DEFD2846C5F8AC9058
:10390400FFF7B0FDA56DA845EFD1DFF8C480D8F866
:1039140008309C4253D1EFF30589B9F1000918BF6F
:103924004FF00109D8F818502A4A954200D00DB931
:10393400D8F80C50AB4202D0284600F07FF820465D
:10394400C8F8145002F0FAFD204600F0C7F8B9F1A7
:10395400000F02D02048FFF75DFDD8F808309C42E4
:1039640030D1EFF305836BBBA289D20711D586F35F
:103974001188BFF36F8F83F31188BFF36F8F042314
:10398400184602DFEFF31186202383F31288BFF376
:103994006F8F3046FFF74CFDFB078FD5002383F371
:1039A4001188BFF36F8F0423184602DF86E703F004
:1039B4007F0343F00803037403F0BFFC85E74FF073
:1039C4000009AFE786F31188BFF36F8FE4E700BF08
:1039D400E00D0020F80D002048060020027C03467C
:1039E40012F01F0210D10A4988420DD00949086813
:1039F40068B1D9897F2909D893F90E20064B1B6831
:103A04009A42B8BF002070470020704710467047A4
:103A1400E8040020FC000020F80000200122044BF0
:103A2400C01A044BC0105843034B1A54704700BFCC
:103A3400F8060020ABAAAAAA7A11002070B50C4B94
:103A44000C4D1E7CFFF7CAFF182303FB06550446E2
:103A5400284603F030FD0022074B9A553CB1621E04
:103A64002846BDE870400549D31700F083B870BDFF
:103A7400E00D0020F80600207A110020213A000011
:103A840038B5EFF31185202383F31288BFF36F8FCA
:103A94000F4B104A9C681068A04206D1FFF7CEFF76
:103AA40085F31188BFF36F8F38BD00211B7C116033
:103AB400094AD35C002BF3D02046FFF78FFF002880
:103AC400EED0237CDB0601D1FFF758FD2046E5E765
:103AD400E00D0020040E00207A110020EFF3118184
:103AE400202383F31288BFF36F8F0A4A136A834239
:103AF40007D11B6F136281F31188BFF36F8F704777
:103B04001346002BF7D01A6F8242F9D1026F1A675D
:103B1400F1E700BFE00D0020024B1868984208BF8F
:103B24000020704700010020034B1B680BB9FEF70F
:103B34001BBD0020704700BF080E002030B570B1D7
:103B44000B4B5B6898420AD0036843B1D3E9042164
:103B5400D0E90445121941EB0501C3E90421D0E978
:103B6400003213605A600023C0E9003330BD00BF47
:103B740000010020B3F1FF3F08BFB2F1FF3F2DE980
:103B8400F84F0446994615461F467AD08160EFF3F4
:103B94001188202383F31288BFF36F8FB9F1000FCC
:103BA400DFF8E4A020DBFFF7BFFFDAE900270135E7
:103BB40049F100092D1849EBE07306464FF001095D
:103BC400C4E90453AD1843EB0707FFF7A5FF034609
:103BD400DFF8B8E0DEF804A0EBB9C4E900EACAF8FB
:103BE4000040CEF8044028E06FF00103DAE9001247
:103BF4005B1A4FF0FF3161EB02025B1B62EB0902BF
:103C0400012B72F10001BCBF012300224FF0000917
:103C1400C0E90432D9E7D3E9041CD4E904208A4278
:103C240070EB0C0B24DA891A5A686CEB0000C3E9B8
:103C34000410C4E9003214605C60FFF76DFF844235
:103C44000ED1134B1B685BB9B9F1000F02D1FFF71A
:103C54006BFF0646304603F017FC0021FEF756FCC6
:103C640088F31188BFF36F8F28463946BDE8F88F73
:103C7400521A60EB0C005345C4E90420ADD01B6814
:103C8400AAE700252F46EFE71007002000010020D7
:103C9400080E00202DE9F047DFF8A8900246C9F885
:103CA40000000D46FFF738FF00260027DFF8988054
:103CB4004FEAE27ED8E9001350B1D0E9044CA242A5
:103CC4007EEB0C0A1ADAA41A6CEB0E06C0E9044661
:103CD4000024521843EB0E032046C8E90023C9F818
:103CE400004003F0D1FB2146FEF710FC85F3118858
:103CF400BFF36F8FBDE8F047FFF7C2BE611843EB17
:103D0400E473C0E90467C8E90013FFF717FF012251
:103D14004FF00043C0E9042385F31188BFF36F8F8C
:103D240083689847EFF31185202383F31288BFF348
:103D34006F8FD9F80020121BC9F80020FFF7ECFEA2
:103D4400B6E700BF080E00201007002010B5EFF3FF
:103D54001184202383F31288BFF36F8FFFF7E4FEEF
:103D64000346054AD2E90001181841EBE37184F3D4
:103D74001188BFF36F8F10BD1007002010B50C4CD5
:103D8400236813B10B4B1B682BB900F041FF30B90A
:103D94000122084B1A6001232360002010BD013862
:103DA400072801D9044810BD044B53F8200010BD66
:103DB400100E00200C0E0020FE8FFFFF407C000040
:103DC400BFF34F8F0549064BCA6802F4E062134300
:103DD400CB60BFF34F8F00BFFDE700BF00ED00E0F5
:103DE4000400FA0530B44FF0FE3200250B4B0C4CA6
:103DF4000C494968C3F80024C3F80424C3F8082410
:103E0400C3F80C24C3F81024C3F81424C3F81824EA
:103E1400C3F81C24C4F8005530BC08470050845033
:103E24000040845008010020024BD0E90012C3E98D
:103E340000127047080100200B4670B58CB006468E
:103E44001446202103AA04A81D4600F0B7F900284F
:103E540035D1039B202B32D14FF0FF31194800F0AC
:103E64008BFF40BB002000F0B7FF00BB00942B4643
:103E7400202206F1100004A900F096FC044601205B
:103E840000F0AAFF78B90F4800F07EFF38B9B4B942
:103E9400202104A800F04EFF20460CB070BD0A4853
:103EA400FFF7A0FFF3E70948FFF79CFFEBE707489C
:103EB400FFF798FFDAE70448FFF794FFD2E7044CD2
:103EC400EAE700BF94010020607C0000787C0000D9
:103ED400FE8FFFFFF0B504460E4615468FB000284E
:103EE40059D03E4B02689A4264D00DB1002969D082
:103EF40027464FF4A071384600F01CFF202106A885
:103F040005AA00F05BF900285FD1059B202B5CD14A
:103F14004FF0FF31324800F02FFF70BB002000F05B
:103F24005BFF30BB002302952022019606A907F10E
:103F34001000009300F0DAFA0546012000F04CFF6F
:103F440098B9274800F020FF58B9002D41D120210D
:103F540006A800F0EFFE214B3B609CB128460FB051
:103F6400F0BD2048FFF73EFFEFE71F48FFF73AFF99
:103F7400E7E71D48FFF736FFD4E71A48FFF732FF9B
:103F8400CCE70025194800F0FFFE0028E6D01548CC
:103F9400FFF728FFE2E74FF0FF31144800F0ECFE92
:103FA40060B9134B0D4A1B689342EAD005B196B130
:103FB4000F4F9EE7002528460FB0F0BD0948FFF7D4
:103FC40011FFEEE76FF4E045C8E7202106A800F0F2
:103FD400B1FE084DC1E76FF4E045D3E7A5BCC95A6B
:103FE40094010020607C0000787C000080010020A7
:103FF400140E0020FE8FFFFF2DE9F04F83B0002B3D
:1040040000F0C7801D4600230446884617462B60EF
:104014008AB1002900F0BD80002800F085805E4B45
:1040240002689A4244D1B7F5806F0AD95B4E304694
:1040340003B0BDE8F08F002876D0574B02689A424F
:1040440036D1A146D9F838311BB1D9F83020934282
:1040540035D94FF0FF31524800F08EFE00287CD154
:10406400002000F0B9FE002873D1002309F1100AE2
:104074004FEAC70B424659465046009300F09AFA5D
:104084000646012000F0A8FE00285ED1444800F056
:104094007BFE002855D11F2E1AD076B92F6044B963
:1040A400404800F071FE20B13F48FFF79BFE00E05E
:1040B4003E4E304603B0BDE8F08F3D4EEFE70022A0
:1040C40048461146FFF7B8FE06460028C1D0E6E789
:1040D400002248461146FFF7AFFE06460028DED10F
:1040E4004FF0FF312E4800F047FE00284DD100204C
:1040F40000F072FE002844D100234246594650463F
:10410400009300F057FA0646012000F065FE0028EF
:1041140033D1234800F038FE0028BED02248FFF7F0
:1041240061FE002EBAD0C8E74FF0FF311D4800F001
:1041340023FED8B91F4B1A68174B9A4211D01B4E55
:10414400AEE71948FFF74EFEA5E71B48FFF74AFE06
:104154009CE71948FFF746FE87E71348FFF742FE3E
:104164007EE7B7F5806F05D90C4E99E70E48FFF747
:1041740039FEDFE7DFF83C9064E70F48FFF732FED3
:10418400C7E70D48FFF72EFEB6E70748FFF72AFEFC
:10419400ADE76FF4E0468CE7A5BCC95ADE8FFFFF9C
:1041A4009401002080010020607C0000E88FFFFF64
:1041B400FE8FFFFF140E0020787C00002DE9F047ED
:1041C400DFF89CA080460D46DAF800004FF0FF317E
:1041D400914600F0D1FDA8BB002000F0FDFD68BBB6
:1041E400C5B100261F4F0AE0182D2C4628BF1824FD
:1041F4003946224600F09CFD2D1B26440BD0182185
:10420400384600F027FB034608EB0600002BEBD0F2
:10421400154C03E02E460024C9F80060114818210B
:1042240000F088FD012000F0D7FDA8B9DAF80000FD
:1042340000F0AAFD50B92046BDE8F0870B48FFF70F
:10424400D1FDCDE70A48FFF7CDFDC5E70848FFF7E4
:10425400C9FD2046BDE8F0870448FFF7C3FDE5E744
:1042640084010020540F0020FE8FFFFF787C0000A3
:10427400607C000010B5044650B1636813F0685FB9
:1042840005D0064A934202D000236260236010BD29
:10429400034B04485B689847EFE700BF2C5F5CA9B9
:1042A40008010020987C0000C8B143680D4A93427D
:1042B40013D013F0685F0ED0012350E8002F194685
:1042C40040E8001C9CF0000FF7D1012AF5D0BFF3A1
:1042D4005F8F0020704704487047044870476FF4AC
:1042E400E04070472C5F5CA9E98FFFFFEA8FFFFF76
:1042F400034680B1426809498A420AD012F0685FD5
:1043040005D0BFF35F8F002210461A60704704483F
:104314007047044870476FF4E04070472C5F5CA915
:10432400E98FFFFFEA8FFFFF10B5044620B1002399
:10433400034A2360626010BD0248FFF753FDF6E7AD
:104344003A00003AC07C000070B5184CD0F804C0A4
:104354000568C4F804C0D0F808C0C068C4F808C030
:10436400E06025600868124B124A1860486858607B
:1043740088689860C8680969D8601961536813F03F
:10438400685F05D000230C49104651601360A847AC
:104394000A48436813F0685F07D00022064923687F
:1043A400C0E90021BDE87040184770BD2401002019
:1043B40010010020440100202C5F5CA93C01002076
:1043C4002DE9F047044684B0A64694F81FC015466C
:1043D4004FF01008002294F81E90637F0CF1010A3C
:1043E40009EB1A2994F81CC003EB19230CEB132CCA
:1043F4006377E37E84F81CC003EB1C2394F81AC093
:10440400E3760CEB132C637E84F81AC003EB1C23B5
:1044140094F818C063760CEB132CE37D84F818C071
:1044240003EB1C2394F816C0E3750CEB132C637D8B
:1044340084F816C003EB1C2394F814C063750CEBCA
:10444400132CE37C84F814C003EB1C2394F812C0EF
:10445400E3740CEB132C637C84F81E9003EB1C2395
:10446400637484F81FA084F812C094F810C00E4638
:104474000CEB13230EF8103F04AF02211046234621
:10448400CDE901E8009200F073FE10B1BD46BDE82D
:10449400F0872021204600F001FF0028F6D12946AC
:1044A400304600F0FDFE0028F0D11F2D15D8C5F1CF
:1044B400270323F007036E46ADEB030DC5F120057A
:1044C4000DEB080401462A46204603F057F8294616
:1044D400204600F0E5FE38B9B5460021084600F054
:1044E4001BFFBD46BDE8F087B546CFE7F0B589B000
:1044F4000546DDE90F46002C47D02022684603F02C
:1045040017F866B3731E022B51D921466A4626F06A
:104514000300204451F8043B1768814283EA0703EF
:1045240042F8043BF6D1B30719D026F003031DF873
:104534000310E25C4A400DF803205A1C96420ED93F
:104544001DF80200A15C023341409E420DF80210A6
:1045540005D91DF80310E25C4A400DF8032024221B
:104564000021284603F00AF8202269462846FFF76E
:1045740027FF044610B9012300242B620821684652
:1045840000F022FB204609B0F0BD0F46242221464C
:1045940002F0F4FF202239462846FFF711FF0446B3
:1045A4000028EFD1012320462B6209B0F0BD00237F
:1045B400BDE700BF2DE9F04300271D46036ABDB0E7
:1045C4000133CDE90477CDE90677CDE90877CDE964
:1045D4000A7775D004460E469046002D6ED02946C3
:1045E400449AFFF7EDFE002865D100221020E17FF8
:1045F40094F81EC0637F01F1010E0CEB1E2C217F89
:1046040003EB1C2301EB13216377E37E217703EB98
:104614001123A17EE37601EB1321637EA17603EBE4
:104624001123217E637601EB1321E37D217603EBD5
:104634001123A17DE37501EB1321637DA17503EBC8
:104644001123217D637501EB1321E37C217503EBB9
:104654001123A17CE37401EB1321637CA17403EBAC
:104664001123217C637404F1100701EB13232374D9
:1046740084F81EC084F81FE02346CDE901700221AE
:104684001046009200F074FDA8B94046F10800F00D
:1046940005FE80B95FEA162916D080464FEA09293B
:1046A40001E0C84510D0202104A800F0F9FD08F568
:1046B40080780028F5D03DB0BDE8F08304AD94E7E0
:1046C4001F203DB0BDE8F083B14507D0A6EB09013A
:1046D400C90804A800F0E4FD0028ECD10CA800F0FF
:1046E400AFFD0021084600F017FE0028E3D1102298
:1046F40012A9384602F01CFFE07FA37F0138627FD5
:10470400A3EBD0739BB2A2EBD332A377237F92B2F5
:10471400A3EBD233E077E07E9BB2A0EBD3302377D8
:10472400A37E80B2A3EBD0336277627E9BB2A2EB0E
:10473400D332A376237E92B2A3EBD233E076E07D2C
:104744009BB2A0EBD3302376A37D80B2A3EBD0330E
:104754006276627D9BB2A2EBD332A375237D92B2C3
:10476400A3EBD233E075E07C9BB2A0EBD33062754F
:10477400A27C80B2A2EBD0322375637C92B2A3EB0D
:10478400D233E074207C9BB2A0EBD330A2742074AB
:104794002946202220466374FFF712FE00288AD19E
:1047A400236A0133236286E7F0B589B005460E9E7D
:1047B400002B43D0684617461C4602F0B9FE66B388
:1047C400731E022B44D9A646EC4626F0030222446B
:1047D400DCF800305EF8041B594096454CF8041B85
:1047E400F6D1B30719D026F003031DF80310E25CD9
:1047F4004A400DF803205A1C96420ED91DF80200B7
:10480400A15C023341409E420DF8021005D91DF807
:104814000310E25C4A400DF803203A4669462846F4
:10482400FFF7CEFD044610B9012300242B620821B2
:10483400684600F0C9F9204609B0F0BDFFF7C0FD95
:1048440004460028F7D1012320462B6209B0F0BDAD
:104854000023CAE72DE9F04F8FB0BF4C00AF237897
:10486400C7E901012BB9204600F0B2FF204601F050
:10487400E9F84FF0000BB94BBA68A3FB02231B09FC
:10488400C7E9043BB44800F0FDFF8246002852D13A
:10489400B34C237C002B40F0B3804FF47F03D3F858
:1048A4000C2CE946013200F08081D3F80C2CAB4B80
:1048B400172AA3FB02134FEA131640F29F80FE60EF
:1048C4004FF000084E46C7F800A00622A24807F1A0
:1048D400200101F017F8002840F06A81A14BA1687B
:1048E400E568986807F1200C07F1380EDCF8003011
:1048F4001F22994603E0A8420ED0531C20D04B46F9
:10490400D34013F0010313BF002101311D460135CB
:10491400884202F1FF32EED19348C4E902154FF008
:104924000E0AFFF75FFAB54600F0E2FF8A4801F08D
:104934008DF80028A6D150463C37BD46BDE8F08F1F
:104944000CF1040CE645D1D1864B4FF0180CD3E999
:1049540000921346C4E9021562464FF0000B41462B
:104964009C46206807F1200EC0F580684FEA58186D
:104974004FEA8808904528BF90465FEA980A0346A4
:1049840027D0C7E9063EAEF10400656800EB8A0A49
:1049940050F804EF4FEA5E0303F05533AEEB030324
:1049A4004FEA930E0EF0333E03F03333734403EBBC
:1049B400131303F00F3303EB032303EB03431B0E27
:1049C400C3F1200382451D44E2D1D7E9063E1846CF
:1049D400656000EBC803B3F5806F1846A2EB0802CC
:1049E4004BD0C644002ABFD1FB6801F101089845A9
:1049F4002060FFF46AAFD7F800A0B5460123237402
:104A0400BB68172B40F2A18000237A697968984625
:104A140001EB82018946D346FA61062249464E4893
:104A240000F070FFCC46002840F0C580D4E902565F
:104A34004C4BA9F1040E9968FB699A461F225EF853
:104A4400040F03E0B1420ED0531C22D020FA02F32B
:104A540013F0010313BF002501351E4601368D42B4
:104A640002F1FF32EED14048C7F814A0C4E902565F
:104A74004FF00E0AFFF7B6F956E763684B4580F02E
:104A84008A80634540F287800023C4F804B0184646
:104A9400A7E709F114037345C4E90256CED152467F
:104AA400182140462F4BFA61D3E900EA2368C7F87E
:104AB4001490C3F580684FEA58184FEA880888456F
:104AC40028BF88465FEA980926D0ACF104056668D9
:104AD40005EB8909C7F818C055F804CF4FEA5C0202
:104AE40002F05532ACEB02024FEA920C0CF0333C6C
:104AF40002F03332624402EB121202F00F3202EB84
:104B0400022202EB0242120EC2F1200216444D456B
:104B14006660E1D1D7F818C003EBC803B3F5806F22
:104B24002360A1EB080121D0C4440029C1D1FB6951
:104B3400D7F814900633FB613B6900F101089845EE
:104B440009F11809FFF469AFDA4600F0D1FE5046C6
:104B54003C37BD46BDE8F08F840F0020ABAAAAAA5B
:104B6400180700206C010020E47C00006368734592
:104B740007D2534505D900230022C4E900230023AA
:104B8400D2E7FB690F487B614FF00D0AFFF72AF962
:104B940000F0AEFECAE64FF480630A4823604FF08B
:104BA4000D0AFFF71FF9B546BEE64FF4047686E614
:104BB4008246B546B8E60546FB69AA467B6100F025
:104BC40097FEB3E6E47C0000890000F047B900BF1B
:104BD4003AB101EB820251F8043B914240F8043BA4
:104BE400F9D1704708B500F037F830B900F03EF855
:104BF40028B9064AC2F80C0A08BD032008BD00F013
:104C04002DF800F06DF8042008BD00BF005084505A
:104C140030B583B0FFF7E6FF044610B90B4D2B689F
:104C240013B1204603B030BD02460146FFF752F9E6
:104C340050B96822064901ABFFF7DEF920B92046D6
:104C4400044B2B6003B030BD0524EAE7940F002029
:104C5400980F00205AEA5A5A0020704700207047E3
:104C6400014BC3F8040A70470050845010B515482E
:104C740000F06EF800B110BD134800F069F8002888
:104C8400F9D1124C204600F063F80028F3D1104B00
:104C940010481C6000F05CF80028ECD10E4800F0CD
:104CA40057F80028E7D10D4800F052F801460028D3
:104CB400E1D100F039F8044608B900F06FF8204655
:104CC40010BD00BF94010020900100208C01002041
:104CD4008401002088010020800100207C01002044
:104CE40008B50B4800F03EF80A4800F03BF80A48C3
:104CF40000F038F8094800F035F8094800F032F8B7
:104D0400084800F02FF8BDE8084000F00FB800BFD5
:104D140094010020900100208C01002088010020D3
:104D2400800100207C01002000207047704700BFF4
:104D340002F00BBC82B0019041B100239C461A469C
:104D440001980133994200F802C0F8D102B07047CB
:104D540008B5034B02681B6810689847002008BD1B
:104D64002401002008B5034B02685B68106898476B
:104D7400002008BD24010020024B02689B681068D3
:104D8400184700BF2401002008B5034B0268DB6804
:104D940010689847002008BD2401002070B5094C14
:104DA400094D2069AB68984718B1084B08485B68FF
:104DB40098470021074AEB6811602069BDE87040FC
:104DC400184700BF10010020240100200801002022
:104DD400F07C000000100020F8B51A4D1A4E04466D
:104DE400B26828699047E8B9184F3B684CB1A3B141
:104DF400012B19D0013B3B602869F36898470020D8
:104E0400F8BD43B90121124AC2F800151149D1F87D
:104E14001029002AFBD101333B60F36828699847C5
:104E24000020F8BD0C48F8BD0A4AD2F81039002B0E
:104E3400FBD1074A6FF07E40C2F80035FFF710FF40
:104E44003B68D7E710010020240100200010002057
:104E54000040845000508450E98FFFFF2DE9F04159
:104E64000E4682B0002879D000296FD0054601276C
:104E74003D4C55E0D4F80CC02068D4E901E14FEA78
:104E8400CE524B0980EAC05842EA502243EACC632E
:104E94008EEA02004B404FEA984E4EEA803E83EA87
:104EA40008038CEA5C1283EA0E03424011EB030E02
:104EB40082EA90424CEB0200082EB046C4E902326A
:104EC40028BF4FF0080815F00303C4E9001CCDE91E
:104ED40000E032D1072E3DD8032E2CD9B8F10402BC
:104EE400C5F800E018D0042303F10801694411F85F
:104EF400081C012AE9540FD003F10900684410F892
:104F0400080C591C032A685406D103F10A026A44A6
:104F140012F8082C0233EA54B6EB0806454415D0BF
:104F2400237E002BA6D118212046FFF793FC0028EE
:104F3400F9D127769EE74246D6E728464246694697
:104F440002F0F6FAB6EB08064544E9D1002002B0B7
:104F5400BDE8F081C5F800E06860DDE70029F5D020
:104F6400142002B0BDE8F0813007002031B10023E5
:104F7400013800F8013F01339942FAD1704700BF6C
:104F840001202DE9F041764C764DC4F8100800F06C
:104F94000BFC00236A68C4F84034C4F84434C4F8F1
:104FA4004834C4F84C34C4F86034C4F86434C4F8E5
:104FB4006834C4F86C34C4F8BC34D4F8C03402F097
:104FC400010223F00103C4F8C034D4F8C0341A43F6
:104FD400C4F8C0242868072805D1D4F8C03423F0C5
:104FE4000103C4F8C0345E4C8300D4F8C02403F039
:104FF4001C0322F01C02C4F8C024D4F8C0241343B8
:10500400C4F8C034D4F8C03495F89C2023F00203CB
:10501400C4F8C034D4F8C03495F8341023F44053A1
:10502400C4F8C034AE6BD4F8C074002A4FEA063218
:1050340002F4405242EA07024B4BC4F8C02408BFB2
:10504400002309BB1A68C4F800245A68C4F804246D
:105054009A68C4F80824DA68C4F80C24002E76D0C0
:105064001A69012EC4F810245A69C4F814246ED0A5
:105074009A69C4F81824DB69C4F81C342868072822
:1050840068D00020BDE8F0810229F8D11F683146BC
:10509400384600F0F9FCDFF8D48050B3D8F800208B
:1050A4002F4B1268C3F80024D8F800205268C3F8C4
:1050B4000424D8F800209268C3F80824D8F8002003
:1050C400D268C3F80C24D8F800201269C3F810245D
:1050D400D8F800205269C3F81424D8F80020926943
:1050E400C3F81824D8F80020D269C3F81C24BDE8FA
:1050F400F081D8F8003031461B683846C4F80034D3
:10510400D8F800305B68C4F80434D8F800309B68E1
:10511400C4F80834D8F80030DB68C4F80C34D8F884
:1051240000301B69C4F81034D8F800305B69C4F847
:105134001434D8F800309B69C4F81834D8F8003017
:10514400DB69C4F81C3400F0B5FC0028A6D128683B
:10515400072896D10122024BC3F87C2491E700BFB3
:105164000050845004100020A41000207801002076
:105174002DE9F84F0024984683460F4691462D4E5C
:105184002D4DC02221463046DDF828A002F0F6F964
:10519400C5F84044C5F84444C5F84844C5F84C44EF
:1051A400C5F86044C5F86444C5F86844C5F86C445F
:1051B40000F0F2FA2046C5F8C04400F0F5FAC5F84C
:1051C4001048C6E9007B86F83490C6F838A0B8F1D8
:1051D400000F0AD001230AF102024146D20006F16F
:1051E400A00086F89C3002F0A3F9102000F0C6FA63
:1051F400FFF7C6FE40B9022F08D0072F04D01FB115
:105204000E48FEF7EFFD0620BDE8F88F0B9B1A68E9
:10521400094BC3F860240B9A5268C3F864240B9AB0
:105224009268C3F868240B9AD268C3F86C24BDE86A
:10523400F88F00BF0410002000508450E47C00006C
:1052440010B50446C022124902F072F9114B6022D3
:10525400D3F840041049A060D3F84404E060D3F8C4
:1052640048042061D3F84C046061D3F86004A06161
:10527400D3F86404E061D3F868042062D3F86C3492
:1052840004F13C006362BDE8104002F051B900BF74
:1052940004100020005084501411002000F074BA4F
:1052A40070B51B4C2368072B17D0A36A06460D461E
:1052B400B3B1012000F078FAA36A2B440F2BA36248
:1052C4001CD9012301222946304600F0C1F90346C6
:1052D40020B9104B1B6C102B16D00023184670BD40
:1052E400E36A002BE5D0012000F02CFA2368072B99
:1052F400DFD1A36A2B440F2BA362E2D82368012BCE
:1053040094BF00230123DDE700F01CFAE5E700BFAA
:1053140004100020141100202DE9F04184B0DFF8BE
:105324005481554BD8F84020544CC3F8BC24A36A8C
:1053340006460D4600AFB3B32368072B7ED1002089
:1053440000F000FA00224C4BC3F8BC2415B1D8F885
:1053540058302B602368072B2FD000260024464D9D
:10536400C0222146454802F009F9C5F84044C5F871
:105374004444C5F84844C5F84C44C5F86044C5F8ED
:105384006444C5F86844C5F86C4400F005FA204646
:10539400C5F8C04400F008FA30461037C5F8104884
:1053A400BD46BDE8F081E36A002BCBD02368072B10
:1053B40057D0012000F0C6F9C4E7E36A1BB9012203
:1053C4002D4BC3F824252C4B256BD3F840240335EF
:1053D4003A60D3F84424AD087A60D3F84814EA1D3F
:1053E400B9606168D3F84C04012922F007036C46C4
:1053F400F860ADEB030D2CD129466846FFF7B6FDE6
:1054040065B30020013D0DF1FF316D4411F8013FFA
:1054140007F1100202EB830252F8102C56F82330E5
:105424005340034314BF01200020A942EED1ABB185
:105434001348FEF7D7FC1226A5468FE7012000F09B
:10544400B3F92368002B7FF47AAF012000F07AF9D6
:1054540078E72A4630463946FFF7BAFB0026A546C8
:105464007CE7012000F0A0F92368072B3FF467AF25
:105474009FE700BF14110020005084500410002046
:10548400E47C0000F0B501246E4A6F4B92F85C5046
:1054940092F84870A5428646C3F820483AD04FF4A3
:1054A400FE64C3F8044AD3F8084A44F47F64C3F89A
:1054B400084A002F3AD1002D40F0BE80634B1C7C7B
:1054C40014B11C6884425ED993F8244014B15C6919
:1054D400844269D993F8384014B19C6A84426FD9E4
:1054E40093F84C401CB1DC6B844240F28480564BF0
:1054F400C3F828ECC3F82C1C4FF40061524AD2F8CC
:10550400003A31EA0303FAD10023C2F8081AC2F8B8
:105514002038F0BD4FF47664C3F8044AD3F8084A3F
:1055240044F47F64C3F8084A002F43D0474BD46C3B
:105534001F7C17B11F68BC4248D293F8247017B17E
:105544005F69BC425FD293F8387017B19F6ABC425E
:1055540061D293F84C7017B1DF6BBC4263D227461B
:105564000C44D464946D0C449465374CC4F8287D81
:10557400C4F82C1D002DA2D0012DC4F8300CC4F8A1
:10558400341C1BD0B8E75D68254485429CD90025AE
:1055940005EB850503EB8503556D9A68DB68161BDF
:1055A400064405FB036EA2E79D692544854291D913
:1055B4000125EDE7C3F8300CC3F8341C90219DE7B6
:1055C400DD6A254485428BD90225E1E75E6807EB55
:1055D400060C6445B1D24FF0000C0CEB8C0C03EBC1
:1055E4008C0CDCF80860DCF80CC0F71B566D274403
:1055F40006FB0C77B4E71D6C2544854288BF032560
:105604007FF675AFC4E79E6907EB060C64459AD232
:105614004FF0010CE1E7DE6A07EB060C644598D213
:105624004FF0020CD9E71E6C07EB060C644538BF3B
:105634004FF0030C93D2D0E7C3F8300CC3F8341CFA
:105644005AE700BF1411002000508450C4100020F9
:105654002DE9F843DFF8E4900646D9E9105C0F46DB
:105664001446002A59D1CDBBFFB1D9F8401089F8AE
:10567400484061BBD9F844307D1EB5FBF3F503FB0C
:1056840005F545B1B5F5803F12D230462946FFF7FE
:10569400F9FE7F1B2E443A463146284801F048FF64
:1056A400D9F840303B44C9F840300020BDE8F883C5
:1056B400D9F844403046C4F580384146FFF7E2FE4D
:1056C400A4F58033ED181F444644DBD1E3E71B48BF
:1056D400FFF7D8FE0023C9F84030CBE799F84830EB
:1056E40043B129464846FFF7CDFEC9F84040BBE721
:1056F400002DB9D0ACEB0502BA4209EB0500154602
:1057040028BF3D46314601F013FFD9F840302E44FE
:105714002B44C9F840307F1BA6E7002BE8D0D9F80A
:1057240050308B4205D35B1AC9F85030002DE1D1BB
:105734009AE70348FEF756FB1320B7E7141100203D
:10574400E47C000010B50C4C216C29B128B90A483E
:10575400FFF798FE0023236410BDC1F140026018D6
:10576400002101F00BFF616C03482164FFF78AFEFE
:1057740000232364F0E700BF14110020014B586498
:10578400704700BF141100200246024B0020C3E9F9
:10579400132170471411002060220021014801F0F8
:1057A400EDBE00BF14110020074AD2F81039002BB7
:1057B400FBD1064B0449C2F800091870D1F810391E
:1057C400002BFBD1704700BF005084507B11002098
:1057D4004FF47F0310B4D3F8102C013221D0D3F846
:1057E400102CF2B9D3F8142C01322BD0D3F8142C8A
:1057F40042BBD3F8182C013231D0D3F8182C72BB29
:10580400D3F81C2C013202D0D3F81C3CA3B34FF4C0
:105814007F03D3F81C2C032101322AD0D3F81C4C6B
:1058240008E04FF47F03D3F8102C0021013210D08C
:10583400D3F8104C0122002384600173027043608A
:1058440010BC70474FF47F03D3F8142C01210132AC
:1058540002D140F2DC54EDE7D3F8144CEAE74FF4FC
:105864007F03D3F8182C0221013202D0D3F8184C4C
:10587400E0E740F63404DDE7014810BCFEF7B2BAB5
:10588400E47C000070B5037843B3D0E901520124ED
:10589400154B90F80CC0C3F8C441C3F84041C3F899
:1058A400C441C3F83021D3F830118A42F7D1002023
:1058B4003F261E210422C3F82C01C3F80861C3F853
:1058C4000011C3F80C21D3F80C214CEA0202C3F8EE
:1058D4000C21C3F83851C3F82C4170BD0348FEF7BE
:1058E40081FA0C2070BD00BF00508450E47C00009D
:1058F4000020034BC3F82C01C3F8C401704700BF58
:10590400005084504FF0000C2DE9F84F86460124D6
:105914004FF0FF354FF03F094FF01E0804270E46A5
:105924006046464BD3F8042112F00E0F53D0D3F83F
:105934000C21D3F8301102F00302032AC3F82C011E
:10594400C3F8BC41C3F8085169D0013242F0040ADB
:10595400D2B2C3F80CA1C3F830118EF80C20CEF8E3
:105964000810D3F80C11D3F8302101F0030BD3F84D
:1059740038A1C3F8C441C3F84041C3F8C441C3F8D3
:105984003021D3F830118A42F7D1C3F82C01C3F87F
:105994000891C3F80081C3F80C71D3F80C210CF101
:1059A400010C4BEA0202C3F80C21C3F838A1C3F876
:1059B4002C41D3F80421D10711D4BCF1640FB1D127
:1059C40000221E4B1E48C3F82C21C3F8C421FEF745
:1059D40009FA102021E0D3F80421D207A2D5BCF1A2
:1059E400640FEDD04FF0FF3201210020134BC3F8B8
:1059F400BC11C3F80821D3F814213260D3F818215C
:105A04007260D3F81C21B260D3F82021F260D3F87D
:105A140024213261D3F828317361BDE8F88F4A1C20
:105A24009FD0491840EB00028D4270EB020238BF50
:105A34004FF0FF3100224FF0040A8AE700508450EF
:105A4400E47C00000A234360704700BFC368032B53
:105A540005D0022B14D80133C3600120704783683A
:105A64005A1C0FD000224FF0FF3CDB1842EB02011E
:105A740091420CBF19466146C0E9021201207047E9
:105A84008368EFE7002070477F2809D851B10139B6
:105A9400022909D805497F280CBF08460020704711
:105AA4000248704708467047014870470100F700F4
:105AB4000300F7000129F0B407D0022900F089801F
:105AC40000295AD07248F0BC70470022714C724BC6
:105AD4004FEAC00CC4F80015451C0CF57F04C3F84C
